:020000022000DC
:10700000000004205D730200B9730200BB7302002C
:10701000BD730200BF730200C173020000000000D4
:10702000000000000000000000000000C373020028
:10703000C573020000000000C7730200C97302009C
:10704000BD250300CB73020005E902001D180300F3
:1070500035180300CB730200FDE70200251A030078
:107060004D080300650803007D080300CB73020090
:10707000CB7302003DED0200CB730200CB73020024
:10708000E90B030095770200CB730200CB7302007B
:10709000CB730200CB73020081210600CB73020088
:1070A000CB730200CB73020095080300AD08030008
:1070B000CB730200CB730200000000000000000050
:1070C000CB730200CB73020079190300CB7302006B
:1070D0002DF40200CB730200CB73020011490300B0
:1070E000790B0300CB730200CB7302000000000099
:1070F00000000000CB7302000000000099000300B4
:10710000000000000000000000000000000000007F
:10711000000000000000000000000000000000006F
:10712000000000000000000000000000000000005F
:10713000000000000000000000000000000000004F
:10714000000000000000000000000000000000003F
:10715000000000000000000000000000000000002F
:10716000000000000000000000000000000000001F
:10717000000000000000000000000000000000000F
:1071800000000000000000000000000000000000FF
:1071900000000000000000000000000000000000EF
:1071A00000000000000000000000000000000000DF
:1071B00000000000000000000000000000000000CF
:1071C00000000000000000000000000000000000BF
:1071D00000000000000000000000000000000000AF
:1071E000000000000000000000000000000000009F
:1071F000000000000000000000000000000000008F
:10720000354936480A1A02D0072291438D4634493F
:1072100034480A1A06D00722914381F309880222D2
:1072200082F3148830483149314A00F044F831483B
:107230003149324A00F03FF831483249324A00F0D1
:107240003AF832483249334A00F035F83248334987
:10725000334A00F030F833483349344A00F02BF811
:1072600033483449344A00F026F83448344900227F
:1072700000F02CF833483449002200F027F8334856
:107280003349091A082902DB002202604160314AB1
:1072900090471F481F49884205D00268043003B454
:1072A000904703BCF7E700208646EC46002000210B
:1072B000294A9047FEE7884207D0521A05D0037842
:1072C00001300B700131013AF9D17047884202D088
:1072D00002700130FAE770470000042000E003204C
:1072E0000000042000000420B0DD0600140001208E
:1072F000A4020120D0730200D0730200F8420600FD
:10730000B0DD06001400012014000120984306009F
:1073100098430600984306009843060098430600E9
:10732000984306009843060098430600B0DD060027
:1073300040E00600A4020120A4020120A4020120D2
:10734000943901209439012098390120983901207D
:107350009859012085730200E154030000F036B80B
:107360000F484FF00701884385460E4880470E4876
:10737000016841F470010160BFF34F8FBFF36F8F5D
:10738000FFF73EBF09480A490A4A884207D0521A05
:1073900005D0037801300B700131013AF9D1704703
:1073A00000000420F97B030088ED00E08443060020
:1073B0000000012014000120FEE7FEE7FEE7FEE7E3
:1073C000FEE7FEE7FEE7FEE7FEE7FEE7FFF7C8BFE2
:1073D000004870478C3901203CF0BCBE86B0039059
:1073E0000291019201238DF817309DF81730204A41
:1073F000039B13601E4A029B53601D4A019B9360CE
:10740000039B44F20102934212D0039B44F2020216
:10741000934220D1019B164AD360154BDB681B6851
:10742000134A9361124BDB685B68114AD36112E027
:10743000019B0F4A13610E4B1B699B680C4A5361F9
:107440000B4B1B691B680A4A9361094B1B695B68FC
:10745000074AD36100BF72B600BF00BF9DF8173066
:10746000DBB2002BFAD162B600BF00BF06B0704796
:10747000A402012000B583B002900091019244F271
:10748000010071466A4600F003F803B000BD00BF7A
:1074900000B587B003900291019272B600BF039BC2
:1074A00044F20202934217D0039B44F20202934239
:1074B00018D8039B44F20102934210D0039B44F27C
:1074C000010293420ED8039B012B0DD0039B41F286
:1074D000010293420AD005E0019B059307E0019B5E
:1074E000049304E000BF02E000BF00E000BF084BCF
:1074F0001B6803F00103002B00D000BE019A029923
:107500000398FFF76BFF00BF07B05DF804FB00BFF7
:10751000F0ED00E082B003468DF807309DF90730AA
:10752000002B09DB0B4A9DF90730134493F8003315
:10753000DBB25B09DBB20AE0074A9DF8073003F0D3
:107540000F03043B13441B7EDBB25B09DBB218461E
:1075500002B0704700E100E000ED00E082B0EFF320
:1075600010830093009B019372B600BF019B1846E5
:1075700002B0704762B600BF00BF704700B585B06B
:107580000190FFF7EBFF0390164B9B68002B1BD17C
:10759000144B01229A60144BD3F88020134B1340F4
:1075A000104A1360104B114AC3F880200E4BD3F8D9
:1075B00084300C4A53600C4B4FF0FF32C3F88420E8
:1075C000019B00221A7002E0019B01221A70039BAA
:1075D000002B01D1FFF7CEFF0023184605B05DF860
:1075E00004FB00BFC402012000E100E0FC06FFBD77
:1075F00000B585B003468DF80730104B9B68002B13
:1076000016D09DF80730002B12D1FFF7A7FF03908B
:107610000B4A0A4B1B681360094A084B5B685360AE
:10762000064B00229A60039B002B01D1FFF7A2FFBB
:107630000023184605B05DF804FB00BFC40201201A
:1076400000E100E000B583B0019000F02BF80346A4
:10765000012B03D00549432000F0AAF80198FFF759
:107660008DFF00BF03B05DF804FB00BF9843060028
:1076700000B583B003468DF8073000F013F80346D9
:10768000012B03D00649512000F092F89DF80730F5
:107690001846FFF7ADFF00BF03B05DF804FB00BF65
:1076A0009843060084B0EFF305830193019BC3F375
:1076B00008030393039B002B0DD1EFF31483009376
:1076C000009B0293029B03F00103002B0CBF0123DC
:1076D0000023DBB200E00123184604B0704700B578
:1076E00085B0EFF305830193019BC3F30803039374
:1076F000039B002B0AD0039B103B0293029B5BB2BF
:107700001846FFF707FF0346DBB200E00F231846D9
:1077100005B05DF804FB000082B003468DF8073029
:107720009DF90730002B0DDB9DF8073003F01F0299
:1077300006499DF907305B09012000FA02F2403347
:1077400041F8232000BF02B0704700BF00E100E015
:1077500082B00190019BD3F80435184602B07047FF
:1077600000B583B00190019B1B681846FFF7F0FF3E
:107770000346184603B05DF804FB00B583B00190E2
:10778000019B93F904301846FFF7C6FF00BF03B012
:107790005DF804FB08B5044B1B68044A12681046E8
:1077A000984700BF08BD00BFD0020120D4020120CD
:1077B00000B585B003460091ADF80630BDF806303F
:1077C0000293009B039302AB1A46002144F202008D
:1077D000FFF75EFE00BF05B05DF804FB10B487B094
:1077E00001900091019B009A53E8004F104643E836
:1077F000000191F0000FF7D1059404900391059BCF
:10780000184607B05DF8044B704710B487B001907C
:107810000091019B009A53E8004F44EA020043E8BC
:10782000000191F0000FF6D1059404900391059B9F
:10783000184607B05DF8044B704710B487B001904C
:107840000091019B009A53E8004F44EA020043E88C
:10785000000191F0000FF6D1059404900391049B70
:10786000184607B05DF8044B704710B487B001901C
:107870000091019B009A53E8004F04EA020043E89C
:10788000000191F0000FF6D1059404900391059B3F
:10789000184607B05DF8044B704710B487B00190EC
:1078A0000091019B009A53E8004F04EA020043E86C
:1078B000000191F0000FF6D1059404900391049B10
:1078C000184607B05DF8044B704710B487B00190BC
:1078D0000091019B009A53E8004F04EB020043E83B
:1078E000000191F0000FF6D1059404900391049BE0
:1078F000184607B05DF8044B704710B487B001908C
:107900000091019B009A53E8004F94422CBFA01AAB
:10791000204643E8000191F0000FF4D10594049053
:107920000391049B184607B05DF8044B704700B5FF
:1079300083B0019001210198FFF767FF03461846C5
:1079400003B05DF804FB00B583B0019000210198FD
:10795000FFF78BFF0346184603B05DF804FB00B544
:1079600085B0039002910192039B002B01D10E235D
:107970000EE0029B002B01D10E2309E0039B029A2B
:107980001A60039B1B681B6801990398984703467C
:10799000184605B05DF804FB10B584B00390029161
:1079A00001920093039B002B01D10E232AE0019B3F
:1079B000002B01D10E2325E0039B1B68002B01D176
:1079C00008231FE0009B002B01D109231AE0029835
:1079D00000F006F90346002B01D1102312E0009AB3
:1079E0000299039800F0E2F80346002B01D110231E
:1079F00008E0039B1B689C68009B019A029903980E
:107A0000A0470346184604B010BD10B586B00590D7
:107A1000049103920293059B002B01D10E2342E0B7
:107A2000039B002B01D10E233DE0059B1B68002B1F
:107A300001D1082337E0029B002B01D1092332E05A
:107A4000059B5B685A68029BB3FBF2F101FB02F2F3
:107A50009B1A002B01D0092325E0049800F0C0F800
:107A60000346002B01D110231DE0039B184600F0B4
:107A7000B7F80346002B01D1102314E0029A0499B1
:107A8000059800F093F80346002B01D110230AE07B
:107A9000059B1B68DC68089B0093029B039A049972
:107AA0000598A0470346184606B010BD10B584B02F
:107AB0000390029101920093039B002B01D10E23AE
:107AC0002CE0039B1B68002B01D1082326E0019BBF
:107AD000002B01D1092321E00299039800F08DF8D1
:107AE0000346002B01D1102318E0039B5B681B6841
:107AF000019A02FB03F31A460299039800F056F824
:107B00000346002B01D1102308E0039B1B681C696E
:107B1000009B019A02990398A0470346184604B0B7
:107B200010BD000000B585B00190019B002B03D073
:107B3000019B1B68002B28D10023039319E0039AB3
:107B400013469B0013449B001A46154B13440193A4
:107B5000019B1B68002B09D0019B1B68DB69019806
:107B600098470346002B01D0012314E0039B013307
:107B700003930C4A0A4BD31A0B4AA2FB03231B099B
:107B8000039A9A42DBD3002305E0019B1B68DB6963
:107B9000019898470346184605B05DF804FB00BFFE
:107BA0000000012014000120CDCCCCCC84B0039087
:107BB00002910192039BDB68029A9A4209D3029ACE
:107BC000019B13445A1E039B1B699A4201D801234F
:107BD00000E0002303F00103DBB2184604B0704755
:107BE00082B00190019B03F00303002B0CBF012323
:107BF0000023DBB2184602B0704782B001900091BA
:107C0000019B5B681B685A1E009B1340002B0CBF36
:107C100001230023DBB2184602B0704782B003464E
:107C20008DF807309DF90730002B0DDB9DF80730EC
:107C300003F01F0206499DF907305B09012000FA95
:107C400002F2603341F8232000BF02B0704700BF4A
:107C500000E100E000B583B00190019B002B03D14F
:107C600006497220FFF7A4FD019B00221A60BFF3B2
:107C70005F8F00BF00BF03B05DF804FB4C440600FB
:107C800041DF704700BF184600B585B000238DF86E
:107C900007300DF107031846FFF7D4FCF1EE103A58
:107CA0000393039B23F09F030293029BE1EE103AA0
:107CB00000BFBFF35F8F00BF2620FFF7AFFF9DF827
:107CC00007301846FFF7D4FC039B03F00703002B93
:107CD00003D004497D20FFF76BFD00BF05B05DF8C0
:107CE00004FB00BF8444060008B5064B00221A704E
:107CF0000548FFF7AFFF0549054800F041FA0023AA
:107D0000184608BDE0020120DC020120E044060024
:107D1000E402012000B583B0FFF7B6FF3AF002FAA3
:107D20000346002B0ED0FFF7ABFF0190019B002B09
:107D30000BD0019B022B08D006494FF4B070FFF71F
:107D400037FD02E020BF40BF20BF00BF03B05DF899
:107D500004FB00BF8444060082B00190019B9B6835
:107D6000024A12781344184602B070474245060092
:107D700000B583B001900091019B002B03D108490D
:107D80008320FFF715FD019B9B68009A9A4202D25F
:107D9000009B013300E00023184603B05DF804FBAC
:107DA000EC44060000B585B00190019B1B681B6880
:107DB0000393019B1B685B680293029A039B9A42A0
:107DC00003D3029A039BD31A07E00198FFF7C4FF7D
:107DD0000246039BD21A029B1344184605B05DF875
:107DE00004FB000000B585B00190019B002B03D17E
:107DF0000D499820FFF7DCFC019B1B681B6803936F
:107E0000019B1B685B68029302990198FFF7B0FF22
:107E10000246039B93420CBF01230023DBB21846AA
:107E200005B05DF804FB00BFEC44060010B588B057
:107E30000190009100230793019B002B03D1564929
:107E4000A320FFF7B5FC009B002B03D15249A420CF
:107E5000FFF7AEFC00238DF80F300DF10F0318462D
:107E6000FFF7F0FB0198FFF7BDFF03468DF81B30CD
:107E70009DF81B3083F00103DBB2002B03D1019B83
:107E80001B7C002B7BD1019B1B685B680593019BCE
:107E90001B685A68019B1C6811460198FFF768FF30
:107EA000034663609DF81B30002B0AD0019B1B68C2
:107EB0001A68019B1C6811460198FFF759FF034699
:107EC0002360019BDB68013B072B38D801A252F8E5
:107ED00023F000BFF57E0200057F02003F7F020015
:107EE000177F02003F7F02003F7F02003F7F0200BA
:107EF000297F0200019B5A68059B1344009A12785F
:107F00001A702DE0019B5A68059B5B001344009A90
:107F100012881A8024E0019B5A68059B9B00134439
:107F2000009A12681A601BE0019B5A68059BDB00EF
:107F3000D118009BD3E90023C1E9002310E0019B85
:107F40005B681946019BDB68059A02FB03F30B444F
:107F50001846019BDB681A4600993BF00FF900BFF9
:107F60000198FFF71FFF0490019B1B689B68049A10
:107F70009A4207D9019B1B68049A9A6002E0042385
:107F8000079300E000BF9DF80F301846FFF770FB25
:107F9000079B184608B010BDEC44060000B585B03C
:107FA00001900B468DF80330019B1B681B680393FF
:107FB000019B1B685B6802939DF80330002B0ED079
:107FC000029A039B9A4206D30198FFF7C5FE024628
:107FD000029BD31A11E0039A029BD31A0DE0029A76
:107FE000039B9A4203D3029A039BD31A05E001989C
:107FF000FFF7B2FE0246039BD31A184605B05DF8A0
:1080000004FB00B58BB0039002910192039B1B68A7
:108010001B68099300210398FFF7C0FF0890039B9A
:108020005B681946039BDB68099A02FB03F30B4468
:108030000793019A089B9A4219D8039BDB68019A1F
:1080400002FB03F31A46079902983BF097F8099A46
:10805000019B1A44039B9B689A4203D8099A019B8F
:10806000134400E00023039A1268136020E0039B8E
:10807000DA68089B02FB03F30693069A07990298B5
:108080003BF07CF8019A089BD31A0593029A069B51
:1080900013441846039B5968039BDB68059A02FB4F
:1080A00003F31A463BF06AF8039B1B68059A1A60B3
:1080B00000BF0BB05DF804FB00B587B003900291E0
:1080C000019200230593039B002B04D119494FF41F
:1080D000EC70FFF76DFB029B002B04D1154940F2B9
:1080E000D910FFF765FB019B002B01D100231CE099
:1080F00000238DF813300DF113031846FFF7A2FA91
:108100000398FFF74FFE0246019B934205D8019A60
:1081100002990398FFF775FF01E0052305939DF889
:1081200013301846FFF7A4FA059B184607B05DF810
:1081300004FB00BFEC44060000B585B00190019B34
:10814000002B04D10D4940F21E20FFF731FB002324
:108150008DF80B300DF10B031846FFF773FA0198F9
:10816000FFF720FE03909DF80B301846FFF780FACA
:10817000039B184605B05DF804FB00BFEC44060005
:1081800000B583B001900091019B002B03D11049F1
:108190005020FFF70DFB009B002B03D10C49512011
:1081A000FFF706FB019B009A1A60019B1B681A6887
:1081B000019B5A60019B5A68019B1B685B689A424D
:1081C00002D1019B00225A6000BF03B05DF804FB9E
:1081D0004445060000B583B00190019B002B03D1FC
:1081E00014496320FFF7E4FA019B1B68002B03D1BD
:1081F00010496420FFF7DCFA019B5B68002B14D068
:10820000019B5B681A46019B1B689B6813441A46D6
:10821000019B5A60019B5A68019B1B685B689A42EC
:1082200004D1019B00225A6000E000BF03B05DF85A
:1082300004FB00BF4445060029DF704700BF184615
:1082400028DF704700BF184600B589B00190009143
:10825000019B1B689B68002B35D002AB00221A6083
:108260005A609A60DA601A615A61009B0393019B1D
:108270009B680793019B1B79002B02D0012B0DD02B
:108280001AE001238DF80830019B1B690493019BC0
:10829000DB680593019B5B6906930DE002238DF873
:1082A0000830019BDB684FF4805202FB03F3049318
:1082B000019B5B69069300BF019B1B689B6802AA38
:1082C0001046984700E000BF09B05DF804FB00B518
:1082D00087B00190019B5A69019B9B69D31AB3F542
:1082E000805F28BF4FF4805305930422059BB3FBA6
:1082F000F2F3012B38BF01230593019B1A69019BFF
:108300009B6913440493019BDB681A46019B9B699C
:1083100013440393059A03990498FFF78DFF0346CE
:10832000184607B05DF804FB00B583B00190019BCF
:10833000DA68019B1B6913441846FFF781FF034667
:10834000184603B05DF804FB08B5034B0349184613
:1083500000F078FB00BF08BD78030120A0030120D6
:1083600008B5084B0849184600F053FB0346074A76
:108370001360064B1B68002B14BF01230023DBB2E4
:10838000184608BD78030120A00301209C030120AA
:1083900000B583B02A4B1B7A002B0BD1FFF7E0FF0F
:1083A000034683F00103DBB2002B03D0244B0022F1
:1083B0005A6042E0224B02221A72224B1B681B7940
:1083C000002B02D0012B07D00DE01E4B1B68184676
:1083D000FFF77DFF019009E01A4B1B681846FFF775
:1083E000A3FF019002E00323019300BF019B002B38
:1083F00003D0019B112B0CD00FE0114B1B7C83F0A1
:108400000103DBB2002B17D00021022000F060F93D
:1084100012E00B4B01221A720FE00A4B1B6803217A
:108420001846FFF711FF064B00221A72044B002278
:108430005A60FFF789FF00E000BF03B05DF804FB5E
:10844000880301209C03012008B50848FFF76FFA54
:108450000346002B08D1064B5B7C83F00103DBB2A3
:10846000002B01D0FFF794FF00BF08BD8C03012053
:108470008803012084B001901B4B0022DA60019B2D
:108480001B79002B02D0012B19D028E0019B5A69DF
:10849000019B9B69D31AB3F5805F28BF4FF48053CB
:1084A0000393019B9A69039B1A44019B9A61019B68
:1084B0009A69019B5B699A420ED1012310E0019BEE
:1084C0001B695A1C019B1A61019B1A69019B5B691C
:1084D0009A4203D1012303E000BF00E000BF002364
:1084E000184604B0704700BF8803012082B0019095
:1084F000084BDB680133074AD360064BDB68082B67
:1085000004D9044B0022DA60012300E0002318465E
:1085100002B070478803012000B583B0019000913C
:10852000019B0C4A5A600C48FFF701FA0346002BE6
:108530000BD139F0F7FD03461A46074B1A7407486A
:108540001C238C22064900F0F0F90023184603B0E2
:108550005DF804FBB845060088030120780301207C
:10856000EC02012000B583B001900091142200219B
:1085700005483AF02CFE054B184600F009FA002396
:10858000184603B05DF804FB88030120780301203E
:1085900000B587B00390029101920093174A04AB93
:1085A0001946104600F008FA0590059B002B01D1F2
:1085B00004231FE01C22002105983AF008FE059BC9
:1085C00000221A71059B039A1A60059B089A9A600B
:1085D000059B029A1A61059B019ADA60059B009A35
:1085E0005A61064A04AB1946104600F0FEF9FFF73F
:1085F0002BFF0023184607B05DF804FB7803012029
:1086000000B585B00390029101920093029B009AFD
:10861000194601983AF0B2FD0023184605B05DF8FE
:1086200004FB000000B587B0039002910192009313
:10863000184A04AB1946104600F0BEF90590059B98
:10864000002B01D1042320E01C22002105983AF0E0
:10865000BEFD059B01221A71059B039A1A60059BBA
:10866000009A9A604FF48052029BB3FBF2F2059B92
:10867000DA60059B019A5A61064A04AB1946104616
:1086800000F0B3F9FFF7E0FE0023184607B05DF8ED
:1086900004FB00BF7803012082B001900091009B91
:1086A000184602B0704782B001900091002318462E
:1086B00002B0704782B00190044B1B7A002B14BFAC
:1086C00001230023DBB2184602B070478803012063
:1086D00000B585B001900091019B022B02D0019B57
:1086E000032B48D1274B1B7A022B05D0022B35DCFC
:1086F000002B42D0012B31E000238DF80F30019B7D
:10870000022B03D0019B032B09D011E01E4B1B68E9
:108710001846FFF7AFFE03468DF80F3008E01A4BFE
:108720001B681846FFF7E2FE03468DF80F3000BFC6
:108730009DF80F30002B10D0124B00221A72124BF2
:108740001A68019B022B01D1002300E00D2319467A
:108750001046FFF779FDFFF7F7FD00BF094B5B7C83
:1087600083F00103DBB2002B02D0FFF711FE05E01E
:1087700039F0BCFC02E000BF00E000BF05B05DF8CE
:1087800004FB00BF880301209C03012082B0034644
:1087900000918DF80730064B01225A74044B1B7A66
:1087A000002B0CBF01230023DBB2184602B0704738
:1087B0008803012000B583B0034600918DF807308F
:1087C0009DF80730012B03D09DF80730032B0DD106
:1087D000084B00225A749DF80730012B0CBF01236F
:1087E0000023DAB2034B1A74FFF7D2FD00BF03B0C7
:1087F0005DF804FB8803012086B001900091019B85
:1088000053E8011F8AB2D88902449889824228BF5E
:10881000121A1889824202BFBFF32F8F002307E08C
:10882000C2EA010243E801200028E9D14FF0010328
:108830008DF80F30059002910492029A009B1A6005
:108840009DF80F30DBB2184606B0704784B0019037
:10885000019951E8013FC3EA034341E80132002A8C
:10886000F7D10392029300BF04B0704786B0019025
:108870000091019B53E8021F1FFAA1F2D88882429F
:1088800002BFBFF32F8F00230DE0D88902449889DF
:10889000824228BF121AC1EA024243E8022000289D
:1088A000E8D14FF001038DF80F300590029104924A
:1088B000029A009B1A609DF80F30DBB2184606B092
:1088C000704784B00190019951E8023FC3EA234305
:1088D00041E80232002AF7D10392029300BF04B0AC
:1088E000704786B00190019B53E8021FDA88B1EB14
:1088F000314F4FF0000017BF89B242EA024241EA0D
:10890000024204E05968B1EB314F08BF012043E84F
:1089100002210029E8D18DF80F00059104929DF8FD
:108920000F30DBB2184606B0704784B00390029156
:1089300011461A460B46ADF806301346ADF8043022
:10894000029B002B01D10E231FE0BDF80630BDF8BD
:108950000420B3FBF2F101FB02F29B1A9BB2002B45
:1089600001D0092311E0039B029A1A60039B0022A5
:108970005A60039B00229A60039BBDF806209A81EF
:10898000039BBDF80420DA810023184604B0704729
:1089900000B585B001900198FFF7A3FF03468DF85D
:1089A0000F309DF80F30002B01D0002300E0112381
:1089B000184605B05DF804FB00B585B00190009144
:1089C000009B19460198FFF717FF0346002B07D0BD
:1089D000019B1B68009A128813440393039B00E0D9
:1089E0000023184605B05DF804FB00B583B0019084
:1089F0000091009B1A88009B5B889A4204D10198E1
:108A0000FFF724FF012300E00023184603B05DF8C0
:108A100004FB00B585B001900091009B19460198B8
:108A2000FFF724FF0346002B07D0019B1B68009A29
:108A3000528813440393039B00E00023184605B0BB
:108A40005DF804FB00B583B001900091009B1A888B
:108A5000009B5B889A4204D10198FFF732FF012303
:108A600000E00023184603B05DF804FB00B585B0B4
:108A700001900091009B5B099B00019A1A44009BA6
:108A800003F01F03012101FA03F319461046FEF714
:108A9000D4FE039000BF05B05DF804FB00B585B0BF
:108AA00001900091009B5B099B00019A1A44009B76
:108AB00003F01F03012101FA03F3DB4319461046BB
:108AC000FEF7EBFE039000BF05B05DF804FB82B03B
:108AD00001900091009B5B099B00019A13441A6866
:108AE000009B03F01F0322FA03F303F00103002BA2
:108AF00014BF01230023DBB2184602B07047000008
:108B0000024BD3F88034DBB2184670470070024045
:108B1000024BD3F88434DBB2184670470070024031
:108B200008B50BF0FBFF0023184608BD00B585B063
:108B300003468DF807300B468DF8063013468DF846
:108B400005309DF8073003F01F029DF806305B01E9
:108B500003F060031A439DF80530DB01DBB21343D9
:108B60000393039BFF2B04D905494FF4AC70FEF728
:108B70001FFE039BDBB2184605B05DF804FB00BF87
:108B8000E445060082B00190019B1B7A184602B0B2
:108B90007047000000B585B001900B468DF803309A
:108BA000019B002B04D10F494FF48870FEF700FEA3
:108BB0000198FFF7E7FF03461A469DF803309342FA
:108BC00001D3002309E0019B093303939DF803209F
:108BD00013465B001344039A1344184605B05DF82E
:108BE00004FB00BF4046060082B00190019B1B7849
:108BF000184602B0704782B00190019B5B7818461E
:108C000002B0704700B585B001900B468DF8033077
:108C1000019B002B04D10D4940F24310FEF7C8FD23
:108C2000019B5B789DF803209A4201D3002309E061
:108C3000019B9B781A46019B134403939DF80330D4
:108C4000039A1344184605B05DF804FB404606003D
:108C500082B00190019B1B78184602B0704782B029
:108C60000190019B1B68184602B0704700B583B0A5
:108C70000190019B002B04D1064940F24320FEF7EE
:108C800097FD0198FFF7EBFF03461B68184603B0FA
:108C90005DF804FBA046060000B583B00190019B7F
:108CA000002B04D1064940F25F20FEF781FD0198B8
:108CB000FFF7D5FF03465B68184603B05DF804FB79
:108CC000A046060000B583B00190019B002B04D1A3
:108CD000064940F27B20FEF76BFD0198FFF7BFFFCE
:108CE00003465B68184603B05DF804FBA046060027
:108CF000014B1846704700BF5C4906004FF08043A7
:108D0000D3F838341846704708B5FFF7F7FF034625
:108D100003F00103002B14BF01230023DBB218462C
:108D200008BD08B5FFF7EAFF034603F00203002B76
:108D300014BF01230023DBB2184608BD00B583B081
:108D400001900091019B002B04D1114940F20F10BA
:108D5000FEF72EFD019B5B68002B04D10C494FF4FC
:108D60008870FEF725FD019B5B681B68002B04D112
:108D7000074940F21110FEF71BFD019B5B681B6861
:108D80000099019898470346184603B05DF804FB24
:108D9000F446060000B583B001900091019B002BC2
:108DA00004D1114940F21910FEF702FD019B1B6826
:108DB000002B04D10C494FF48D70FEF7F9FC019B98
:108DC0001B689B68002B04D1074940F21B10FEF77B
:108DD000EFFC019B1B689B68009A528810469847DD
:108DE00000BF03B05DF804FBF446060000B583B095
:108DF00001900B468DF80330074B1B68002B06D003
:108E0000054B1B689DF8032011460198984700BF49
:108E100003B05DF804FB00BF6405012000B583B01A
:108E200003468DF80730074B5B68002B05D0054BD8
:108E30005B689DF807201046984700BF03B05DF8B7
:108E400004FB00BF6405012010B58EB003900193B0
:108E50000B468DF80B3013468DF80A30002309932A
:108E600000230D9302E00D9B01330D93039B5B6880
:108E70005C6809A8012300220399A0470346002B40
:108E8000F1D100238DF8233000230C9300238DF8BB
:108E90002F30002306934FE0039B5B685C680DF165
:108EA000230206A801230399A047039B5B685C6823
:108EB0000DF1170206A801230399A0479DF817306A
:108EC0009DF80B209A4227D19DF82F209DF80A305B
:108ED0009A421CD19DF823301A46109B1A60019BC0
:108EE0005A1C01929DF823201A70019B5A1C019272
:108EF0009DF80B201A70039B5B685C689DF823301B
:108F0000023B06A8019A0399A047002319E09DF8A7
:108F10002F3001338DF82F30039B5B685C689DF820
:108F20002330023B06A800220399A0479DF8233076
:108F30001A460C9B13440C930C9A0D9B9A42ABD38C
:108F4000052318460EB010BD00B585B003468DF858
:108F500007309DF90730002B14DA9DF8073003F035
:108F60000F038DF80E309DF80E30082B04D91149EF
:108F70004FF4CC70FEF71CFC9DF80E30DB000E4A5F
:108F8000134413E09DF8073003F00F038DF80F3002
:108F90009DF80F30082B04D906494FF4CF70FEF727
:108FA00007FC9DF80F30DB00044A1344184605B057
:108FB0005DF804FBF4460600C40401200C05012002
:108FC00000B583B003468DF807309DF8073018468A
:108FD000FFF7BAFF03461B68184603B05DF804FBB1
:108FE00000B585B0034600918DF807309DF8073035
:108FF0001846FFF7A9FF0390039B009A1A60009B95
:10900000002B10D19DF80730002B03D09DF80730BE
:10901000802B04D108494FF4E170FEF7C9FB039B94
:1090200000225A6004E0009B5B681A68039B5A6048
:1090300000BF05B05DF804FBF446060000B583B040
:109040000190064B5B68054A1268019910469847E3
:109050000346184603B05DF804FB00BF0C05012071
:1090600000B58BB00190019B0993099B1B78052BE0
:109070001AD1FFF74DFD03468DF81F30FFF740FD75
:1090800003468DF81E30002200210020FFF74EFD20
:1090900003461A469DF81E30934205D19DF81F30B5
:1090A000052B01D13A4B0993099B1B78002B2ED13C
:1090B00000F056FF089007E009990898FFF76AFE4C
:1090C0000898FFF7FFFD0890089B002BF4D10023C0
:1090D0008DF80F300DF10F031846FEF7B3FA2D4B44
:1090E0001B68002B03D1099B5A882B4B1A80012146
:1090F0002848FEF7EAFB9DF80F301846FEF7B8FA4D
:1091000001210998FFF772FE224B1B683CE0234ABD
:1091100004AB19461046FFF74FFC0690069B002B48
:1091200032D0069A099B1B68136000238DF80E301D
:109130000DF10E031846FEF785FA174B1A88154BEA
:109140001B689BB2D31A9BB201339AB2069BDA809A
:1091500000211048FEF742FB03469AB2069B9A8014
:109160009DF80E301846FEF783FA0C4A04AB1946F8
:109170001046FFF73AFC03468DF817309DF817307C
:1091800019460998FFF732FE0BB05DF804FB00BFEB
:1091900054470600BC040120C0040120AC04012097
:1091A00000B583B003468DF807309DF80730022BD9
:1091B0000ED0022B10DC002B02D0012B04D00BE0D0
:1091C0000A48FFF74DFF0DE00948FFF749FF09E0A6
:1091D0000848FFF745FF05E0074940F26220FEF727
:1091E000E7FA00BF00BF03B05DF804FB4847060084
:1091F0004C47060050470600F446060000B583B011
:1092000001900198FFF72CFF00BF03B05DF804FB4D
:1092100000B583B003468DF807309DF80730002B6A
:1092200004D0064940F27B20FEF7C2FA0448FFF75B
:1092300017FF00BF03B05DF804FB00BFF446060053
:109240005847060082B003468DF807309DF8073076
:10925000082B27D801A252F823F000BF8192020008
:1092600085920200899202008D9202009192020082
:1092700095920200999202009D920200A192020032
:10928000002310E000230EE001230CE000230AE09D
:10929000002308E0012306E0012304E0012302E0AB
:1092A000012300E00023184602B0704782B0034655
:1092B0008DF807309DF80730082B27D801A252F807
:1092C00023F000BFE9920200ED920200F192020049
:1092D000F5920200F9920200FD9202000193020051
:1092E0000593020009930200002310E000230EE022
:1092F00001230CE000230AE0002308E0002306E03D
:10930000002304E0002302E0012300E000231846CC
:1093100002B07047014B1B7818467047600501206A
:1093200010B582B003468DF807309DF80730184617
:10933000FFF788FF03461C461C4B1B781846FFF7B7
:1093400081FF03469C420DD09DF807301846FFF779
:1093500079FF0346002B03D0154803F095FF01E089
:1093600003F0F0FF9DF807301846FFF79FFF034614
:109370001C460E4B1B781846FFF798FF03469C428D
:109380000CD09DF807301846FFF790FF0346002BDE
:1093900002D00BF06FFD01E00BF062FD034A9DF877
:1093A0000730137000BF02B010BD00BF6005012080
:1093B0001400012000B587B001900B468DF80330F2
:1093C00013468DF802300198FFF7DCFB03461A467E
:1093D0009DF80330934204D91B4940F2F920FEF76F
:1093E000E7F99DF80230002B01D0072328E09DF813
:1093F000033019460198FFF7CDFB04900498FFF75E
:10940000FAFB03468DF80F3000238DF8173010E07B
:109410009DF8173019460498FFF7F4FB0290029B61
:109420001B78184600F064FD9DF8173001338DF865
:1094300017309DF817209DF80F309A42E8D300238B
:10944000184607B05DF804FBF446060000B587B087
:1094500001900B468DF803300198FFF793FB03460C
:109460001A469DF80330934204D919494FF44670C7
:10947000FEF79EF99DF8033019460198FFF78AFB25
:1094800004900498FFF7B7FB03468DF80F300023D4
:109490008DF8173010E09DF8173019460498FFF743
:1094A000B1FB0290029B1B78184600F03FFD9DF82F
:1094B000173001338DF817309DF817209DF80F30C5
:1094C0009A42E8D300BF00BF07B05DF804FB00BFBD
:1094D000F446060000B589B0019003F0BFFD0346D5
:1094E000002B04D1484940F23130FEF761F947487A
:1094F00008234FF484724649FFF717FA0690069B3B
:10950000002B01D003237BE042480BF083FA069046
:10951000069B002B01D0069B72E03F4B00221A7085
:109520003E4B00221A603E4B00221A604822002166
:109530003C4839F04CFE482200213B4839F047FEB8
:10954000019B002B09D1394B00221A60374B0022B6
:109550005A60364B00221A7204E0344B019A07CA53
:1095600083E80700002008F027FC0690069B002BEC
:1095700008D0069B852B05D0234A40F25F31069820
:10958000FDF778FFFFF7B4FB059000238DF81F303F
:1095900018E000238DF81E3007E00398FFF758FB12
:1095A000034605991846FFF71BFD9DF81E305A1C0F
:1095B0008DF81E2019460498FFF724FB0390039BA7
:1095C000002BEAD19DF81F305A1C8DF81F20194638
:1095D0000598FFF7DFFA0490049B002BD9D10B23E9
:1095E0008DF8083002AB19460598FFF7A7FB0690E7
:1095F000069B002B03D0FFF793FA069B00E00023A5
:10960000184609B05DF804FBF4460600AC040120DE
:10961000A4030120FD9102006005012054050120F2
:1096200058050120C40401200C0501206405012017
:1096300000B583B00BF06AFB034683F00103DBB295
:10964000002B04D10BF06EFB0346002B01D0082346
:109650000FE00A4808F016FC0190019B0093009B64
:10966000002B05D0064A40F2C2310098FDF702FFF8
:109670000023184603B05DF804FB00BF5C470600FA
:10968000F446060008B50BF061FA00BF08BD000003
:1096900008B50BF053FB034683F00103DBB2002B4C
:1096A00004D1044940F2D130FEF782F80BF0B6FA4B
:1096B00000BF08BDF446060008B50BF033FB0346B7
:1096C000002B0DD10D494FF47670FEF771F807E0CD
:1096D000FFF71AFB034683F00103DBB2002B0BD12B
:1096E000FFF71FFB034683F00103DBB2002BEFD132
:1096F0000348FFF7B5FC00E000BF08BDF4460600D4
:109700006047060000B583B082238DF8043001ABBA
:109710001846FFF7A5FC00BF03B05DF804FB00008E
:1097200000B587B00190DD4B1B68002B04D1DC49EC
:1097300040F22540FEF73CF8FDF7D1FF0346052B2C
:1097400004D8D74940F22C40FEF732F8019B1B7831
:10975000852B00F26A8201A252F823F0759A02006A
:10976000D39A0200619B0200F59A0200259B020039
:10977000899B0200999B02002B9C0200019C020025
:109780000F9C02001D9C02002B9C02002B9C0200DF
:109790002B9C02002B9C02007B9B02002B9C020056
:1097A0002B9C02002B9C02002B9C02002B9C020095
:1097B0002B9C02002B9C02002B9C02002B9C020085
:1097C0002B9C02002B9C02002B9C02002B9C020075
:1097D0002B9C02002B9C02002B9C02002B9C020065
:1097E0002B9C02002B9C02002B9C02002B9C020055
:1097F0002B9C02002B9C02002B9C02002B9C020045
:109800002B9C02002B9C02002B9C02002B9C020034
:109810002B9C02002B9C02002B9C02002B9C020024
:109820002B9C02002B9C02002B9C02002B9C020014
:109830002B9C02002B9C02002B9C02002B9C020004
:109840002B9C02002B9C02002B9C02002B9C0200F4
:109850002B9C02002B9C02002B9C02002B9C0200E4
:109860002B9C02002B9C02002B9C02002B9C0200D4
:109870002B9C02002B9C02002B9C02002B9C0200C4
:109880002B9C02002B9C02002B9C02002B9C0200B4
:109890002B9C02002B9C02002B9C02002B9C0200A4
:1098A0002B9C02002B9C02002B9C02002B9C020094
:1098B0002B9C02002B9C02002B9C02002B9C020084
:1098C0002B9C02002B9C02002B9C02002B9C020074
:1098D0002B9C02002B9C02002B9C02002B9C020064
:1098E0002B9C02002B9C02002B9C02002B9C020054
:1098F0002B9C02002B9C02002B9C02002B9C020044
:109900002B9C02002B9C02002B9C02002B9C020033
:109910002B9C02002B9C02002B9C02002B9C020023
:109920002B9C02002B9C02002B9C02002B9C020013
:109930002B9C02002B9C02002B9C02002B9C020003
:109940002B9C02002B9C02002B9C02002B9C0200F3
:109950002B9C02002B9C02002B9C0200F39902001E
:1099600075990200B9990200279A0200479A0200ED
:10997000919B02004B48FFF761FB4A4800F07AFBDD
:109980000D20FFF74BFA00F099FC03F04AF8464B24
:109990001B68002B03D1454B1B7A002B01D0012300
:1099A00000E0002303F00103DBB218460BF056F988
:1099B0000120FFF7B5FC45E100F080FC0BF082F9D7
:1099C0000020FFF7ADFC3A4800F054FB3848FFF7A1
:1099D00035FB0E20FFF722FAFFF79CFC03461846E2
:1099E000FFF730FC0346002B00F0258103F0AAFCB2
:1099F00021E1FFF78FFC0346072B0ED0072B10DC6D
:109A0000052B02D0062B04D00BE00220FFF788FCC8
:109A100008E00820FFF784FC04E00220FFF780FC48
:109A200000E000BF0EE1FFF775FC0346032B40F09A
:109A300004810BF097F90346002B00F0FE80042010
:109A4000FFF76EFCF9E0FFF765FC0346032B07D137
:109A50000BF088F90346002B02D00420FFF760FCCE
:109A60000BF0B8F90346002B00F0E9800620FFF761
:109A700057FCE4E0FFF74EFC0346032B04D0FFF74E
:109A800049FC0346082B02D10A48FFF749FE002093
:109A9000FFF7C4F900F05EFA059016E054050120C6
:109AA000F4460600644706005805012064050120BD
:109AB000684706006C47060001990598FFF73EF9D4
:109AC00003900598FFF7E8F80590059B002BF3D16C
:109AD000B8E000F0F3FB02F09BFF0220FFF720FC50
:109AE0000120FFF79BF90198FFF7A8FA019800F011
:109AF000C1FAA7E0FFF70EFC0346082B05D10220B0
:109B0000FFF70EFC0BF0C0F902E00520FFF708FCA0
:109B10000320FFF783F90198FFF790FA019800F00E
:109B2000A9FA8FE00320FFF779F94848FFF786FA92
:109B3000464800F09FFAFFF7EDFB0346062B02D0E4
:109B4000082B04D007E00720FFF7EAFB07E002201C
:109B5000FFF7E6FB03E00220FFF7E2FB72E071E0B3
:109B60000320FFF7DDFB0220FFF758F9019800F012
:109B700081FA0198FFF762FA64E00F20FFF74EF9CF
:109B8000019800F077FA5DE00198FFF757FA59E085
:109B90000198FFF753FA55E0019B9B781846FFF7B1
:109BA000D3F90490049B1B68002B04D1284940F290
:109BB0000250FDF7FDFD049B5B68002B04D1244996
:109BC00040F20350FDF7F4FD049B5B68049A1268B1
:109BD0000199104698470346002B32D0019B9B7891
:109BE00003F00F03002B2CD0019B9B7803F008039C
:109BF000002B26D1019B9B7818460BF09AFB20E0A6
:109C00000820FFF70BF9019800F034FA1AE0092058
:109C1000FFF704F9019800F02DFA13E00A20FFF78E
:109C2000FDF8019800F026FA0CE0094940F22650B0
:109C3000FDF7BEFD06E000BF04E000BF02E000BF8C
:109C400000E000BF00BF07B05DF804FB70470600EE
:109C5000F446060000B583B000230193394B1B681E
:109C6000002B07D1384B39491846FEF7D2FE034680
:109C7000344A1360334B1B68002B32D0314B1B68C6
:109C80009B88002B1ED02F4B1B68DB88B3F5006F21
:109C900003D32C4B1B680022DA802A4B1B68DA881E
:109CA000511C89B2D9801346ADF80630254B1B688C
:109CB0009A88013A92B29A8001AB1846FFF730FDBC
:109CC00001233AE01F4B1B681846FFF729FD1E4B86
:109CD0001E491846FEF7B6FE1A4B00221A600123F1
:109CE0002BE01B4B1B68002B26D000238DF8033084
:109CF0000DF103031846FDF7A5FC164B1B88B3F5C1
:109D0000006F02D3134B00221A80124B1B885A1C7F
:109D100091B2104A1180ADF8063001210C48FDF7D0
:109D2000ECFD9DF803301846FDF7A2FC01AB184688
:109D3000FFF7F6FC012300E00023184603B05DF8AE
:109D400004FB00BF70050120AC0401207405012054
:109D5000BC040120C004012000B589B00190019B22
:109D6000002B04D15A4940F26A50FDF721FD019BB6
:109D70005B68002B04D1564940F26B50FDF718FD8B
:109D8000019B5B681B68002B04D1514940F26C5069
:109D9000FDF70EFD0198FEF762FF03461B68002BDE
:109DA00004D04B4940F26D50FDF702FD0AF0BAFFB6
:109DB000034683F00103DBB2002B04D00AF0A6FFB8
:109DC0000346002B04D1424940F27150FDF7F0FCEC
:109DD00000238DF81F301CE000238DF81E300BE0AF
:109DE0000398FEF735FF03461846FFF7E9F80346E8
:109DF000002B01D0112367E09DF81E305A1C8DF80E
:109E00001E2019460598FEF7FDFE0390039B002BCC
:109E1000E6D19DF81F305A1C8DF81F201946019875
:109E2000FEF7B8FE0590059B002BD5D100238DF8D9
:109E30001F3018E000238DF81D3007E00498FEF76E
:109E400007FF034601991846FFF7CAF89DF81D3031
:109E50005A1C8DF81D2019460598FEF7D3FE049074
:109E6000049B002BEAD19DF81F305A1C8DF81F204F
:109E700019460198FEF78EFE0590059B002BD9D15F
:109E8000144B069310E0069B1B68019A9A4204D17A
:109E90000F4940F29750FDF78BFC069B1B68184654
:109EA000FEF7DDFE03460693069B1B68002BEAD1F6
:109EB000069B019A1A600B238DF8083002AB1946F5
:109EC0000198FEF73BFF0346184609B05DF804FB16
:109ED000F446060054050120044B1B78002B14BFE8
:109EE00001230023DBB21846704700BF6105012043
:109EF00000B583B003468DF807309DF8073003F0B6
:109F00000803002B09D19DF8073018460BF059FAC9
:109F10009DF8073018460BF01EFA9DF807301846DA
:109F20000BF030F800BF03B05DF804FB00B583B060
:109F300003468DF807309DF8073018460BF07AF885
:109F400000BF03B05DF804FB014B1B681846704767
:109F500054050120014B1B68184670475805012025
:109F6000014B1B68184670475C05012000B587B09F
:109F7000034600918DF80730FFF7E6FF059031E0CA
:109F80000598FEF7FFFD03468DF8123000238DF88B
:109F900013301DE09DF8133019460598FEF7FAFDC1
:109FA00003900398FEF720FE03461A469DF80730FB
:109FB000934208D1009B002B03D0009B9DF81320F7
:109FC0001A70059B12E09DF8133001338DF81330A1
:109FD0009DF813209DF812309A42DBD30598FEF7C6
:109FE00045FE0590059B002BCAD10023184607B0FB
:109FF0005DF804FB00B585B003900B4601928DF827
:10A000000B3001990398FEF799FE0346184605B0F8
:10A010005DF804FB00B585B0034600918DF807306C
:10A020009DF90730002B05DA9DF8073003F00F0388
:10A03000082B09DD9DF90730002B16DB9DF8073052
:10A0400003F00F03082B10DC9DF807301846FEF7CD
:10A050007BFF03461B680393039B002B05D00099ED
:10A060000398FEF76BFE034600E01023184605B088
:10A070005DF804FB00B585B00190FFF765FF039024
:10A0800007E001990398FEF759FE0398FEF7EEFDED
:10A090000390039B002BF4D100BF00BF05B05DF817
:10A0A00004FB00B585B0019006230293FFF74CFF37
:10A0B00003900BE001990398FEF740FE0290029B8B
:10A0C000062B07D10398FEF7D1FD0390039B002BCD
:10A0D000F0D100E000BF029B184605B05DF804FB1C
:10A0E00000B583B0034600918DF807309DF8073026
:10A0F00018460AF034FF034683F00103DBB2002B5D
:10A1000001D008230CE0084B1B78022B01D0082358
:10A1100006E09DF80730009918460AF0ABFF0346A9
:10A12000184603B05DF804FB6005012000B583B05C
:10A13000034600918DF807309DF8073018460AF065
:10A140000EFF034683F00103DBB2002B01D008238E
:10A150000CE0084B1B78022B01D0082306E09DF889
:10A160000730009918460BF059F80346184603B01B
:10A170005DF804FB6005012000B585B001900B4639
:10A180008DF8033013468DF8023006230393019BAC
:10A190005B689B68002B09D0019B5B689B689DF8FE
:10A1A00002209DF80310019898470390039B062B0B
:10A1B00008D19DF802209DF8033019460198FFF759
:10A1C000F9F80390039B184605B05DF804FB00B551
:10A1D00083B001900B468DF80330019B5B68DB6810
:10A1E000002B07D0019B5B68DB689DF803201146BC
:10A1F000019898479DF8033019460198FFF726F912
:10A2000000BF03B05DF804FB00B585B001900B46BC
:10A210008DF8033000238DF80F30019B5B681B69BC
:10A22000002B0AD0019B5B681B699DF80320114637
:10A230000198984703468DF80F309DF80F30184667
:10A2400005B05DF804FB000000B585B0FFF77CFEAB
:10A25000039028E00398FEF795FC03468DF80A303A
:10A2600000238DF80B3014E09DF80B3000221946C6
:10A270000398FFF781FF0190019B002B04D00E494A
:10A2800040F26A70FDF794FA9DF80B3001338DF8B7
:10A290000B309DF80B209DF80A309A42E4D30398C6
:10A2A000FEF7E4FC0390039B002BD3D100BF00BF5B
:10A2B00005B05DF804FB00BFF446060000B583B0AE
:10A2C000FFF742FE01901EE00198FEF75BFC03469B
:10A2D0008DF8023000238DF803300AE09DF803303A
:10A2E00019460198FFF773FF9DF8033001338DF88D
:10A2F00003309DF803209DF802309A42EED3019876
:10A30000FEF7B4FC0190019B002BDDD100BF00BF24
:10A3100003B05DF804FB82B003468DF807309DF86A
:10A32000073003F01F03DBB2184602B0704782B05B
:10A3300003468DF807309DF807305B0903F00303EF
:10A34000DBB2184602B0704782B003468DF8073082
:10A350009DF80730DB09DBB2184602B0704782B0C7
:10A360000190019B1B7A184602B0704700B585B07A
:10A3700001900B468DF80330019B002B04D10F494F
:10A380004FF48870FDF714FA0198FFF7E8FF0346D1
:10A390001A469DF80330934201D3002309E0019B44
:10A3A000093303939DF8032013465B001344039A7B
:10A3B0001344184605B05DF804FB00BFB44706001F
:10A3C00082B00190019B1B78184602B0704782B0A2
:10A3D0000190019B5B78184602B0704700B585B0CC
:10A3E00001900B468DF80330019B002B04D10D49E1
:10A3F00040F24310FDF7DCF9019B5B789DF80320E8
:10A400009A4201D3002309E0019B9B781A46019BE5
:10A41000134403939DF80330039A1344184605B080
:10A420005DF804FBB447060082B00190019B1B78E5
:10A43000184602B0704782B00190019B184602B0E6
:10A440007047000000B583B00190019B002B03D141
:10A4500004495220FDF7ACF9019B184603B05DF8A2
:10A4600004FB00BFF847060000B583B00190019BD4
:10A47000002B03D109495F20FDF79AF9019B1B6866
:10A48000002B03D105496020FDF792F9019B1B6861
:10A490000C33184603B05DF804FB00BFF847060014
:10A4A00000B585B001900B468DF803300198FFF799
:10A4B000C9FF0390039BDB69002B06D0039BDB697C
:10A4C0009DF8032011460198984700BF05B05DF83C
:10A4D00004FB00B585B0019000210198FFF746FF0D
:10A4E000039000210398FFF779FF02900298FFF78D
:10A4F0009BFF0346184605B05DF804FB00B585B028
:10A50000019001210198FFF731FF0390002103988A
:10A51000FFF764FF02900298FFF786FF0346184694
:10A5200005B05DF804FB00B585B0019001210198EC
:10A53000FFF71CFF039001210398FFF74FFF0290E4
:10A540000298FFF771FF0346184605B05DF804FB5B
:10A5500000B589B003900291029B5B781846FFF723
:10A56000DAFE0346012B28D1029B9B78062B24D1CF
:10A570000023059304AB184602F0CEFA0790029B25
:10A580001979029BDA7805AB0093079B0398FEF7D5
:10A590005BFC0690069B052B0FD0059B3F2B03D938
:10A5A0000849C920FDF704F9029B0133059A079970
:10A5B000184602F03FFA034600E00623184609B0A9
:10A5C0005DF804FBF847060082B00190009100BFDF
:10A5D0000623184602B0704700B585B0019000917F
:10A5E0000198FFF72FFF03900398FFF73DFF0290BC
:10A5F000009B9B78212B11D1009BB3F807309BB2B5
:10A60000072B01D006230BE0009B581C029B0C3348
:10A610000722194602F00EFA034601E000BF0623A6
:10A62000184605B05DF804FB00B585B003460091FF
:10A630008DF807309DF80730002B01D0032316E07A
:10A64000009B03930398FFF70FFF0290029B1B7878
:10A65000202B0BD1029B03F10C00029B023307223B
:10A66000194638F08BFD00BF002300E00623184692
:10A6700005B05DF804FB000000B58DB001900091BD
:10A680000198FFF7DFFE0A900A98FFF7EDFE0990A8
:10A69000009B9A78099B1A70009BB3F807309BB215
:10A6A000DAB2099B5A70099B02330693099B5B78C7
:10A6B00007930023089300238DF817300DF117033B
:10A6C0001846FCF7BFFF06AB19460020FFF708FD50
:10A6D0000B900B9B002B09D1094B03930A9B04930E
:10A6E00003AB1946002002F0F9F90B909DF81730E2
:10A6F0001846FCF7BDFF0B9B18460DB05DF804FB38
:10A7000029A6020000B585B001900198FFF79AFED6
:10A7100003900398FFF7A8FE0290029B00229A8202
:10A72000029B00229A61029B00221A62029B002275
:10A73000DA66029B00221A67029B00225A67029B7C
:10A7400000229A67029B03F12802029B9A6600BFCF
:10A7500005B05DF804FB00B587B001900091019849
:10A76000FFF770FE05900598FFF77EFE0490009BB2
:10A770009B78202B04D0222B10D000BF06237BE037
:10A78000009BB3F807309BB2072B01D0062373E080
:10A7900000990198FFF770FF03466DE0009BB3F846
:10A7A00007309BB2002B01D0062365E0049B9B8AF7
:10A7B00003F00103002B14BF012300238DF80F3099
:10A7C000009BB3F803309AB2049B9A82049B9B8A45
:10A7D00003F00103002B14BF012300238DF80E307A
:10A7E0009DF80F209DF80E309A4201D1002343E0DE
:10A7F0009DF80E30002B01D0022300E003238DF8DA
:10A800000D309DF80D3019460198FFF749FE9DF86F
:10A810000E3083F00103DBB2002B2CD00198FFF740
:10A820006DFE03468DF80C309DF80C30184609F08B
:10A83000E1F90198FFF777FE03468DF80C309DF89B
:10A840000C30184609F0D6F9049B00229A61049B4B
:10A8500000221A62049B0022DA66049B00221A6717
:10A86000049B00225A67049B00229A67049B03F111
:10A870002802049B9A660023184607B05DF804FB83
:10A8800000B583B001900091019B002B04D12449B5
:10A890004FF4E470FCF78CFF009B002B04D120499F
:10A8A00040F2C910FCF784FF009B5B781846FFF765
:10A8B0004BFD0346012B16D1009B5B781846FFF732
:10A8C00036FD0346002B02D0012B06D022E0009972
:10A8D0000198FFF73DFE03461DE000990198FFF740
:10A8E0007BFE034617E0009B5B781846FFF71FFDD1
:10A8F0000346002B02D0012B06D00BE000990198F3
:10A90000FFF762FE034606E000990198FFF723FF78
:10A91000034600E00623184603B05DF804FB00BFC1
:10A92000F847060086B00390029101920093029BC3
:10A930000593039B009A5A60059BDB69009A9A4233
:10A940001DD8059B9A69039B1A60059B9A69009B19
:10A950001A44059B9A61059B1A6F009B1A44059B3C
:10A960001A67059BDA69009BD21A059BDA61059B81
:10A97000DB69002B14BF01230023DBB208E0059B39
:10A9800003F12802039B1A60059B009A9A67002333
:10A99000184606B07047000000B58BB001900198D2
:10A9A000FFF750FD08900898FFF75EFD07900198AB
:10A9B000FFF7B9FD03468DF81B306C4B0393079BE3
:10A9C0000493079BDB69002B26D1079B1A6F079B1B
:10A9D0005A67079B00221A67079B0022DA66079BCB
:10A9E0001B6A002B13D0079B079A1833203292E87A
:10A9F000030083E80300079B00221A6203AA9DF864
:10AA00001B3011461846FFF791FB0346A9E0079B50
:10AA100000229A610023A4E0079B9B6F0593059B8E
:10AA20000993079BDB69059A9A4202D9079BDB6968
:10AA30000993079B9869079B2833099A194638F0B0
:10AA40009DFB079B1A6F099B1A44079B5A67079B3C
:10AA500000221A67059A099BD21A079BDA66079BA0
:10AA600003F12802099B1A44079B9A66079B1B6AFD
:10AA7000002B65D0079B079A1833203292E8030019
:10AA800083E80300079B00221A6254E0079BDA6EFA
:10AA9000079BDB699A4232D3079B9869079B996EA3
:10AAA000079BDB691A4638F069FB079BDA6E079B48
:10AAB000DB69D21A079BDA66079B9A6E079BDB69F4
:10AAC0001A44079B9A66079BDA69079B5A6700211D
:10AAD0000198FFF7E5FC079B1B6A002B0BD0079B37
:10AAE000079A1833203292E8030083E80300079B9B
:10AAF00000221A621FE0079B00229A6123E0079B55
:10AB00009869079B996E079BDB6E1A4638F036FBF7
:10AB1000079BDA6E079B1A67079BDA69079BDB6E58
:10AB2000D21A079BDA61079B9A69079BDB6E1A446E
:10AB3000079B9A6107E0079BDB6E002BA6D102E022
:10AB4000079B00229A61079B9B69002B08D003AAF0
:10AB50009DF81B3011461846FFF7E8FA034600E05F
:10AB6000002318460BB05DF804FB00BF25A90200C6
:10AB700000B585B0019000910198FFF7AAFC03464B
:10AB80001A46009B9B789A4201D1002334E0009B37
:10AB90009B785BB2002B10DA009BDB78002B02D095
:10ABA000032B06D007E001210198FFF779FC002371
:10ABB00022E0002320E003231EE0009B9B785BB291
:10ABC000002B18DB009BDB78032B10D0032B10DC51
:10ABD000002B02D0012B0AD00BE00198FFF7DCFE1E
:10ABE000039000210198FFF75BFC039B04E0002326
:10ABF00002E0032300E00623184605B05DF804FBDD
:10AC000000B585B001900091019B002B04D12B4928
:10AC100040F2DD20FCF7CCFD009B002B04D127493E
:10AC200040F2DE20FCF7C4FD00230393009B1B7859
:10AC30000E2B39D801A252F823F000BFAFAC0200AE
:10AC400079AC0200AFAC0200AFAC0200A9AC0200CC
:10AC500081AC02008DAC0200A9AC0200A9AC0200DC
:10AC600099AC0200A9AC0200AFAC0200AFAC02008C
:10AC7000AFAC0200AFAC02000198FFF743FD17E054
:10AC800000990198FFF7FCFD039011E000990198ED
:10AC9000FFF76EFF03900BE003210198FFF700FC24
:10ACA0000198FFF72FFD03E00623039300E000BFA8
:10ACB000039B184605B05DF804FB00BFF84706008B
:10ACC00010B58AB003900291019200930298FFF7A9
:10ACD00046FB03461A46C34B1A700298FFF7B2FBB5
:10ACE0000990039B002B04D1BF494FF44470FCF73B
:10ACF0005FFD019B059300230693009B0793039B35
:10AD00000893089B1B68002B00F00C81B3F5647F4F
:10AD100080F0D98640F213329342C0F0D486A3F279
:10AD200013337C2B00F2CF8601A252F823F000BF30
:10AD300043AF020079AF0200B1AF0200EFAF0200F3
:10AD400025B002005BB0020093B00200C9B002005F
:10AD5000C7BA0200C7BA0200C7BA0200C7BA0200E7
:10AD6000C7BA0200C7BA020009B102003FB102002F
:10AD7000C7BA0200C7BA0200C7BA0200C7BA0200C7
:10AD800091B10200C7B1020007B20200C7BA0200C7
:10AD9000C7BA0200C7BA020051B2020087B202006D
:10ADA000BFB20200C7BA0200C7BA0200C7BA0200A7
:10ADB000C7BA020009B3020047B302007BB3020026
:10ADC000C7BA0200C7BA0200C7BA0200C7BA020077
:10ADD000C7BA0200C7BA0200BBB30200C7BA02007A
:10ADE000C7BA0200C7BA0200C7BA020005B402001F
:10ADF00039B402006DB40200A1B40200D5B402005F
:10AE0000C7BA0200C7BA020009B502003DB5020088
:10AE100071B50200A5B50200E3B50200C7BA020091
:10AE2000C7BA020017B602004BB602007FB6020096
:10AE3000B3B60200C7BA0200C7BA0200E7B6020002
:10AE40001BB702004FB7020085B70200BBB7020074
:10AE5000C7BA0200C7BA0200C7BA0200C7BA0200E6
:10AE6000C7BA0200C7BA0200C7BA0200C7BA0200D6
:10AE7000C7BA0200C7BA0200C7BA0200C7BA0200C6
:10AE8000C7BA0200C7BA0200C7BA0200C7BA0200B6
:10AE9000C7BA0200C7BA0200C7BA020029B8020046
:10AEA0005DB80200C7BA0200C7BA0200C7BA020002
:10AEB000B1B80200C7BA0200C7BA0200C7BA02009E
:10AEC000C7BA0200F9B80200C7BA0200C7BA020046
:10AED000C7BA0200C7BA020043B90200C7BA0200EB
:10AEE000C7BA0200C7BA0200C7BA0200C7BA020056
:10AEF000C7BA020083B90200B7B90200C7BA02009C
:10AF0000C7BA0200C7BA0200C7BA020003BA0200F9
:10AF1000C7BA0200C7BA0200C7BA0200C7BA020025
:10AF200063BA0200089B08221A71069A079B9A428C
:10AF300006D3089B40F213321A60012300F0C7BD0C
:10AF400000BF059B002B05D0089A0599069B0B4472
:10AF500012791A70069B01330693089B0B221A7113
:10AF6000069A079B9A4206D3089B4FF445721A60D3
:10AF7000012300F0ACBD00BF059B002B05D0089A53
:10AF80000599069B0B4412791A70069B01330693B0
:10AF9000089B099A127D1A71069A079B9A4206D35A
:10AFA000089B40F215321A60012300F090BD00BFEB
:10AFB000059B002B05D0089A0599069B0B44127936
:10AFC0001A70069B01330693089B02221A71069A97
:10AFD000079B9A420AD3089B40F216321A6001235B
:10AFE00000F075BD78050120F847060000BF059BFD
:10AFF000002B05D0089A0599069B0B4412791A700C
:10B00000069B01330693089B02221A71069A079B3E
:10B010009A4206D3089B40F217321A60012300F0CF
:10B0200056BD00BF059B002B05D0089A0599069BCD
:10B030000B4412791A70069B01330693089B022277
:10B040001A71069A079B9A4206D3089B4FF44672E0
:10B050001A60012300F03BBD00BF059B002B05D00B
:10B06000089A0599069B0B4412791A70069B0133C6
:10B070000693089B099A527E1A71069A079B9A4278
:10B0800006D3089B40F219321A60012300F01FBD5D
:10B0900000BF059B002B05D0089A0599069B0B4421
:10B0A00012791A70069B01330693089B00221A71CD
:10B0B000069A079B9A4206D3089B40F21A321A60FE
:10B0C000012300F004BD00BF059B002B05D0089AAA
:10B0D0000599069B0B4412791A70069B013306935F
:10B0E000964B00221A7000F0E1BC089B09221A71ED
:10B0F000069A079B9A4206D3089B40F221321A60B7
:10B10000012300F0E4BC00BF059B002B05D0089A8A
:10B110000599069B0B4412791A70069B013306931E
:10B12000089B04221A71069A079B9A4206D3089B31
:10B1300040F222321A60012300F0C9BC00BF059B17
:10B14000002B05D0089A0599069B0B4412791A70BA
:10B15000069B01330693794B1B7819460298FFF73B
:10B1600005F90346764A1360754B1B68089C184620
:10B17000FFF726F903462371069A079B9A4206D3E6
:10B18000089B40F227321A60012300F0A0BC00BFE8
:10B19000059B002B05D0089A0599069B0B44127954
:10B1A0001A70069B01330693089B00221A71069AB7
:10B1B000079B9A4206D3089B4FF44A721A600123F8
:10B1C00000F085BC00BF059B002B05D0089A0599AF
:10B1D000069B0B4412791A70069B01330693584B59
:10B1E0001B68089C1846FFF7F2F803462371069A7D
:10B1F000079B9A4206D3089B40F229321A6001232A
:10B2000000F065BC00BF059B002B05D0089A05998E
:10B21000069B0B4412791A70069B01330693099B17
:10B220001C7D474B1B681846FFF7CAF803469C4233
:10B2300052D1089B02221A71069A079B9A4206D3A2
:10B24000089B40F22D321A60012300F040BC00BF81
:10B25000059B002B05D0089A0599069B0B44127993
:10B260001A70069B01330693089B02221A71069AF4
:10B27000079B9A4206D3089B40F22E321A600123A4
:10B2800000F025BC00BF059B002B05D0089A05994E
:10B29000069B0B4412791A70069B01330693089B98
:10B2A000099A527E1A71069A079B9A4206D3089B06
:10B2B00040F22F321A60012300F009BC00BF059B49
:10B2C000002B05D0089A0599069B0B4412791A7039
:10B2D000069B0133069362E0099B9C7D184B1B681B
:10B2E0001846FFF76DF803469C4253D1089B0A228B
:10B2F0001A71069A079B9A4205D3089B4FF44D7228
:10B300001A600123E3E300BF059B002B05D0089AD8
:10B310000599069B0B4412791A70069B013306931C
:10B32000089B00221A71069A079B9A420AD3089B2F
:10B3300040F235321A600123C9E300BF79050120CC
:10B340007C05012000BF059B002B05D0089A0599BC
:10B35000069B0B4412791A70069B01330693089BD7
:10B3600000221A71069A079B9A4205D3089B40F265
:10B3700036321A600123AAE300BF059B002B05D0DB
:10B38000089A0599069B0B4412791A70069B0133A3
:10B39000069304E0904940F23A30FCF709FA089B22
:10B3A00000221A71069A079B9A4205D3089B40F225
:10B3B0003D321A6001238AE300BF059B002B05D0B4
:10B3C000089A0599069B0B4412791A70069B013363
:10B3D0000693099B1C7D814B1B681846FEF7F0FF06
:10B3E00003469C4240F0F681089B05221A71069A9A
:10B3F000079B9A4205D3089B40F242321A60012310
:10B4000065E300BF059B002B05D0089A0599069BB4
:10B410000B4412791A70069B01330693089B242271
:10B420001A71069A079B9A4205D3089B40F2433251
:10B430001A6001234BE300BF059B002B05D0089A3F
:10B440000599069B0B4412791A70069B01330693EB
:10B45000089B00221A71069A079B9A4205D3089B03
:10B460004FF451721A60012331E300BF059B002B9A
:10B4700005D0089A0599069B0B4412791A70069B11
:10B4800001330693089B10221A71069A079B9A4271
:10B4900005D3089B40F245321A60012317E300BF31
:10B4A000059B002B05D0089A0599069B0B44127941
:10B4B0001A70069B01330693089B01221A71069AA3
:10B4C000079B9A4205D3089B40F246321A6001233B
:10B4D000FDE200BF059B002B05D0089A0599069B4D
:10B4E0000B4412791A70069B01330693089B0522C0
:10B4F0001A71069A079B9A4205D3089B40F249327B
:10B500001A600123E3E200BF059B002B05D0089AD7
:10B510000599069B0B4412791A70069B013306931A
:10B52000089B24221A71069A079B9A4205D3089B0E
:10B5300040F24A321A600123C9E200BF059B002B8A
:10B5400005D0089A0599069B0B4412791A70069B40
:10B5500001330693089B01221A71069A079B9A42AF
:10B5600005D3089B40F24B321A600123AFE200BFC3
:10B57000059B002B05D0089A0599069B0B44127970
:10B580001A70069B01330693089B03221A71069AD0
:10B59000079B9A4205D3089B4FF453721A6001230C
:10B5A00095E200BF059B002B05D0089A0599069BE4
:10B5B0000B4412791A70069B01330693089B099A73
:10B5C000927D1A71069A079B9A4209D3089B40F212
:10B5D0004D321A6001237AE2F84706007C0501200B
:10B5E00000BF059B002B05D0089A0599069B0B44CC
:10B5F00012791A70069B01330693089B04221A7174
:10B60000069A079B9A4205D3089B4FF454721A601E
:10B6100001235CE200BF059B002B05D0089A059929
:10B62000069B0B4412791A70069B01330693089B04
:10B6300024221A71069A079B9A4205D3089B40F26E
:10B6400051321A60012342E200BF059B002B05D056
:10B65000089A0599069B0B4412791A70069B0133D0
:10B660000693089B02221A71069A079B9A4205D3F9
:10B67000089B40F252321A60012328E200BF059B6A
:10B68000002B05D0089A0599069B0B4412791A7075
:10B69000069B01330693089B02221A71069A079BA8
:10B6A0009A4205D3089B40F253321A6001230EE2FE
:10B6B00000BF059B002B05D0089A0599069B0B44FB
:10B6C00012791A70069B01330693089B05221A71A2
:10B6D000069A079B9A4205D3089B40F256321A609D
:10B6E0000123F4E100BF059B002B05D0089A0599C2
:10B6F000069B0B4412791A70069B01330693089B34
:10B7000024221A71069A079B9A4205D3089B40F29D
:10B7100057321A600123DAE100BF059B002B05D0E8
:10B72000089A0599069B0B4412791A70069B0133FF
:10B730000693089B06221A71069A079B9A4205D324
:10B74000089B4FF456721A600123C0E100BF059BAD
:10B75000002B05D0089A0599069B0B4412791A70A4
:10B76000069B01330693089B099A127D1A71069A6B
:10B77000079B9A4205D3089B40F259321A60012375
:10B78000A5E100BF059B002B05D0089A0599069BF3
:10B790000B4412791A70069B01330693089B099A91
:10B7A000927D1A71069A079B9A4205D3089B40F234
:10B7B0005A321A6001238AE100BF059B002B05D095
:10B7C000089A0599069B0B4412791A70069B01335F
:10B7D00006930EE0099B9C7D9C4B1B681846FEF768
:10B7E000EFFD03469C4204D0994940F26330FBF7D9
:10B7F000DFFF964B1B681846FEF7E9FD03461A4625
:10B80000944B1A70944B00221A7042E1089B072255
:10B810001A71069A079B9A4205D3089B40F26E3232
:10B820001A60012353E100BF059B002B05D0089A45
:10B830000599069B0B4412791A70069B01330693F7
:10B84000089B05221A71069A079B9A4205D3089B0A
:10B8500040F26F321A60012339E100BF059B002BD3
:10B8600005D0089A0599069B0B4412791A70069B1D
:10B8700001330693754B1B68774A127811461846B8
:10B88000FEF7ACFD0346754A1360744B1B68089CB9
:10B890001846FEF7C9FD03462371069A079B9A4294
:10B8A00005D3089B40F273321A6001230FE100BFF9
:10B8B000059B002B05D0089A0599069B0B4412792D
:10B8C0001A70069B01330693099B1C7D5F4B1B6816
:10B8D0001846FEF775FD03469C421AD1089B0322C9
:10B8E0001A71069A079B9A4205D3089B4FF45E7221
:10B8F0001A600123EBE000BF059B002B05D0089ADE
:10B900000599069B0B4412791A70069B0133069326
:10B9100029E0099B9C7D4D4B1B681846FEF750FDA6
:10B9200003469C421AD1089B02221A71069A079B71
:10B930009A4205D3089B40F27D321A600123C6E08B
:10B9400000BF059B002B05D0089A0599069B0B4468
:10B9500012791A70069B0133069304E03C4940F2C9
:10B960008130FBF725FF089B40221A71069A079B3E
:10B970009A4205D3089B4FF461721A600123A6E036
:10B9800000BF059B002B05D0089A0599069B0B4428
:10B9900012791A70069B01330693089B00221A71D4
:10B9A000069A079B9A4205D3089B40F285321A609B
:10B9B00001238CE000BF059B002B05D0089A059958
:10B9C000069B0B4412791A70069B01330693099B60
:10B9D0001C7D1E4B1B681846FEF7F2FC03469C427A
:10B9E0001CD1099B1A6A089B12781A71069A079B48
:10B9F0009A4205D3089B40F28A321A60012366E01E
:10BA000000BF059B002B05D0089A0599069B0B44A7
:10BA100012791A70069B0133069334E0099B9C7DD2
:10BA20000A4B1B681846FEF7CBFC03469C4225D107
:10BA3000089B00221A71069A079B9A4210D3089B12
:10BA400040F28F321A60012341E000BF7C050120E3
:10BA5000F8470600800501208105012084050120AA
:10BA600000BF059B002B05D0089A0599069B0B4447
:10BA700012791A70069B0133069304E0154940F2CF
:10BA80009330FBF795FE144B1B780133DAB2124B5F
:10BA90001A70114B1A78114B1B789A42FFF4B6AE0C
:10BAA0000F4B1B780133DAB20D4B1A700C4B1A781E
:10BAB0000C4B1B789A42FFF418AB089B40F29A3269
:10BAC0001A60012303E0089B00221A600023184635
:10BAD0000AB010BDF847060081050120800501204D
:10BAE000790501207805012000B58FB003900291FF
:10BAF00001920398FEF79FFC0D900398FEF7B4FCAB
:10BB00000C900C9B9B8A03F00103002B14BF0123B4
:10BB100000238DF82F309DF82F3083F00103DBB226
:10BB2000002B01D0082327E00D98FEF7E7FC034621
:10BB30008DF82E30019B03F03F03002B0ED1029BAA
:10BB40000893019B099301230A9308AA9DF82E30BC
:10BB500011461846FEF7C4FA03460DE0029B059312
:10BB6000019B06930023079305AA9DF82E301146EA
:10BB70001846FEF7B5FA034618460FB05DF804FB09
:10BB800000B585B001900198FEF76EFC0390039B11
:10BB90005B6F184605B05DF804FB000000B58BB084
:10BBA000039002910192029B002B04D1454940F27F
:10BBB000D730FBF7FDFD0398FEF756FC0890089B75
:10BBC0009B8A03F00103002B01D1082375E0089B39
:10BBD0009B69002B61D1089BDB6E019A9A4218D8B1
:10BBE000089B9B6E019A1946029837F0C7FA089B8A
:10BBF000DA6E019BD21A089BDA66089B9A6E019B4B
:10BC00001A44089B9A66089B019A5A670023099375
:10BC100052E0089B029A9A61089B019ADA610398A4
:10BC2000FEF709FC03461846FEF77DFC03468DF837
:10BC30001F30254B0593089B0693089BDB6E002B5A
:10BC40001DD0089B9869089B996E089BDB6E1A466D
:10BC500037F094FA089BDA69089BDB6ED21A089BCE
:10BC6000DA61089B9A69089BDB6E1A44089B9A610B
:10BC7000089BDA6E089B1A67089B0022DA6605AA01
:10BC80009DF81F3011461846FEF750FA0990099B9F
:10BC9000002B11D1922309930EE0089B1B6A002B05
:10BCA00008D1089B029A1A62089B019A5A62922351
:10BCB000099301E011230993099B18460BB05DF825
:10BCC00004FB00BFF847060025A9020082B00190DE
:10BCD000019B03F1804303F51C33184602B0704703
:10BCE00000B583B003468DF807309DF8073018463D
:10BCF000FFF7ECFF034601221A60BFF36F8F00BF0E
:10BD0000BFF34F8F00BF00BF03B05DF804FB82B0EC
:10BD100003468DF807309DF8073003F01F03DBB2B0
:10BD2000184602B0704782B003468DF807309DF880
:10BD300007305B0903F00303DBB2184602B070471B
:10BD400082B003468DF807309DF80730DB09DBB27F
:10BD5000184602B0704782B00190019B1B7A1846CA
:10BD600002B0704782B00190019B1B68184602B078
:10BD70007047000000B583B00190019B002B04D1F7
:10BD8000064940F24320FBF713FD0198FFF7EAFF55
:10BD900003461B68184603B05DF804FB78480600AC
:10BDA00082B00190019B1B78184602B070470000DA
:10BDB00000B583B003468DF807300E4B1B789DF815
:10BDC00007209A4211D00B4A9DF8073013709DF856
:10BDD0000730052B06D0084B1B7823F00203DAB29C
:10BDE000054B1A700548FDF79BFC00BF03B05DF8DA
:10BDF00004FB00BF88050120890501207C4906005D
:10BE0000014B1B7818467047880501204FF080438E
:10BE1000D3F8383403F00103002B14BF01230023AF
:10BE2000DBB2184670470000024B00221A6000BFC8
:10BE3000704700BFD005012000B585B003468DF8DE
:10BE400007300B4B1B680393039B002B0AD0FFF7B3
:10BE5000EBFF074B59689DF80720039B1046984756
:10BE6000034600E00E23184605B05DF804FB00BF52
:10BE7000D0050120044B1B68002B14BF01230023B5
:10BE8000DBB21846704700BFD005012082B00346E0
:10BE900000918DF807300023184602B0704700006B
:10BEA00010B58EB003900291019201238DF83730C6
:10BEB000029B0993099B5B68002B15D1099B1B68AA
:10BEC0001846FFF757FF0346002B0DD1099B9B68CF
:10BED000002B09D100238DF83730039B00221A6014
:10BEE000039B00225A60AAE0019B402B04D95649CB
:10BEF00040F29710FBF75CFC00230C9300238DF8B5
:10BF00002B3009F0FDF90890099BDB68019A9342F8
:10BF100028BF13460B9386E0099B9B680B9A9342BC
:10BF200028BF13460793099B5B68002B0CD0089A27
:10BF30000C9BD018099B5B68079A194637F01EF9CD
:10BF4000099B00225A6014E0099B9B68002B10D0CB
:10BF5000099B1B685B685C68099B03F11000099BE7
:10BF60001968089A0C9B1A44079BA04701238DF877
:10BF70002B30099B9A68079BD21A099B9A60099BF0
:10BF8000DA68079BD21A099BDA600B9A079BD31ACF
:10BF90000B930C9A079B13440C93099B9B68002BF3
:10BFA0000BD19DF82B30002B07D0099B1B6818463E
:10BFB000FFF7E0FE0246099B1A60099BDB68002B35
:10BFC00003D100238DF837302DE0099B9B68002BAF
:10BFD00029D1099B1B68002B0DD1099B00225A60B7
:10BFE0000C9B002B24D00C9A019B9A4220D2002358
:10BFF0008DF837301CE00023059304E0099B9B6813
:10C000005A1C099B9A60099B1B685B685C68099BCA
:10C01000196805A801230022A0470346002BEDD193
:10C02000099B00221A610B9B002B7FF475AF00E087
:10C0300000BF039B089A1A60039B0C9A5A609DF8F4
:10C04000373018460EB010BDCC48060000B587B09A
:10C050000190019B5B781846FFF765FE0346002BB5
:10C0600001D0062383E0019B5B798DF81730FFF741
:10C07000C7FE03468DF81630019B9B78032B29D011
:10C08000032B6EDC002B02D0012B44D069E09DF81D
:10C090001630052B05D09DF8173003F00F03002B49
:10C0A00016D103AB184600F037FD04909DF8173009
:10C0B000184609F073F903469AB2049B1A80019B53
:10C0C000013302220499184600F0B4FC03464EE006
:10C0D00008234CE09DF8173003F00803002B42D1F1
:10C0E000019BB3F803309BB2002B3CD19DF8173075
:10C0F00003F00F03002B01D1062338E09DF8163022
:10C10000052B06D19DF81730184609F012F90023C7
:10C110002DE008232BE09DF8173003F00803002BD7
:10C1200023D1019BB3F803309BB2002B1DD19DF8A6
:10C13000173003F00F03002B01D1062317E09DF801
:10C140001630052B0BD19DF81730184609F039F938
:10C150009DF81730184609F0FEF8002307E0082381
:10C1600005E000BF02E000BF00E000BF0623184664
:10C1700007B05DF804FB00B58BB003900B4601924D
:10C180008DF80B30019B5B781846FFF7CCFD03461A
:10C19000002B01D006236AE0FFF732FE03468DF83C
:10C1A0002730019B5B781846FFF7CAFD0346012B39
:10C1B0003BD1019B9B78002B02D00A2B17D055E076
:10C1C0009DF82730052B01D0082350E006AB184618
:10C1D00000F0A2FC0790079B00221A80019B01330C
:10C1E00002220799184600F025FC03463FE09DF81F
:10C1F0002730052B01D0082339E005AB184600F0A5
:10C200008BFC08909DF80B3019460398FDF7FCFF56
:10C2100003461A46089B1A70019B013301220899B4
:10C22000184600F007FC034621E0019B9B780B2B8E
:10C230001BD19DF82730052B01D0082317E0019B67
:10C24000B3F803309BB2FF2B01D907230FE0019B0A
:10C25000DB788DF826309DF826209DF80B301946A6
:10C260000398FDF789FF034601E000BF0623184647
:10C270000BB05DF804FB000000B585B001900091A3
:10C2800002AB184600F048FC0390029B012B04D837
:10C29000184940F29F20FBF78BFA022200210398F5
:10C2A00036F095FFC02303F04003002B06D0039B1C
:10C2B0001B7843F00103DAB2039B1A700E4B1B7814
:10C2C0005B08DBB203F00103002B06D0039B1B7855
:10C2D00043F00203DAB2039B1A70009B013302227F
:10C2E0000399184600F0A6FB0346184605B05DF812
:10C2F00004FB00BFCC4806008905012010B590B0B2
:10C3000001900091009B1B79032B00F0C380032B4D
:10C3100000F3EE80012B02D0022B11D0E8E0009B4D
:10C32000B3F807309BB2002B01D10023E2E0009B61
:10C33000013312227149184600F07CFB0346D9E014
:10C34000009BB3F807309BB2002B01D10023D1E052
:10C35000009BB3F807309BB2092B28BF09239BB27F
:10C36000089309230F9300238DF83B30FDF7ECFD74
:10C370000D9037E00D9B5B68002B04D1604940F2C3
:10C38000D120FBF715FA0D9B5B685B68002B04D18D
:10C390005B4940F2D220FBF70BFA00230C930023F9
:10C3A000049302E00C9B01330C930D9B5B685C686B
:10C3B00004A8012300220D99A0470346002BF1D1C8
:10C3C0000F9A0C9B13440F930D98FFF7C4FC034680
:10C3D0001A469DF83B3013448DF83B300D98FFF71B
:10C3E000C9FC0D900D9B002BC4D106AB184600F084
:10C3F00093FB0790069B089A9A4204D9404940F261
:10C40000E720FBF7D5F9089A3E49079836F0B6FEC3
:10C41000079B9DF83B201A710F9B9AB2079B5A808D
:10C42000FDF75AFD0346002B06D0079BDB7943F04E
:10C430002003DAB2079BDA71FDF786FD0346324A24
:10C440001360314A079B53602F4A089B9360009BFF
:10C45000B3F807309BB21A462B4BDA6000238DF8F5
:10C460000F300DF10F031846FBF7ECF82749802039
:10C47000FDF75CFE0B900B9B002B04D12449802020
:10C4800000F02CFB0B909DF80F301846FBF7F0F8EE
:10C490000B9B2FE0009BB3F807309BB2002B01D120
:10C4A000002327E0009BDB788DF82B30009B5A7926
:10C4B0009B791B021343ADF82830BDF828209DF866
:10C4C0002B301146184600F0DFFB0990099B002B2A
:10C4D00001D106230EE0009B5C1C0998FFF760FC6D
:10C4E00003461A460999204600F0A4FA034601E0E3
:10C4F00000BF0623184610B010BD00BF2849060033
:10C50000CC4806003C490600E405012074490600B9
:10C510006C49060000B587B00190009103AB184646
:10C5200000F0FAFA0590FFF76BFC03468DF8133024
:10C530009DF81330052B03D1059B01221A7009E0E9
:10C540009DF81330042B03D1059B00221A7001E0E3
:10C55000062307E0009B013301220599184600F0ED
:10C5600069FA0346184607B05DF804FB00B585B0CC
:10C5700001900091FFF744FC03468DF80F309DF8C1
:10C580000F30052B05D09DF80F30042B01D0082368
:10C5900016E0009BDB78002B05D1FDF78FFE042011
:10C5A000FFF706FC0BE0009BDB78012B05D1FDF7C4
:10C5B0004BFE0520FFF7FCFB01E0072300E0002312
:10C5C000184605B05DF804FB00B583B001900091FA
:10C5D000019B002B04D150494FF45A70FBF7E8F847
:10C5E000009B002B04D14C4940F26930FBF7E0F886
:10C5F000009B5B781846FFF796FB0346002B01D0A3
:10C60000062385E0009B5B781846FFF799FB0346FD
:10C61000012B1FD1009B9B78082B12D0082B16DC16
:10C62000002B02D0062B06D011E000990198FFF7ED
:10C6300023FE03466CE000990198FFF75FFE034676
:10C6400066E000990198FFF765FF034660E000BFD0
:10C6500006235DE0009B9B78013B082B52D801A28A
:10C6600052F823F0C7C6020005C7020095C60200B3
:10C6700005C7020089C6020005C7020005C70200FF
:10C6800005C70200F9C6020023494FF46370FBF7A7
:10C690008FF83CE0009BB3F803309BB2012B33D101
:10C6A000FDF71AFC034683F00103DBB2002B01D037
:10C6B0000F232DE0194B1B7843F00203DAB2174B1E
:10C6C0001A70002324E0009BB3F803309BB2012BC7
:10C6D0001CD1FDF701FC034683F00103DBB2002B04
:10C6E00001D00F2314E00D4B1B7823F00203DAB2C4
:10C6F0000A4B1A7000230BE000990198FFF736FFF0
:10C70000034605E000BF02E000BF00E000BF0623D3
:10C71000184603B05DF804FBCC48060089050120EB
:10C7200000B58BB001900623099305238DF81030D6
:10C7300004AB0133184608F053FEFFF79BFBFFF7ED
:10C7400073FB9DF811301846FFF7E1FA0346032BFF
:10C7500063D801A252F823F069C7020087C702001C
:10C76000D5C702000FC8020004AB19460198FFF7B5
:10C770002BFF0990099B062B51D104AB1846FDF7FE
:10C7800090FC09904BE09DF815308DF822300DF1AA
:10C790000F029DF8223011461846FDF7E7FB07907F
:10C7A000079B002B02D1102309933AE09DF80F302C
:10C7B00004AA19460798FDF71DFC0990099B062B52
:10C7C0002FD19DF80F3004AA19460798FFF7D3FC24
:10C7D000099026E0062309939DF815308DF8233043
:10C7E0009DF8233003F00F03002B07D004AA9DF817
:10C7F000233011461846FDF70DFC0990099B062BC6
:10C8000011D104AB1846FFF721FC09900BE004ABF3
:10C810001846FDF746FC099006E000BF04E000BFA3
:10C8200002E000BF00E000BF099B002B0FD1FFF723
:10C8300021FB0346002B07D008F00EFE0346002B19
:10C8400007D108F0F7FD04E008F0FAFD01E008F078
:10C85000FDFD099B18460BB05DF804FB00B585B0E3
:10C860000190009106230393009B1B780E2B25DC7F
:10C87000002B40F3BD80013B0D2B00F2B98001A2DB
:10C8800052F823F0C3C80200CBC80200D1C802008E
:10C89000F1C9020017C9020099C90200F1C90200DA
:10C8A000F1C90200F1C90200F1C9020021C9020068
:10C8B0003BC902005BC9020079C90200852B1DD06B
:10C8C00096E00320FFF774FA99E00023039396E0C3
:10C8D0004D48FBF738F80346002B02D05C20FFF7E9
:10C8E000FFF9FFF78DFA0346002B04D1474940F2C8
:10C8F0004240FAF75DFF0023039380E0FFF780FAE0
:10C9000003468DF80B309DF80B30032B72D10420B9
:10C91000FFF74EFA6EE00198FFF702FF03906EE01A
:10C92000FFF76EFA0346002B04D0384940F2564018
:10C93000FAF73EFF0023039361E0FFF761FA034635
:10C94000012B04D0314940F25C40FAF731FF00205E
:10C95000FFF72EFA0023039351E0FFF757FA03463F
:10C96000002B03D00220FFF723FA02E00120FFF79B
:10C970001FFA0023039342E0FFF742FA0346012B1C
:10C9800004D822494FF48E60FAF712FF0120FFF716
:10C990000FFA0023039332E0009BDB78032B2BD0AC
:10C9A000009B9B78002B08D0009B9B78802B04D0A9
:10C9B000164940F27E40FAF7FBFE009BDB781846F2
:10C9C000FFF73AFA0390039B002B0ED1FFF752FAC0
:10C9D0000346002B06D0009B9B78002B0ED108F05D
:10C9E00029FD0BE008F02CFD08E008F02FFD05E024
:10C9F00000BF04E000BF02E000BF00E000BF039BF7
:10CA0000184605B05DF804FB8C050120CC480600F3
:10CA100008B50020FDF76CFA8020FDF769FA00BF29
:10CA200008BD08B50020FDF781FA8020FDF77EFAE9
:10CA300000BF08BD00B58DB0039002910192039B29
:10CA4000DB889BB20A93019A0A9B934228BF134644
:10CA50000993019A0A9B9A420ED2802008F06EFA3E
:10CA600003461A46019BB3FBF2F101FB02F29B1A4B
:10CA7000002B01D1012300E000238DF823309DF825
:10CA8000233003F001038DF82330029B0593099BAB
:10CA900006939DF82330079300238DF813300DF192
:10CAA00013031846FAF7CEFD05AB19468020FDF7B3
:10CAB00017FB0B900B9B002B04D10749802000F043
:10CAC0000DF80B909DF813301846FAF7D1FD0B9B2B
:10CAD00018460DB05DF804FB6C49060000B583B044
