:02000002F0000C
:10400000000004205D430F0045430F0047430F00AD
:1040100049430F004B430F004D430F0000000000C9
:104020000000000000000000000000007D9D0F0067
:1040300051430F000000000053430F0055430F0091
:1040400049870F0057430F0057430F0057430F0096
:1040500057430F0057430F0057430F0057430F00BC
:1040600057430F0057430F0057430F0057430F00AC
:1040700057430F0057430F0057430F0057430F009C
:1040800079A20F0057430F0057430F0057430F000B
:1040900057430F0057430F003D7F0F0057430F005A
:1040A00057430F0057430F0057430F0057430F006C
:1040B00057430F0057430F000000000000000000AE
:1040C00057430F0057430F0057430F0057430F004C
:1040D000419F0F0057430F0057430F00D9960F0021
:1040E00057430F0057430F0079D40F000000000022
:1040F0000000000057430F000000000057430F006E
:1041000000000000000000000000000000000000AF
:10411000000000000000000000000000000000009F
:10412000000000000000000000000000000000008F
:10413000000000000000000000000000000000007F
:10414000000000000000000000000000000000006F
:10415000000000000000000000000000000000005F
:10416000000000000000000000000000000000004F
:10417000000000000000000000000000000000003F
:10418000000000000000000000000000000000002F
:10419000000000000000000000000000000000001F
:1041A000000000000000000000000000000000000F
:1041B00000000000000000000000000000000000FF
:1041C00000000000000000000000000000000000EF
:1041D00000000000000000000000000000000000DF
:1041E00000000000000000000000000000000000CF
:1041F00000000000000000000000000000000000BF
:10420000314932480A1A02D0072291438D4630497B
:1042100030480A1A06D00722914381F30988022206
:1042200082F314882C482D492D4A00F03CF82D4883
:104230002D492E4A00F037F82D482E492E4A00F01D
:1042400032F82E482E492F4A00F02DF82E482F49DB
:104250002F4A00F028F82F482F49304A00F023F861
:104260002F483049304A00F01EF8304830490022CB
:1042700000F024F82F483049002200F01FF82F4AA0
:1042800090471F481F49884205D00268043003B494
:10429000904703BCF7E700208646EC46002000214B
:1042A000274A9047FEE7884207D0521A05D0037884
:1042B00001300B700131013AF9D17047884202D0C8
:1042C00002700130FAE770470000042000F8032074
:1042D000000004200000042088DF0F0014000120EB
:1042E00074000120B8430F00B8430F00ACD50F0095
:1042F00088DF0F00140001201400012040D60F00B9
:1043000040D60F0040D60F0040D60F0040D60F0019
:1043100040D60F0040D60F0040D60F0088DF0F00B8
:10432000E8DF0F00740001207400012074000120F8
:10433000F8550120F8550120F855012085430F005C
:10434000E99B0F00FEE7FEE7FEE7FEE7FEE7FEE77C
:10435000FEE7FEE7FEE7FEE700F002B8FFF7FCBF6E
:104360000F484FF00701884385460E4880470E48A6
:10437000016841F470010160BFF34F8FBFF36F8F8D
:10438000FFF73EBF09480A490A4A884207D0521A35
:1043900005D0037801300B700131013AF9D1704733
:1043A0000000042039A50F0088ED00E02CD60F0096
:0843B0000000012014000120AF
:1043B8004B1C30B5DB00044612F003009BB20DD154
:1043C800074D2A601A44074B1A60074B1870074BB1
:1043D8001870074B1C80074B198030BD0720FCE77D
:1043E8007C00012078000120740001208400012055
:1043F80080000120820001202DE9F743DFF8BC800E
:10440800B8F800308B4206460D46174647D30024BD
:104418000DF107008DF8074000F080F8224B234A81
:1044280023481B78008892F800C084455FFA8CF115
:1044380038BF4C1CDBB238BFE4B2A34228D0147892
:104448001178CBB2884286BF0133DBB200231370E8
:104458009DF8070000F086F84FF6FF739C4220D0C5
:10446800144B1B6843F8347003EBC4099EB195B133
:10447800114BB8F800001B682A46314604FB00308F
:1044880009F073F8A9F80450002003B0BDE8F083E0
:104498004FF6FF74DCE70020A9F80400F5E70920CF
:1044A800F3E70420F1E700BF840001207400012035
:1044B800820001207C00012078000120800001207A
:1044C80070B5104C104D22782B789A4200D170BDEF
:1044D8000E480F4A2378126806880E4802EBC3017B
:1044E800006852F83320898803FB060090470A4980
:1044F80022780988D3B2914286BF0133DBB2002308
:104508002370E0E78400012074000120800001206E
:104518007C000120780001208200012070B5EFF3B3
:10452800108672B60C4A946801239CB993600B4BB1
:104538000B4DD3F8801029401160C3F88050D3F890
:10454800841051604FF0FF32C3F88420047006B91C
:1045580062B670BD0370FAE78800012000E100E050
:10456800FC06FFBD084B9A6810B55AB150B9EFF375
:10457800108172B6054A1C6814605C6854609860C3
:1045880001B962B610BD00BF8800012000E100E05B
:1045980030B53AB11368DB430A4D0144814204D176
:1045A800D84330BD4FF0FF33F6E710F8012B5340E6
:1045B800082213F0010418BF2C46013A84EA530379
:1045C800F7D1EBE72083B8ED10B561B1B2FBF3F496
:1045D80003FB1424A4B244B9C0E9001484608281A6
:1045E800C381204610BD0E20FCE70920FAE782B0FF
:1045F80050E8022FC188B2EB324F4FF0000317BFCB
:1046080092B241EA014142EA014104E04268B2EB58
:10461800324F08BF012340E80212002AE8D18DF882
:1046280007309DF80730002B0CBF1120002002B086
:10463800704737B550E8013F9DB2C4892544848945
:10464800A54228BF2D1B0489A54202BFBFF32F8FA7
:10465800002207E0C5EA030540E80154002CE9D12F
:104668004FF001028DF803200193019A0A609DF82A
:10467800031001F0FF0321B1006810FA82F003B0C3
:1046880030BD1846FBE70A884B889A4209D150E8A2
:10469800012FC2EA024240E80123002BF7D1012092
:1046A80070470020704737B550E8023F1FFAA3F55E
:1046B800C488A54202BFBFF32F8F00220DE0C48932
:1046C80025448489A54228BF2D1BC3EA054540E837
:1046D8000254002CE8D14FF001028DF80320019319
:1046E800019A0A609DF8031001F0FF0321B10068E8
:1046F80000EB124003B030BD1846FBE70A884B8830
:104708009A4209D150E8022FC2EA224240E8022325
:10471800002BF7D1012070470020704710B50346E1
:1047280053E8000F0A4643E8002494F0000FF7D13D
:1047380010BD10B5034653E8000F40EA010243E8F4
:10474800002494F0000FF6D110BD10B5034653E8CD
:10475800000F00EA010243E8002494F0000FF6D1AC
:1047680010BD10B5034653E8002F02EA010043E8E4
:10477800000494F0000FF6D110BD10B5034653E8BD
:10478800002F02EB010043E8000494F0000FF6D17B
:1047980010BD10B5034653E8002F8A422CBF501AAB
:1047A800104643E8000494F0000FF4D110BD012135
:1047B800FFF7BFBF0021FFF7C8BF0021FFF7D1BF38
:1047C80010B590B1D0E9012301689B1ADBB20A60E9
:1047D800013BDBB2FF2B026802D10020107110BD33
:1047E80011684C1C14600B70F2E70E20F7E737B520
:1047F800054600240DF107008DF80740FFF78EFEEF
:104808002A686B68116899420ED9481E106011F821
:10481800013CEC68298A01FB0344AB6811791B1A37
:10482800DBB2994238BF13719DF80700FFF79AFE73
:10483800204603B030BD37B5054600230DF107000B
:104848000C468DF80730FFF769FE2A681368591C73
:104858001160E968641A298AB4FBF1F41C709DF8A8
:104868000700FFF77FFE03B030BD0B6801601146FB
:10487800184710B40468E468A4465DF8044B604720
:1048880010B404682469A4465DF8044B604700002E
:1048980070B550B90E4D0F4C0026641B1423B4FBA1
:1048A800F3F4B44208D1002010E00368002BF1D0E3
:1048B800BDE87040DB6918472B6813B90136143519
:1048C800EFE7DB69284698470028F7D070BD00BF9E
:1048D8000000012014000120014B436000207047B4
:1048E80040D60F000846704700207047024B1868F2
:1048F800003818BF012070479400012008B502480D
:10490800FFF75BFF002008BD9400012008B51046A2
:104918001A4608F02AFE002008BD00002DE9F041E3
:10492800804686B011480F4616461D46FFF73FFFE2
:104938000446C8B9AA083146384603F0F3FB0B48C9
:10494800FFF73BFFD8F8083053B101228DF800205B
:104958000C9A0592CDE90147CDE903656846984769
:10496800204606B0BDE8F0811124F9E79400012043
:104978002DE9F043814687B014480E4615469846FF
:10498800FFF715FF0446F0B90746BD4215D10F4899
:10499800FFF713FFD9F808305BB102228DF8002029
:1049A8000022CDE90126CDE90325CDF8148068461B
:1049B8009847204607B0BDE8F08306EB073003F0C0
:1049C80083FB0137E1E71124F3E700BF94000120DE
:1049D80029DF704728DF704770B503689E6886B086
:1049E80004460D466EB114220021684608F0CAFD3F
:1049F800A3680593237901952BB1012B0DD0684647
:104A0800B04706B070BD01238DF8003023690293CA
:104A1800E368039363690493F1E702238DF8003098
:104A2800E3681B030293F5E70846704700207047C8
:104A3800024B187A003818BF012070478402012001
:104A4800034B187A0122B0FA80F05A744009704773
:104A58008402012008B510461A4608F086FD002099
:104A680008BD000008B514220021044808F08AFD9A
:104A78000348FFF7BCFD002008BD00BF84020120E9
:104A88007402012010B5094C094B43602046FFF71A
:104A98008EFE48B903F034FA064920741C230648F0
:104AA8004FF4EE72FFF790FD002010BD8402012044
:104AB8006CD60F00980001207402012038B5224DF1
:104AC800224C2B7A3BB922492248FFF7ECFD2060A3
:104AD80008B9686038BD022324682B72237973B142
:104AE800012B22D020460321FFF776FF00232B72EB
:104AF8006B6017491748BDE83840FFF7FFBDD4E998
:104B08000523D21A142AD4E9031028BF14229208C4
:104B1800012A38BF012219441844FFF759FF50B140
:104B28001128DFD101232B72D4E7D4E903031844F9
:104B3800FFF750FFF3E72B7C002BCBD1BDE83840C3
:104B4800022000F009B800BF840201209C02012065
:104B5800980201207402012038B5224C237A002BD8
:104B68003FD0022B09D103282ED01F4B00221B68EF
:104B7800E2601A793AB1012A20D0637C6BBBBDE8A8
:104B88003840FFF79BBFD3E905128D1A142D94BF47
:104B9800521914329A619142EFD102284FF0000362
:104BA80008BF19462372104B18BF0D211868FFF76C
:104BB80013FF0E490E48FFF7A1FDDEE71A6901321F
:104BC8001A615B699A42E7E7E3680133082B01D869
:104BD800E360D2E70023E360DFE7BDE8384003F095
:104BE8007FB938BD840201209C020120980201206F
:104BF80074020120831E012B01D8FFF7ADBF704757
:104C080000F0FD03012B08D1044B00225A74421E08
:104C1800504250411874FFF751BF70478402012079
:104C280010B5064C201DFFF7C2FD28B9637C1BB9DF
:104C3800BDE81040FFF742BF10BD00BF840201204D
:104C48002DE9F34180460D46104801A916461F4636
:104C5800FFF7EFFC0446B0B118220021043008F039
:104C680091FC2D0B0123237101A90848C4F8008089
:104C7800A760E5606661FFF706FDFFF7D1FF00203A
:104C880002B0BDE8F0810420FAE700BF74020120F9
:104C98002DE9F34180460F460F4801A916461D46E7
:104CA800FFF7C7FC0446A8B118220021043008F019
:104CB80069FC089BA36001A9C4E903670648C4F816
:104CC80000806561FFF7DFFCFFF7AAFF002002B054
:104CD800BDE8F0810420FAE7740201200B684A68F5
:104CE8004360934208BF0023016008BF43607047D8
:104CF800436843B10268916852680B449342436029
:104D080004BF00234360704770B51F4D2B68013303
:104D180038D01E4E1E4C3378D3B103F0B1F84FF49F
:104D28007E2003F0D1F94FF47F2003F0CDF9002065
:104D380006F020F80020C4E90C00C4E90400C4E926
:104D48000600C4E9090030702062E06205F0D2FF75
:104D58002E68A2690F4806F58053934231464FF4F6
:104D6800805288BFA36108F0DAFB40B1304603F0F7
:104D7800ABF9084928684FF4806203F0D3F94FF083
:104D8800FF332B6070BD00BF180001201400012004
:104D9800BC3D0120A002012008B5134B1B78B3B11C
:104DA800FFF7B2FF114A1249012313624FF440532F
:104DB80000205B688B420CBF4FF41C314FF48051CC
:104DC80093695B1A002BC8BF936105F0C3FFBFF35B
:104DD8004F8F0849084BCA6802F4E0621343CB605E
:104DE800BFF34F8F00BFFDE7A0120120BC3D01209B
:104DF800DBE5B15100ED00E00400FA052DE9F041D2
:104E0800114BDFF84C801746012220F47F651A7099
:104E1800D8F8003025F00F05AB4204460E4609D0FD
:104E2800FFF772FF0948C8F800504FF4805229462E
:104E380008F09BFB0548C4F30B043A46314620446E
:104E4800BDE8F04108F091BBA0120120A0020120AA
:104E58001800012010B503461C1A944200DB10BD4F
:104E68000C781CB1013103F8014BF5E72024FAE76F
:104E780038B50C4605464FF400720021204608F06C
:104E880081FB95B94B4B224603F13C0153F8040BC7
:104E980042F8040B8B42F9D11B881380552384F800
:104EA800FE31AA2384F8FF3138BD402D2BD8691E66
:104EB8001F2988BFA5F12101D1B13F4A0B02C2F3D6
:104EC8001622C1EBC151023203F5807504EB41246F
:104ED800022B03F1010107D99A4205D314BF88B206
:104EE8004FF6FF7024F813008D420B46F0D1DBE734
:104EF8002346F02203F8012B4FF0FF32C4F80120BB
:104F0800C3F80320D9E7442D2BD8412DCCD1204616
:104F18002A490B22FFF79EFF2823E3725623002518
:104F280084F83C30022384F83A3004F12000244904
:104F380084F83D5084F83E5084F83F5084F83B5044
:104F4800FFF788FF1C4B84F85B505B00E365032385
:104F580084F85A3004F140001A49BDE83840FFF798
:104F680079BF452D06D1184956222046BDE838405C
:104F780008F0FBBA05F22A210902B1F5801F93D285
:104F8800124B236003F1144303F52C1303F6023389
:104F980063600F4BC4F8FC31074BE160463DC3F337
:104FA80016234FF480726561A361226104F1200029
:104FB800DCE700BF98D60F0000D00C00C3D60F0066
:104FC800D8D60F00E8D60F00F8D60F005546320A9B
:104FD800306FB10A70B516461C460A682A4B9A42C9
:104FE8000D4650D103F114434A6803F52C1303F618
:104FF80002339A4247D1D1F8FC21244B9A4242D13C
:105008008B68DB0711D40A69B2F5807F0DD8C868B0
:10501800C3B253B9B0F51C3F07D31D4B11189942C1
:1050280003D805F12001FFF7E9FE64B3AB6953B378
:105038002268934207D041F263018B4200D80AB13B
:105048004FF0FF3323606B6941F2630293421AD831
:1050580003F0070204EBD3030120197A90400842B9
:10506800C5B204D162682943013219726260D4E979
:1050780000329A4207D336B9BDE8704005494FF46B
:10508800004004F09DBF70BD5546320A306FB10A2A
:1050980000400F00A14D0F001FB50B4641694FF4AA
:1050A800FA544FF4007CC1E9004CC1E9023233B133
:1050B8000021CDE90212ADF8041001A9984700209B
:1050C80004B010BD19B1012905D00620704702B1FE
:1050D80011700020704712B104301060F9E7072002
:1050E8007047406970471FB54469A36843B10122FE
:1050F800ADF8042000220292E268039201A99847C1
:1051080010220021204608F03DFA002004B010BD0E
:10511800F0B5476985B006460C46002563689D4290
:105128000DD3BB6843B10222ADF80420FA6802949B
:10513800039201A930469847002005B0F0BDA16848
:10514800206801EB45212844FFF792FE0135E5E789
:105158002DE9FF414769DFF8448006460C460025E3
:10516800626895420ED3BB6843B10322ADF80420B0
:10517800FA680294039201A930469847002004B0C7
:10518800BDE8F081A168206801EB45212844434629
:105198000022FFF71FFF0135E2E700BFA41201203C
:1051A80043681B6818470000024B5B6803B1184747
:1051B800704700BFC0140120020600F00F034CBF67
:1051C80002480348DB001844704700BFCC14012094
:1051D8001415012008B5FFF7EFFF016009B14B680E
:1051E8001968416008BD0000024B0146D3E900027E
:1051F800104700BF1415012038B5831EDBB2062BFB
:1052080098BF1A4A1A4D98BFD25C2B78A3F10203B3
:10521800DBB288BF0022062B9ABF1449CB5C00235F
:105228009342044603D0B2B1124803F07FF8022C2F
:1052380014D0A4F10800424242412B78022B0FD02F
:10524800A3F108014B424B41934202D052B103F003
:1052580083FF2C7038BD03F0A3F8E8E70122ECE7E0
:105268000123F1E703F06EFFF3E700BF68D70F00F3
:105278008C1601201C0001200378052B73B5044609
:105288000BD12F4AD2F88434D2F88024D2B222B972
:105298002C4ADBB2052B08BF144623782BBB2A4BBC
:1052A8001D68DDB98DF80450284D01A8FFF736F9BF
:1052B8002B6813B9264B62881A8001212348FFF70F
:1052C8005CFA9DF80400FFF74DF9224B1B6813B1F7
:1052D8000121204698472B6802B070BD2B68608872
:1052E8009B6898472B685D68DBE71B4801A9FFF7B7
:1052F800A0F905460028EFD02368036000260DF1C9
:1053080003008DF80360FFF709F9114B0F481B885C
:10531800026801339B1AEB803146FFF7FFF9A8803A
:105328009DF80300FFF71EF901A90B48FFF7ABF939
:10533800084B1B680146002BCED020469847CBE788
:105348000070024070D70F008016012088160120D7
:105358005C150120C014012068160120FFF78CBFDE
:105368000148FFF789BF00BF74D70F002DE9F04F40
:1053780087B000260546884691461F4602966B6808
:1053880000225C682946012302A8A047044638B9D0
:105398008DF8060004908246564503D8052028E07B
:1053A8000136ECE76B680DF10602D3F804B0294624
:1053B800012304A8D8476B680DF10702D3F804B09D
:1053C8002946012304A8D8479DF8073043459DF88E
:1053D800063013D14C450FD1109A13603B7087F8F3
:1053E80001806A68023B54682946BA1C04A8A04791
:1053F800002007B0BDE8F08F0134E4B26A68023BD0
:10540800D2F804B02946002204A8D8479DF80630EF
:105418009A44C1E72DE9F743082305462D492E484C
:105428004FF48472FFF7D0F8002851D12B4803F0CD
:10543800A9FE0446002847D1294B1870294B18604B
:10544800294B014618604822284808F09BF828484C
:105458004822214608F096F8264B8DB9C3E9005535
:105468001D72002003F02EF818B1852801D004F031
:10547800B3FB214F002697F8089007F1090810E0C0
:1054880095E8070083E80700EBE7A378234439464B
:10549800985CFFF79FFE01356378EAB29342F4D82F
:1054A8000136F4B2A14504D904EB44044444002570
:1054B800F2E70B2310488DF8043001A9FFF770FEBE
:1054C800044608B103F038FD204603B0BDE8F08378
:1054D8000324F9E75E1501206816012065530F00C3
:1054E8008C160120781601207C160120CC1401208E
:1054F80014150120C01401207CD70F0003F026BD2D
:105508004FF08043D3F83824920702D50348FFF7B9
:10551800B3BED3F83824D107F4D4704779D70F0035
:105528002DE9F74300F1090190F808900546002796
:105538000E46FBB24B452AD291F801800024E3B213
:1055480098450AD98B780A190134D05CFFF734FEE4
:105558000368002BF3D0112028E001370331E8E776
:10556800A27823442946985CFFF734FE0137627815
:10557800FBB29A42F4D808F101082B7A5FFA88F452
:10558800A34216D904EB440434440027EFE74FF054
:105598000008F2E713681A68002AFBD11D6001A908
:1055A8000B2328468DF80430FFF7FAFD03B0BDE859
:1055B800F083014BEFE700BF78160120024B187803
:1055C800003818BF0120704784160120030710B562
:1055D800044604D403F018FF204604F0BBF9204623
:1055E800BDE8104004F060B904F02CB9014B18680C
:1055F800704700BF78160120F0B50A4B02461868BC
:1056080078B1057A0023861DDCB2A54201D803686B
:10561800F5E7013303EB4307F75D9742F4D101B196
:105628000C70F0BD781601201146FFF7B9BD08B51A
:1056380000F00F03082B07D8FFF7BEFD006818B16C
:10564800BDE80840FFF7ACBD102008BD38B5054BD4
:1056580005461C6804B938BD29462046FFF7A0FD59
:105668002368F6E77816012038B5074B05461C680D
:105678000CB9062038BD29462046FFF791FD0628BB
:10568800F8D12368F3E700BF7816012013B5044664
:10569800019103F0BDFD50B1064B1B78022B06D1DA
:1056A8000199204602B0BDE8104003F0C1BD0820B2
:1056B80002B010BD8C16012013B50446019103F009
:1056C800A7FD50B1064B1B78022B06D10199204645
:1056D80002B0BDE8104003F025BE082002B010BD9E
:1056E8008C160120F8B543689B6805460C4616469B
:1056F80013B92EB1072002E098470628F9D0F8BD63
:105708002B7AA34213D9093504EB44042C44677857
:10571800F3B29F4201D80020F1E762789A4208D993
:10572800A219A378D05CFFF751FF0136F0E7737830
:10573800FFDE00231B78FBE74368DB6870B505468E
:105748000C4603B198472B7AA34213D9093504EBC9
:1057580044042C4400256678EBB29E4200D870BD04
:1057680062789A4209D96219A378D05C04F06AF881
:105778000135F1E700235B78FFDE00231B78FBE7A8
:1057880043681B6903B118471846704770B5084B42
:105798001C6804B970BD267A0025E9B28E4201D88A
:1057A8002368F5E700222046FFF79CFF0135F4E760
:1057B8007816012070B5084B1C6804B970BD267AAC
:1057C8000025E9B28E4201D82368F5E72046FFF7A5
:1057D800B3FF0135F5E700BF7816012038B5037827
:1057E8000F2B044610D9A3F1800283F08003052B08
:1057F80000D938BD052AFCD8DFE812F067002C0074
:10580800490073007E00E0000F2BF2D801A252F885
:1058180023F000BF23590F0053590F00B3590F004D
:1058280077590F0095590F00C5590F00D7590F0028
:10583800FB570F00015A0F00055A0F00095A0F00B5
:10584800FB570F00FB570F00FB570F00FB570F00CC
:10585800CF590F006B48FFF7C7FC6A48FFF7F6FE01
:105868000D20FFF7A1FCFFF7A5FF00F0CCF9664B70
:105878001B6853B9654B187A00F0010003F008FC67
:105888000120BDE83840FFF7B7BC0120F4E7FFF777
:1058980091FF03F089FF0020FFF7AEFC5C48FFF79B
:1058A800D5FE5B48FFF7A0FC0E20FFF77DFC594BA7
:1058B8001B78023BDBB2062B9BD8574AD35C002BE4
:1058C80097D0BDE8384002F06BBD524B1B78062BD1
:1058D80005D003F0FD03052B8BD10220D1E708206A
:1058E800CFE74C4B1B78032B83D103F07FFF0028B5
:1058F8003FF47FAF0420C4E7464B1B78032B05D148
:1059080003F074FF10B10420FFF776FC03F0E4FB0A
:1059180000283FF46EAF0620B3E73E4B1B78032BFD
:1059280001D0082B02D13D48FFF758FF0020FFF7B0
:105938003BFC354B1D68002D3FF45BAF28462146E4
:10594800FFF72EFC2B685D68F5E7FFF733FF00F0E3
:1059580051F90220FFF750FC0120FFF725FC2046F3
:10596800FFF742FC2046BDE83840FFF76FBE294BE1
:105978001B78082B06D10220FFF73EFC03F0F6FB4C
:105988000320EAE70520FFF737FCF9E70320FFF7D4
:105998000BFC2348FFF728FC2148FFF757FE1D4B57
:1059A8001B78062B99D107206BE70320FFF724FC0F
:1059B8000220FFF7F9FB2046FFF748FE2046BDE826
:1059C8003840FFF711BC0F20FFF7EEFBCAE78078DD
:1059D800FFF7F2FB214643680068984700283FF428
:1059E80008AFA07802073FF404AF03073FF501AF03
:1059F800BDE8384003F0FABC0820E5E70920E3E7F2
:105A08000A20E1E778D70F007C160120C014012096
:105A180077D70F008C16012068D70F0076D70F00B4
:105A280075D70F0073B5244E00230193336823B94B
:105A380022492348FEF737FE30603468ECB1A58868
:105A480085B1E388B3F5006F24BF0023E380E388C2
:105A5800ADF806305A1C013DE280A58001A8FFF789
:105A6800BDFE07E02046FFF7B9FE14491448FEF7CB
:105A780045FE3560012002B070BD124B1868002841
:105A8800F9D00DF103008DF80340FEF747FD0E4BEA
:105A98000C481A88B2F5006F28BF1C801A88ADF828
:105AA8000620511C19800121FEF773FE9DF80300A2
:105AB800FEF758FDD2E700BF90160120BC14012064
:105AC80068160120881601205C1501200020704707
:105AD8002DE9F04F2DED028B4B6885B080460C46C2
:105AE80001926BB90B681B681B684BB98D683DB98F
:105AF800C0E90055284605B0BDEC028BBDE8F08F23
:105B080003F056FC019BE7689F4228BF1F4604F13B
:105B180010034FF0000A08EE103A81465646012558
:105B28004FB3A3686168BB429B4628BFBB4629B3F5
:105B38005A4609EB060007F018FD00236360A268C7
:105B4800E368A2EB0B02A3EB0B03A260E360A7EBF5
:105B58000B075E440ABBBAF1000F03D02268126833
:105B680012682260DBB12368DBB963601EB1019B58
:105B7800B34288BF0025C8E90096BBE7002BDED0FA
:105B880021684B6818EE100AD3F804A009EB060246
:105B98005B46D0474FF0010AD1E7002BC0D1002562
:105BA800BEE70023029321684B680022D3F804B0B3
:105BB80002A80123D84708B92061B1E7A3680133D7
:105BC800A360F0E7084B1A7882420CD0052818BF6A
:105BD800064A187018BF137805481CBF23F0020343
:105BE8001370FFF7FBBD7047A0160120BC160120FB
:105BF8008CD70F0008B50020FFF7E8FCBDE8084087
:105C08008020FFF7E3BC08B50020FFF7EDFCBDE8F6
:105C180008408020FFF7E8BC38B505460C4603F07D
:105C28006FFCA84205BFD4E90001034B1020C3E96B
:105C3800000108BF002038BDC01601207FB5C38809
:105C480093421E4628BF164693420D46144625D950
:105C5800802003F0D7FAB4FBF0F202FB1044B4FA48
:105C680084F4640900230DF1030003948DF80330D4
:105C7800CDE90156FEF752FC01A98020FFF706FD89
:105C8800044620B906498020FFF7C6FF04469DF860
:105C98000300FEF767FC204604B070BD0024E1E76E
:105CA800C0D70F002DE9F04F0B780E2B89B00D46A9
:105CB80013D8A3B1013B0D2B11D8DFE813F0120064
:105CC8001A00160010002A00F4011000100010003D
:105CD80010001A00DE01E201F201852B13D0062420
:105CE800DBE10320FFF76EFFF9E7A848FEF762FD46
:105CF80008B90024D1E1A64B0122DA65BFF36F8F02
:105D0800BFF34F8FF5E7A34B1B78032BE7D1042094
:105D1800E8E70523A04D8DF814300DF1150003F0C8
:105D280083FB00232B609DF8153003F01F07032F1A
:105D380000F25C81DFE817F00400F400510137003D
:105D480013F0600FC3F341182DD1DB099DF816201D
:105D580000F09F80062A0FD0082A00F08C8012BB22
:105D68008E490B708E4B4A701B789A0744BF0323E9
:105D78000B70022289490EE09DF81830022B16D0CC
:105D8800032B68D0012B0ED1BDF81B30002B00F07F
:105D98007181844912220DF11500FFF74FFF044667
:105DA800062C40F02B8105A8FFF75EFC13E1BDF837
:105DB8001B60002E00F05E81092E28BF0926FFF720
:105DC80015FC4FF00909044674BB744C76493246F9
:105DD800204607F0CAFB2771A4F80290FFF7EEFBF4
:105DE80018B1E37943F02003E371FFF7FFFB6F4B32
:105DF800C3E900049E60BDF81B20DA6003A80023F5
:105E08008DF80C30FEF78AFB69498020FFF754FCB7
:105E1800044620B967498020FFF7FEFE04469DF836
:105E28000C00FEF79FFBBBE7CDF80C804FF0000A93
:105E380063680022D3F804B02146012303A8D84799
:105E480030B9237A1F442368D1441C68FFB2BBE7EA
:105E58000AF1010AECE7BDF81B30002B00F00A81BB
:105E6800BDF819109DF8170001F038F9014600280F
:105E780099D002788FE7474A1278052A03D1474A12
:105E88001370012276E7042A8DD1444B83F80080F1
:105E9800F7E7032A10D0092A2CD0012A83D1BDF8AC
:105EA8001730012B7FF47FAFFFF788FB60B13C4AC6
:105EB800137823F002030FE0BDF81730012B7FF4AD
:105EC80072AFFFF77BFB18B90F2403F00FFBE4E078
:105ED800334A137843F0020313702B68002B00F049
:105EE800C98003F00DFB044600287FF402AF03F0DD
:105EF800BDFAD2E0274B1B78043B012B01D90824BB
:105F0800E3E79DF817302BB9FFF754FC0420FFF79F
:105F180059FEE2E7012B57D1FFF738FC0520F6E7D9
:105F28009DF8190003A9FFF767FB064608B9102476
:105F3800CBE79DF80C1005AAFFF776FB0628044668
:105F48005CD19DF8152012F0600FBED1114B9DF861
:105F58000C1018789DF81630D2092DD07BB10A2B79
:105F6800B3D10528CBD130460192FFF709FC0B4984
:105F7800019A08700DF11500FFF760FE2BE0052867
:105F8800BDD106490B800222F4E700BFC8160120E4
:105F980000700240A0160120C0160120CC16012076
:105FA800BC160120ACD70F008DD70F00A416012016
:105FB800C8D70F00C0D70F000B2B86D105289ED15C
:105FC800BDF81730FF2B01D907247EE79DF817206D
:105FD8003046FFF787FB044610E09DF819000307D9
:105FE80006D19DF8153013F0600F0BD006246CE72E
:105FF80005A9FFF71CFB06280446F2D0002C3FF445
:106008006CAF62E79DF81620344B9DF819401B7859
:10601800012A1DD0032A0CD0002AE7D1052B02D073
:1060280027077FF46CAF204603F0ECF92C49088071
:10603800A9E72607DAD4BDF81720002AD6D1200709
:10604800D4D0052B7FF45BAF204603F0CFF944E7AB
:106058002107CBD4BDF81720002AC7D12207C5D005
:10606800052B7FF44CAF204603F0CEF9204603F011
:1060780071FC32E703F030FA3BE60020FFF7A2FD9F
:1060880037E64FF08043D3F8384414F0010401D0C8
:106098000220F3E70120FFF795FD204609B0BDE88F
:1060A800F08F0120EAE7C87803283FF418AE0D4EB8
:1060B80033688BB100227168326098470446002823
:1060C8007FF403AF336823B1AB78002B7FF411AEB4
:1060D8000DE703F001FAE0E70E24F6E6A01601202A
:1060E800CC160120C016012008B1402303600148E6
:1060F800704700BFCC1601200068704703681B6911
:10610800184703685B691847037A33B1837A00F14B
:10611800090223B1C37AD05C70475B78FFDE1B7835
:10612800FCE713B5046800230DF107008DF807306C
:10613800FEF7F4F994F83D309DF80700013384F830
:106148003D30FEF70FFA02B010BD73B505460023C7
:1061580006688DF807300DF10700FEF7DFF92B68A8
:1061680093F83D402CB1D5E9044296F83C3002FB47
:1061780003449DF80700FEF7F5F9204602B070BD0C
:1061880073B50546066800240DF107008DF8074031
:10619800FEF7C4F92B68A96993F83E308B4210D2F8
:1061A80096F83E2096F83C301344B3FBF1F001FB1F
:1061B8001033D5E90441DBB2013201FB034486F810
:1061C8003E209DF80700FEF7CDF9204602B070BDCD
:1061D80037B50468054600230DF107008DF8073030
:1061E800FEF79CF994F83D309DF80700013B84F8D0
:1061F8003D3094F83E30013B84F83E3094F83C3012
:10620800AA690133B3FBF2F102FB113384F83C3085
:10621800FEF7A8F903B030BD7FB515461C460668E1
:10622800FFF772FFCDE90115002301A90393FFF7DA
:106238002DFA00B9347304B070BD836842681B68D6
:106248005068D96D1A6D0144D965596D42438A4227
:1062580094BF891A00215965996D00208A4294BF1C
:106268008A1A02469A6583F8600070471FB5046869
:10627800FFF74AFFA36D626C84F83810934238BF69
:1062880013461A0A84F8343084F835201A0C1B0E89
:1062980084F8373004F12C0384F8362001930D225A
:1062A800002301A9CDE90223FFF7F0F908B9062375
:1062B800237304B010BD70B5046894F848300546DF
:1062C8003BBB94F8496036BB236CBBB194F83D30B6
:1062D80093B1FFF73AFF6A690146206C01238242B5
:1062E80084F8483028BF024604232846FFF794FF65
:1062F800034608B184F84860184670BD227B042A1A
:10630800FAD1636C3BB994F83810BDE87040FFF7D8
:10631800ADBF0023F0E70623EEE7F0B5046894F874
:10632800603085B0002B42D194F86130002B40D109
:10633800636D002B2FD094F83D10002937D0A57E2F
:10634800C169426951F82560216D4D1E934294BF81
:10635800ED18AD18B5FBF1F5FFF7F7FE0123E76D72
:1063680084F86030336803905B69CDE90175304685
:10637800984703689F420CD2336801A9DB6830460E
:106388009847034610B1002284F86020184605B0EB
:10639800F0BD0723F7E7227B052AF7D1A36D43B9A0
:1063A80094F8381005B0BDE8F040FFF75FBF002350
:1063B800ECE70623EAE7F0B5046894F8603085B0A6
:1063C800002B36D194F86110002934D1636D5BB38A
:1063D80094F83E608569AE422FD2A57EC1694269B4
:1063E80051F82570216D4D1E934294BFED18AD18DC
:1063F800B5FBF1F5FFF7C4FE0123E66D84F86030C4
:106408003B6803905B69CDE90165384698470368A6
:106418009E420CD23B6801A99B68384698470346C0
:1064280010B1002284F86020184605B0F0BD07239B
:10643800F7E70023F8E70623F6E70B46F4E7000042
:10644800F0B504680D7A54B3A4F6E304202C00F2E6
:106458002B81202C00F22881DFE814F033003F0064
:1064680026012601260126015C00680076008200CC
:106478008F009C00A800260126012601260126017E
:1064880026012601260126012601C700D300260180
:1064980026012601EC00F800040110011C01884EB9
:1064A8003470874E3678AE4202D340F6081305E0C2
:1064B8000926A342067105D840F6E30303600120CC
:1064C800F0BD00240AB106791655013404269C4211
:1064D800067103D340F6E403F0E700240AB1067915
:1064E8001655774E0F7A3678DFF8D8C1B74204F1DF
:1064F800010440F2DD8001F1090706EB460607EBCF
:10650800060E9C42BE5DCCF800E0067103D340F64F
:10651800E903D3E700240AB10679165501340026A9
:106528009C42067103D340F6EA03C7E700240AB188
:1065380006791655634E36680134767806719C42A2
:1065480003D340F6EB03B9E700240AB106791655E0
:10655800013408269C42067103D340F6EC03ADE7EC
:1065680000240AB106791655013491F8286006719D
:106578009C4203D340F6ED03A0E700240AB1067954
:106588001655013491F8296006719C4203D340F6F0
:10659800EE0393E700240AB1067916550134002664
:1065A8009C42067103D340F6EF0387E700240AB143
:1065B80006791655434E36687778434E3770434E02
:1065C800002701343770414E37783F4E3678B7424E
:1065D80004D33B4F3E7801363E7062E70726A3425C
:1065E800067103D840F6FA0368E700240AB1067971
:1065F8001655013405269C42067103D340F6FB0369
:106608005CE700240AB1067916552E4E2F4F3668DE
:106618003F7896F801C0BC4504F101044DD996F8BD
:1066280002C03E449C4216F80C60067103D340F643
:10663800FF0343E700240AB1067916550134022600
:106648009C42067103D34FF4106337E700240AB164
:1066580006791655013440269C42067103D340F64C
:1066680001132BE700240AB10679165501340026D8
:106678009C42067103D340F602131FE700240AB1B7
:1066880006791655013400269C42067103D340F65C
:10669800031313E700240AB1067916550B4F3E7809
:1066A800013601343E708EE700230360184607E781
:1066B8000023CCF800301B78FFDE0023FBE700BF87
:1066C8000D170120101701200C1701200E170120AB
:1066D800037A43B1827A012A00F1090305D9C27A03
:1066E8001344587870475B78FFDE00231B78FBE77C
:1066F8007FB50568FFF7ECFF1F2605F10D0304467B
:1067080000211846324606F03DFF0023CDE9010678
:1067180001A920460393FEF7B9FF08B902232B739A
:1067280004B070BDF8B507680446FFF7EDFC0546F0
:106738002046FFF7CDFF044628460E4602F056FED7
:10674800204602F053FE284602F084FF204602F05D
:1067580081FF3E73F8BD08B5034600681530FFF7A2
:10676800CBFC28B918460121BDE80840FFF77EBDDB
:1067780018460721FFF7D6FF002008BD38B5D36CAF
:10678800044623B9BDE838400121FFF76FBD906C7E
:1067980020B92046BDE83840FFF7DDBF92F90D501B
:1067A800002DF6DA096883424FF000058D8781F8DD
:1067B8003E5038BF93649363936C536338BF022190
:1067C8004FF0000338BF82F82C1082F83C3082F872
:1067D80054302046FFF7EFFD054610B12046FFF77D
:1067E800BAFF284638BD2DE9FF41056895F848608D
:1067F80004462EBB2B6CFBB195F83E2083699A4268
:106808001ED2FFF7BDFC61692B6CD4F80080994259
:1068180028BF1946012385F8483007462046FFF768
:1068280057FFCDE9017101A90396FEF72FFF034633
:1068380040B9052288F80C20184604B0BDE8F0815C
:106848000023F9E785F84860F6E738B5D36C0446C5
:1068580023B9BDE838400121FFF708BD906C20B985
:106868002046BDE83840FFF776BF92F90D50002D5D
:10687800F6DB096883424FF000058D8781F83E50AA
:1068880038BF93649363936C536338BF02214FF00E
:10689800000338BF82F82C1082F83C3082F854305C
:1068A8002046FFF7A0FF054610B12046FFF753FF2B
:1068B800284638BD2DE9FF470B78076805460E4680
:1068C8000E2B28D8DFE813F018000F002903180052
:1068D80027001D00B40027002700270027002B03EE
:1068E80018005C038E030D22002107F10C0006F04E
:1068F80049FEA84B1B68FB620024204604B0BDE893
:10690800F0874978CA094FEA51133BD013F00303C3
:1069180003D0012B1ED00624EFE701F01F01012947
:10692800F9D1B478062CF6D103A80293FFF7DCFB63
:1069380002AB0093F2783179034607462846FEF702
:1069480015FD0528D9D0029A3946701CFFF776F94B
:106958000446D2E7B378FE2BDDD1B6F80330002B1E
:10696800D9D1B6F80770012FD5D103A8FFF7BCFB22
:106978002B6A013B044603802846FFF7B9FE3A46D6
:106988002146E2E703B3012BC5D1B378FF2BC2D16F
:10699800B6F80330002BBED1B6F80740002CBAD1A8
:1069A800FFF7B2FB01462846FFF792FE0646084667
:1069B80002F050FE304602F04DFE3B7B022B9BD08E
:1069C8002846FFF795FE98E701F01F04022CA2D194
:1069D80096F80280B8F1010F9DD1B6F80330002B6C
:1069E80099D13B7B082B00F003837679304602F07F
:1069F8000BFD304602F0AEFF33067FF57DAF3B7BE3
:106A0800072B09D0092B7FF477AF2846FFF760FEE4
:106A180002F0A0FF214605E02846FFF759FE02F0E4
:106A280099FF4146284604B0BDE8F047FFF71EBC71
:106A380091F902308878002B48DA03A902F0BCFCEF
:106A480008B100230393F378002B7FF455AF3B7B09
:106A5800033B042B38D801A252F823F0796A0F00BF
:106A68008B6A0F0001690F0001690F001F690F0091
:106A7800BB6D039A9B1ABB6500212846FFF7F6FBFE
:106A880066E72B6803981A6C0021904283F8481037
:106A980098BF111A5A6C1964904294BF121A0022B6
:106AA8005A642846FFF794FB2846FFF704FC04467F
:106AB80030B92846FFF77FFC044600283FF41CAF96
:106AC8002846FFF748FE18E7032416E702A902F054
:106AD80073FC08B100230293F278012A0CD13B7BA6
:106AE800052B3FF409AF062B02D0012B7FF404AF2E
:106AF8002846FFF7FDFD2BE7032A02D101233B734C
:106B0800FAE6022A3B7B08D1052B04D10921284645
:106B1800FFF708FEF0E60821F9E7052B00F0BD8134
:106B2800062B3FF4E9AE022B7FF4F5AE2C68282241
:106B3800002104F13C00002606F024FD26632846C7
:106B4800FFF7C6FD03A902F037FC00B10396039BCB
:106B58001F2BE0D11049042204F10D0006F0DFFCE0
:106B680004F10C0701460028D5D1D4F81130A67ECF
:106B7800236304F1150284F8380084F84C60104649
:106B8800FFF7BAFA2B6AA0659E4207D32846FFF79B
:106B9800E2FDDDE6D0D70F00F6D70F00237F2A2BC2
:106BA8005ED8112B08D80A2B3ED91046FFF7A4FA55
:106BB8000028EBD1012160E7123B182BF5D801A181
:106BC80051F823F0696D0F00B36B0F00B36B0F0022
:106BD800816A0F00B36B0F00B36B0F00B36B0F002C
:106BE800B36B0F00E56D0F00816A0F00B36B0F00E8
:106BF800816A0F00BD6B0F00B36B0F00B36B0F0002
:106C0800B36B0F00B36B0F00B36B0F00B36B0F00C8
:106C1800156E0F00B36B0F00B36B0F004B6E0F00B8
:106C2800B36B0F00776E0F000A2BBED801A151F885
:106C380023F000BF976C0F00B36B0F00B36B0F000E
:106C4800AD6C0F00956B0F00B36B0F00B36B0F00AB
:106C5800B36B0F00F16C0F00B36B0F002D6D0F00BD
:106C6800552B3FF409AF5A2B9FD1E37E092B8DD9C1
:106C78001046FFF741FA0428024687D806236166C2
:106C8800A16684F8653084F864100323BBE01046DD
:106C9800FFF732FA00287FF479AFE37E062B3FF442
:106CA800EBAE73E7E37E052B7FF670AF1046FFF778
:106CB80023FA122806463FF669AF00283FF4DCAEF7
:106CC80004F1640712220021384606F05BFCF02329
:106CD80084F864300B2384F86B303246032339463A
:106CE8002846FFF799FA33E6E37E052B7FF64EAF89
:106CF800EB6953F82600FFF704FA637FE28B4068DC
:106D080094F8201020651B0452BA03F4F81392B2C9
:106D180013434143E36561653A4629462846FFF730
:106D28002DFD15E6E37E052B7FF630AFEB6953F8B2
:106D38002600FFF7E6F9637FE28B406894F820109D
:106D480020651B0452BA03F4F81392B2134341436B
:106D5800E36561653A4629462846FFF776FDF7E57B
:106D6800A37F002B7FF412AF1046FFF7C5F9242844
:106D780007463FF60BAF00283FF47EAE9D4A626699
:106D8800202284F86820EA69012152F8260003933A
:106D980003AAFFF7B3F9039E04F16C0004F1740829
:106DA80004F1840986B13168082206F0C9FB7168CC
:106DB8001022404606F0C4FBB1680422484606F09B
:106DC800BFFB03233A461EE0E666102246603146C2
:106DD800404606F0D7FBC4F88460F2E7E37E052B53
:106DE8007FF6D4AE1046FFF787F904283FF6CEAEFB
:106DF8000022032384F8652084F8662084F867203D
:106E080084F86430024604F1640169E7E37E092BE3
:106E18007FF6BCAE1046FFF76FF9082807463FF625
:106E2800B5AE00283FF428AEEB6953F82600FFF70B
:106E380068F90368013B1BBA636643681BBAA3661B
:106E4800BFE7E37E092B7FF6A1AEEB6953F8260076
:106E5800FFF757F9B4F823304168D4F81E202165AC
:106E68005BBA9BB212BA4B43E265636554E7E37EB3
:106E7800092B7FF68BAEEB6953F82600FFF741F933
:106E8800B4F823304168D4F81E2021655BBA9BB260
:106E980012BA4B43E26563655CE7002403A88DF8EA
:106EA8000C40FDF73BFB2B6868691A6C029983F864
:106EB8004840904228BF104681421CBF012083F8F9
:106EC8006100914294BF521A00221A645A6C91428E
:106ED80094BF521A00225A642846FFF722F928461E
:106EE800FFF781FC044620B92846FFF716FA044646
:106EF80010B12846FFF72FFC9DF80C00FDF732FB78
:106F0800FBE4EB69002253F824001146FFF7F6F87A
:106F180001342B6AA342F4D8EEE40024F9E70021F7
:106F2800032000F0DBF8044600283FF4F4AC0378B3
:106F3800192B4FEA53067FF6EEAC0125B542BFF494
:106F4800DBAC34F8150006F0E7FA00283FF4E3ACB0
:106F58000135F3E7EB6953F8260003682A461B68F6
:106F680049469847044630B9B7F8882008FA06F326
:106F78001343A7F8883001362B6AB342EAD8BCE439
:106F88000026DFF8789034464FF00108F4E7EB6903
:106F980053F82680D8F8003040465B6898474FF091
:106FA800FB0A0446112C11D1BAF1010A04D10136A9
:106FB8002B6AB342EBD8A0E44FF47A40C847D8F81C
:106FC800003040465B6898470446EBE7002CEED15A
:106FD800012303FA06F2B7F8883023EA0203A7F878
:106FE8008830E4E7044B0026344643F00109DFE724
:106FF8000F2482E400800612F0D70F0009700F00FA
:107008000B78022B73B50C4603D0032B28D002B0A3
:1070180070BD00230DF107008DF80730FDF77EFAEB
:10702800A56828462E68FFF77CF8637873B9204670
:10703800FFF703F92846FFF73EF958B12846FFF74E
:107048008AFB9DF80700FDF78DFAE0E7012386F833
:107058004930EFE72846FFF7AEF90028F1D0EDE711
:1070680000230DF107008DF80730FDF757FAA568E2
:107078002846FFF7ADF863785BB92046FFF7DDF8DF
:107088002846FFF7B0FB0028D8D12846FFF745F976
:10709800E3E72846FFF75FFBF2E7000010B50E4B69
:1070A80053F8204023780BB9A01C10BD0020FFF72F
:1070B8001BF8013C00235A1CA15C39B9DBB201332F
:1070C8005B00DBB243F440730380EEE7D3B220F8F1
:1070D80013101346EFE700BF40D80F00034608B966
:1070E800FFF7DCBF012807D0022805D0032803D00A
:1070F800042801D0052809D1054800EB4303587836
:1071080020B1044B53F82030002BE9D10020704700
:1071180058D80F0040D80F004FF0805370B5D3F8FF
:10712800A410D3F8A820104B104C196042F4404228
:107138005A600F4A0020154613F8011B01F00F068C
:1071480009110130A65D615CD67308289173A2F11C
:107158000202F1D10749084B0A681A604A685A6066
:10716800EA689A6070BD00BF141701206DD80F003F
:107178003D17012064D80F001C1701200023C0E927
:1071880002328B881A44B1F9063002611A44C0E908
:10719800001142610888003818BF01207047426812
:1071A800118838B50346002937D0148A02F1100136
:1071B80041602CB9C2680168FFF7E0FF204638BD7E
:1071C8009078118900F03005302D14D1947C04F0AA
:1071D8003004302C1BD190881969091A19610021D3
:1071E800908AB2F9162008441969014419611144BA
:1071F80059610120E3E700F0F004202C07D1508901
:107208004143002DECD1986801309860E8E700F020
:10721800C000802808BF0421F3E70846CFE770B50F
:10722800466804460D4663681A88AA4204D19B78CA
:1072380003F00F03082B07D12046FFF7B0FF636860
:10724800B342F0D1002070BD0120FCE743681A4426
:10725800426011B101399A4201D10120704713F8F7
:10726800010B01F8010FF6E770B54568AA7802F03E
:107278000F06082E86B003461FD103691C68002636
:107288000CB906B070BD236862689D6826732946EC
:107298006846FFF773FF6368049304F10C030593D2
:1072A800AB7803F0C003802B08BF231D684608BFD6
:1072B8000493FFF7D9FFA468E2E712F0C00122D1D6
:1072C80002F0300010280CD15A691170072EEC68B2
:1072D80018690BD10146204606B0BDE8704000F0A1
:1072E8001AB89006F2D55B691980CAE72A8921463F
:1072F80024B106B0BDE8704006F037B906B0BDE865
:10730800704006F03FB98029BBD100690021920680
:107318000160B6D5E7E77FB50A4601466846FFF73C
:107328002DFF30B16846FFF79FFF6846FFF737FF2C
:10733800F7E707B05DF804FB836810B504460BB99E
:10734800002010BD0368012298470028F8D0A368E0
:10735800013BA360F5E72DE9F3410F460DF1070165
:107368008046FFF7E9FF054620B90025284602B008
:10737800BDE8F0819DF907309DF80740002B13DA2E
:1073880004F07F0407260DF107014046FFF7D4FFFC
:107398000028EAD09DF8072002F07F03B3401C4381
:1073A800130606F1070601D43C60DFE7232EEAD175
:1073B800DBE7000030B5044685B01546A9B9026878
:1073C800114B9A4211D0102D06D82A4669462046FC
:1073D800FFF7F0FF05B030BD102269462046FFF7E1
:1073E800E9FF0028F6D0103DEDE7A368AB4201D2D3
:1073F8000020EFE723682A46204698470028F7D060
:10740800A268521BA260E5E755720F00F7B50E4659
:1074180001A907461546FFF79EFFA0B1019A511C26
:107428004FF0000404D2B37803F0C003802B01D1DD
:10743800204608E033898B42FAD329463846FFF7BD
:10744800B9FF019BEC5403B0F0BD73B50D4601A91B
:1074580006461446FFF77FFF98B1019AB2F5803FC0
:1074680011D2AB7803F0C003802B02F102010AD0DD
:107478002B898B4207D32146304621F8022BFFF790
:1074880099FF02B070BD0020FBE7000010B5034C67
:1074980082600022C0E90041C26010BD55720F0031
:1074A8002DE9F341002580460E462F462C460DF166
:1074B80007014046FFF740FFC0B19DF807C0A4F19F
:1074C80020030CF07F02C4F1200102FA03F322FA30
:1074D80001F10B43A2401CF0800F45EA020547EA80
:1074E800030704F1070404D1C6E9005702B0BDE858
:1074F800F081462CDBD10020F8E737B50D46694608
:107508001446FFF7CDFF70B12B89082B0DD1DDE9AB
:107518000032C4E90032DDE90001914208BF984217
:107528000CBF0120002003B030BD042B03D1009B09
:1075380023600022EFE7022B03D1009B23809BB23C
:10754800F7E7012B04D1009B237003F0FF03F0E75A
:107558000020E8E737B50D4669461446FFF7A0FF57
:1075680030B12B89082BDDE9001203D1C4E90012E0
:1075780003B030BD042B4FEAE17009D121600B46FE
:107588000246824208BF8B420CBF01200020EFE771
:10759800022B03D10BB22380DA17F2E7012B02D1B9
:1075A8004BB22370F8E70020E2E7F7B51F46002347
:1075B8003B700D460B70136001A904461646FFF791
:1075C800CAFE30B9A36813B901233B70002003B089
:1075D800F0BD019C002CF7D0E30804F007043360E9
:1075E8002C70F4E713B50446052925D8DFE801F027
:1075F800030F17242422012201A92046FFF7DAFEEF
:1076080018B19DF90430002BF5DB02B010BD08223B
:107618000021204602B0BDE81040FFF7CBBE01A90B
:10762800FFF799FE0028F0D0019A00212046FFF7C5
:10763800C1FEEAE70422EBE70020E6E773B50D4652
:1076480001A90446FFF787FE064618B9002630460A
:1076580002B070BD94E80F0085E80F0001998A42D6
:10766800F4D3A960A3685B1AA360F0E72DE9F0439F
:107678005668B37813F0C00489B007468C4615469F
:1076880003D0402C69D000240CE003F00F026049BD
:1076980003F03003202B51F8228025D006D8E3B11F
:1076A800102B17D0204609B0BDE8F083302BF9D154
:1076B8006B6931881980072A09D1214632892869DE
:1076C80005F060FF6B682969D868FFF724FE2A690E
:1076D800696840E06B6901221A702A69314643469D
:1076E80009B0BDE8F0431847BCF1020FD5F8149073
:1076F80024D1042A22D804A9FFF7A0FF04460028B1
:10770800C1D0069B2BB16968B9F800304A899A4202
:1077180005D8059B7B60069B002BC3D0B3E708897F
:107728002A6903FB002204A8C04728B1B9F8003031
:107738000133A9F80030E4E70446EAE7B9F8003075
:1077480072899A429FD931892A69581C03FB012200
:10775800A9F8000031463846C1E7D2F810804646FD
:1077680056F8043B23B909B0BDE8F043FFF73ABF28
:10777800022914D104A9FFF761FF002883D0D8F8A3
:1077880000306968324604A89847044600283FF448
:107798007AAF069B002BF2D1059B7B6082E701291B
:1077A80026D005292CD000297FF46DAF0C460DF1A9
:1077B800040901340B2C3FF466AF012249463846D0
:1077C800FFF7F8FD00283FF45EAF19F9013B002BE5
:1077D800EFDB104B049301ABCDE90534002307938D
:1077E8006968D8F80030324604A89847044659E733
:1077F800082201A9FFF7DEFD08240028E9D142E7A5
:1078080004220DEB0201FFF7D5FD0424F5E700BFC4
:1078180080D80F0055720F002DE9F04F91B0044643
:10782800002604A8CDE90266FFF7A8FCA3683BBBC5
:10783800DDE9053404A89D78FFF7B1FC0028F7D1ED
:1078480015F0300F03D1059B1B8803B10134002CC0
:1078580000F0A980630902A90022934240F09C80AD
:1078680010AA02EB830304F01F0453F8383CC4F158
:1078780020044FF0FF30E040C31A584258410DE051
:107888000DF1030301AA0DF102012046FFF78DFE59
:1078980038B99DF80330002BCAD1002011B0BDE8DB
:1078A800F08F019904A8FFF7BAFC002850D1019B7A
:1078B800B3427DD3059D059A937803F00F03082BF7
:1078C8007FD004A8FFF76BFC059B9D42F3D14FF0D6
:1078D800FF36019FB7426BD3089B9DF802A0D4F8EE
:1078E80008801D684FF00109A368002D5DD09845F8
:1078F8009CD12B68D3F800B0BBF1000F08D05346D9
:107908003A4629462046D8470028C6D0AD68EBE756
:10791800D3F808B0BBF800309F42F7D16A685946DF
:107928000AA8FFF72BFC6B680E9305F10C030F9365
:107938009BF8023003F0C003802B04BF2B1D0E936D
:107948000AAA85F80C9051462046FFF78FFEDBE720
:10795800059B9B7813F0300F0FD1069A3F2A0CD85D
:10796800510910AB03EB810102F01F020123934080
:1079780051F8382C134341F8383CE5682DB19DF88F
:107988000220019904AB2046A8479DF8021004AADA
:107998002046FFF76BFE10E051F8045B01357FF4D9
:1079A8007DAF013259E7012078E798457FF43EAF73
:1079B8009DF802102046FFF715FE00287FF436AF29
:1079C8006BE7168885E737B50C460546114620460D
:1079D8000192FFF7A0FC019A2146284603B0BDE8B2
:1079E8003040FFF719BF70B586B0CE6801920C46DB
:1079F80002A90546FFF722FE68B1E06858B1A378EE
:107A0800019A03F03003202B314602A805D1FFF775
:107A1800DAFF039B6B6006B070BDFFF7FDFEF8E769
:107A280013B50C466946FFF73BFD60B1DDE900136D
:107A38004A0842EAC372C9074FEA530344BFD24314
:107A4800DB43C4E9002302B010BD37B50D466946D3
:107A58001446FFF7E5FF70B12B89082B0DD1DDE93E
:107A68000032C4E90032DDE90001914208BF9842C2
:107A78000CBF0120002003B030BD042B03D1009BB4
:107A88002360DA17EFE7022B03D1BDF9003023801A
:107A9800F7E7012B03D19DF900302370F1E70020AF
:107AA800E9E713B504220C460DEB0201FFF782FC4F
:107AB80008B1019B236002B010BD1146FFF7F1BF6A
:107AC80013B508220C466946FFF774FC18B1DDE9C6
:107AD8000023C4E9002302B010BD1146FFF7F0BF30
:107AE80010B500F1080301F1200251F8044B43F8E6
:107AF800044B9142F9D1283001F1200351F8042BAD
:107B080040F8042B9942F9D1002010BD2DE9F74324
:107B1800DFF86C809946184B036004460E464046D1
:107B280001211746FCF7FAFD0546BFF35F8FF8B948
:107B380000F0E6F80A9ACDF800903B4606F10801F5
:107B4800204604F039FB044600F0E8F8BFF35F8FE5
:107B5800C8F8005044B1094948F2165248F2425355
:107B68008C4214BF14461C46204603B0BDE8F0837F
:107B780048F20454F8E700BFDD55AABB8408F000BA
:107B8800502701200E4B984214D00AD8B8B10D499D
:107B980048F2165248F20153884214BF104618465C
:107BA8007047094B984208D0084948F2165248F2E3
:107BB8000353F1E748F20350704748F20250704708
:107BC8000102F0000002F0000202F0000F02F000D3
:107BD80008B5083004F05AFBBDE80840FFF7D2BFEB
:107BE80013681F2B2DE9F34106460F46144620D98A
:107BF800DFF84C8001214046FCF790FD0546BFF3B5
:107C08005F8FC8B900F07CF8394606F1080004F027
:107C1800A9FB019000F082F8BFF35F8F0198C8F8C4
:107C28000050FFF7AFFF08B92023236002B0BDE87A
:107C3800F08148F21450F9E748F20450F6E700BF23
:107C4800502701202DE9F04105460E46194801212B
:107C58001446FCF763FDBFF35F8F38BB00F050F8A4
:107C6800DFF854800835B4F5805F274628BF4FF405
:107C7800805731463A46404605F077FC3A46414639
:107C8800284604F01DFBE41B3E4468B9002CEAD1E9
:107C980000F044F8BFF35F8F064B00222046BDE892
:107CA800F0411A60FFF76EBF0446F1E748F204504E
:107CB800BDE8F0815027012050170120024B002019
:107CC800C3F80005704700BF00A0025038B50A4B42
:107CD80000251D60BFF35F8F084C0123C4F80035F1
:107CE80004F070FBC4F8005520B1052848F2035091
:107CF80018BF032038BD00BF5027012000A0025044
:107D0800044B0122C3F80025034B4FF480625A60EC
:107D1800704700BF00A0025000E100E0064B0022BF
:107D2800C3F80025054B4FF48062C3F88420BFF3E5
:107D38004F8FBFF36F8F704700A0025000E100E043
:107D480010DF704711DF704713B5044609496846CC
:107D5800FCF7C4FF019808B902B010BDD0E90021B2
:107D68002046904718B16846FCF7C2FFF2E7112099
:107D7800F2E700BFCCD80F0013B5044607496846A0
:107D8800FCF7ACFF019B0BB902B010BD2046D3E94C
:107D9800002190476846FCF7ABFFF3E7E4D80F00F3
:107DA800084B9A6822B11A6822F480021A60704758
:107DB800054B4FF48002C3F88020BFF34F8FBFF309
:107DC8006F8F70478800012000E100E00B4991F8AF
:107DD80016335A09EC231341DB0706D5084B9A687A
:107DE8003AB94FF480030B60704742F2020001F089
:107DF800F3BE1A6842F480021A60704700E100E09E
:107E080088000120F7B5194F3C7864BB184E01254E
:107E180020463570FFF798FF112821D02046FFF73C
:107E2800ABFF144B8DF80340186801900DF1030067
:107E3800FCF774FB104901A8FFF782FF0446B0FA6B
:107E480080F0400938709DF80300FCF78BFB3CB9C3
:107E58000A4B34701C70FFF7B9FF2846FFF78CFFF8
:107E6800204603B0F0BD0824FAE700BF55270120DB
:107E780054270120C8D80F00DB9B0F00562701208C
:107E8800F7B5154F3B781BB3144E01203070FFF740
:107E98005BFF11284FF000051CD00220FFF76CFF94
:107EA8000DF107008DF80750FCF738FBFFF74AFF84
:107EB80004469DF807003D70FCF754FB2CB90320DD
:107EC8003470FFF76DFFFFF757FF204603B0F0BD92
:107ED8000824FAE72C46F8E7552701205427012003
:107EE800054B1B7833B1054B1B780BB1FFF7C8BFA7
:107EF800FFF788BF08207047542701205527012025
:107F0800014B1878704700BF5527012007B508496D
:107F18006846FCF7E3FE019B13B903B05DF804FB68
:107F2800D3E9002090476846FCF7E2FEF3E700BF7C
:107F3800D8D80F00FFF7EABF60DF704769DF7047E6
:107F480061DF704730B5134DADF5017D4FF4FA741C
:107F58000DF1020103A8ADF80240FFF7F1FF70B977
:107F6800294601A8FCF7BAFE029B002BF0D003A813
:107F7800D3E90021904701A8FCF7BAFEF4E70528E9
:107F880005D00DF5017DBDE8304001F025BE0DF5A9
:107F9800017D30BDF0D80F00024B1B780BB1FFF705
:107FA800D1BF70475727012018B1034B0360002049
:107FB80070470E20704700BF00000120F0B507464B
:107FC80085B00D46002947D00024244A0A60CDE92F
:107FD8000144012606238DF8040001A92020ADF8EC
:107FE800083003948DF80660FFF7A8FF2A68039409
:107FF80001A94020CDE901448DF80560FFF79EFFF7
:10800800F7232A68039401A92320CDE90144ADF898
:1080180006308DF80470FFF791FF2A68039401A9D0
:108028003046CDE901448DF80460FFF787FF4FF42F
:10803800B0632A68019301A9A120CDE90244FFF7A2
:108048007DFF2A68039401A9A020CDE90144FFF728
:1080580075FF204605B0F0BD0E20FBE700000120AB
:1080680008B5FFF769FF10B9014B01221A7008BD66
:10807800572701204BDF70471FB50E4C01A8FFF7AB
:10808800F9FF70B9214602A8FCF728FE039B002BD4
:10809800F4D00198D3E90021904702A8FCF728FE04
:1080A800F4E7052804D004B0BDE8104001F094BD01
:1080B80004B010BDFCD80F00024AD2F80034002BDF
:1080C800FBD0704700E001400A4908B50223C1F817
:1080D8000435BFF36F8FBFF34F8FC1F80805FFF763
:1080E800EBFF0023C1F80435BFF36F8FBFF34F8F49
:1080F80008BD00BF00E0014010B5094C0123C4F8D9
:108108000435BFF36F8FBFF34F8F0160FFF7D4FFC4
:108118000023C4F80435BFF36F8FBFF34F8F10BD32
:1081280000E0014070B50E4E01231546C6F804352F
:10813800BFF36F8FBFF34F8F0024AC4207D10023EA
:10814800C6F80435BFF36F8FBFF34F8F70BD51F87A
:10815800243040F82430FFF7AFFF0134EDE700BFCB
:1081680000E0014010B5034653E8000F00EA0102A1
:1081780043E8002494F0000FF6D110BD42DF7047A9
:1081880043DF704738B5074C051E04F1080318BFD4
:108198001C4623682BB11A6822605B6828469847FA
:1081A800F7E738BD6027012020B9054B01225A7036
:1081B800FFF7E8BF012802D1014A9070F8E770473D
:1081C8005827012020B9034B01225A70FFF7DABF64
:1081D800704700BF5827012038B50E4C2378B3B933
:1081E8000D486360A3602361E36000F08FF90546E2
:1081F800FFF786FE08B900F095F901232370074BB5
:10820800D3F800340BB10123A370284638BD852567
:10821800F5E700BF58270120B1810F000000014099
:1082280037B5184CA378054603F0FF029BB110B18F
:1082380043680120984700230DF107008DF80730A7
:10824800FCF76CF9E3689DF807000133E360FCF77D
:1082580089F903B030BD0DF107008DF80720FCF750
:108268005DF925B1226913463BB92A602561E368A7
:10827800002BE7D100F06CF9E4E79D42F7D01B68CA
:10828800F2E700BF5827012037B50D4C00230DF148
:1082980007008DF80730FCF741F9E368013BE3601C
:1082A800E36833B9074BD3F8005415B900F05DF90A
:1082B800A5709DF80700FCF755F903B030BD00BF65
:1082C8005827012000000140012813B50CD00328CD
:1082D80020D038B9134B0122C3F88020BFF34F8F49
:1082E800BFF36F8F02B010BD0F4C00230DF10700D4
:1082F8008DF80730FCF712F923780BB9FFF76CFFFC
:10830800E3689DF807000133E3600123A370FCF7DD
:1083180029F9E7E700F006F902B0BDE81040FFF7D9
:10832800B3BF00BF00E100E05827012037B51B4C60
:108338006378054603F0FF029BB110B14368002043
:10834800984700230DF107008DF80730FCF7E6F891
:1083580063689DF8070001336360FCF703F903B015
:1083680030BD0DF107008DF80720FCF7D7F825B1CF
:10837800A268134653B92A60A5606368002BE7D149
:10838800FFF7BEFD30B1FFF7F9FEE1E79D42F4D0FB
:108398001B68EFE700F0FAF8DAE700BF582701207A
:1083A80073B50F4C00230DF107008DF80730FCF76B
:1083B800B5F86368013B6360666836B9FFF7A0FDEE
:1083C800054640B1FFF7DCFE66709DF80700FCF734
:1083D800C9F802B070BD00F0E5F86570F5E700BFB8
:1083E8005827012036DF70474DDF70474EDF704752
:1083F8004FDF704710B50446FFF7F8FF40B9204635
:10840800FFF7F2FF20B92046BDE81040FFF7F0BFA4
:1084180010BD012810B5044602D100F013F98047B9
:1084280000F016F9034668B10A2C07D00B2C07D0C8
:10843800092C07D10220BDE8104018470020FAE7B0
:108448000120F8E710BD0000012813B5044603D049
:1084580003281CD002B010BD00230DF107008DF8D1
:108468000730FCF75BF800F0EDF810B12046FFF795
:10847800B9FF9DF80700FCF775F800F0E9F8002847
:10848800E8D0012002B0BDE81040FFF7B3BF0C4BA5
:10849800C02283F8002301221A6000F0D3F820B12B
:1084A8004FF080430422C3F8042300F0D1F80028D9
:1084B800D0D04FF080434FF46072C3F80423C9E76B
:1084C80000E100E038B50A4D2B78044663B9FFF7A0
:1084D80017FD58B90748002C18BF204600F0BEF811
:1084E80008B901232B7038BD8520FCE70820FAE77E
:1084F8006C27012008D90F0000F18040002382B0CA
:10850800036003680193019B02B07047044A137922
:1085180023B9012110609180184670478520704763
:1085280070270120084B1A68D20704D4C02283F8A8
:10853800002301221A604FF080420123C2F8183547
:10854800024A1370704700BF00E100E0782701205D
:1085580008B54FF48270FFF7CFFF4FF08043022237
:10856800C3F8042301229A6008BD4FF0804208B581
:108578000223C2F808334FF48270FFF7BDFF0123CE
:10858800D360D2F81834DB03FBD408BD08B54FF428
:108598008070FFF7B1FF4FF080430122C3F8042336
:1085A8001A6008BD4FF08042012108B54FF4807071
:1085B800C2F80813FFF7A0FF5160D2F80C3403F09B
:1085C8000113B3F1011FF8D0014B00225A7108BD05
:1085D800702701204FF0804110B5D1F8003163B108
:1085E8004FF48070FFF788FF0D4B58790122C1F8CE
:1085F800082310B95A711B6898474FF08042D2F887
:10860800043163B14FF48270FFF776FF0223C2F89A
:108618000833034BBDE810401B680120184710BD04
:108628007027012000F1804382B01A68002A14BF25
:108638000120002004D000221A601B680193019BCE
:1086480002B07047014B1868704700BF7C270120B3
:10865800014B1868704700BF842701200E4A137821
:10866800C3B903784FF08041C3F34003C1F88035A4
:10867800037803F00103C1F87835084B1968C90776
:1086880004D4C02183F80013012119600123137059
:1086980000207047852070478827012000E100E00E
:1086A8004FF0804310B5D3F80443620707D54FF461
:1086B8008470FFF7B7FF10B11E4B1B689847A306DD
:1086C80008D54FF48A70FFF7ADFF18B11A4B002098
:1086D8001B689847600608D54FF48C70FFF7A2FF17
:1086E80018B1154B01201B689847210608D54FF48F
:1086F8008E70FFF797FF18B1104B00201B68984742
:10870800E20508D54FF49070FFF78CFF18B10B4BBA
:1087180001201B689847A3050AD54FF49270FFF70C
:1087280081FF28B1054BBDE810401B68022018479F
:1087380010BD00BF7C27012080270120842701204D
:1087480008B5FFF7ADFFBDE80840FFF743BF0000DD
:10875800020713D400F00F0310F0800F084A0BBF74
:1087680003F5887303F5847302EB830352F823003F
:1087780008BF5868431E5842584170470020704748
:108788000070024010F0080F074B06D0D3F8C00461
:1087980010F4803F18BF0020704700F00F0000F56C
:1087A800947053F820007047007002404FF08053D7
:1087B800D3F83001A0F1080358425841704700002F
:1087C8004FF08053D3F83021082A06D1D3F834313A
:1087D800052B04D8034AD05C70470020704701205D
:1087E800704700BF09D90F0030B54C680D689C422E
:1087F80029BFC0E900530021E41AED1832BFC0E9CF
:1088080000514C600D60934203D1201E18BF012017
:1088180030BD0020FCE74B6810B59A420C6828BFB1
:108828001A46C0E90042981A0B6848601A44003892
:108838000A6018BF012010BD30B54C680B68A24211
:1088480028BF2246002A14BF1D460025C0E9005251
:10885800A4EB02041A444C600A6014BF01200020F3
:1088680030BD0000054B10F0800FA3F1900208BF47
:10887800134600F00F0003EB00107047FC2801209E
:1088880010F0800F14BF0023102300F00F001844CD
:108898007047000008B5FFF789FF18B1034B0022A5
:1088A800C3F81C2C024B00221A7008BD007002404D
:1088B8008A27012007B5094A00231370084AADF832
:1088C800053013708DF8073001238DF80430054BFF
:1088D80001A81B68984703B05DF804FB89270120AD
:1088E800902901208C290120704700004B68934291
:1088F80028BF134670B51D46094B0C4606462A4646
:108908000968184604F031FEC6E900056068226867
:10891800401B60602A440038226018BF012070BDE7
:10892800942901204B68934228BF134670B5064628
:108938000D461C468BB10A4B09682246184604F0BE
:1089480014FE30606B6874601B1B6B602B68201E04
:1089580023442B6018BF012070BD0360F2E700BFFD
:108968009429012007B500230DF107008DF8073081
:10897800FBF7D4FD0B4BD3F8001C032271B949F265
:108988007531C3F8001CC3F8142DC3F8001C9DF8FA
:108998000700FBF7E7FD03B05DF804FBC3F8142DEF
:1089A800F5E700BF00E0064013B500240DF107000D
:1089B8008DF80740FBF7B2FD0A4BD3F8001C69B9E4
:1089C80049F27532C3F8002CC3F8141DC3F8002C03
:1089D8009DF80700FBF7C6FD02B010BDC3F8144DA3
:1089E800F6E700BF00E0064008B50146FFF752FF72
:1089F8000846FFF737FF827B032A0AD10846FFF7AC
:108A08003FFF01218140BDE808400448C943FFF702
:108A1800A9BB0368002BF1D008BD00BFF8270120CF
:108A28008720FFF7E1BF8620FFF7DEBF8520FFF72D
:108A3800DBBF8420FFF7D8BF8320FFF7D5BF822094
:108A4800FFF7D2BF8120FFF7CFBF000008B5FFF7BF
:108A580021FF084B93F89E20032A06D1BDE8084061
:108A680005486FF00101FFF77DBBD3F89030002B6C
:108A7800F4D008BD6C280120F8270120012273B525
:108A880002FA01F51E491F4E0B6810F0800F43EAE9
:108A9800050304460B6027D000F00F021A4B33F889
:108AA800123003F1804303F51C331A684AB10022DF
:108AB8001A60BFF36F8FBFF34F8F802811D0FFF775
:108AC80093FF316829400AD106238DF804308DF8C8
:108AD80006408DF807100D4B01A81B68984702B097
:108AE80070BDFFF7B3FFECE733681D42F7D10623EB
:108AF8008DF804308DF806008DF80720EBE700BFED
:108B080068280120F827012018D90F008C29012096
:108B180008B5054B1A781046FFF7B2FEBDE80840C5
:108B280001461046FFF7AABF90290120FFF78EBF24
:108B380007B500238DF804300B4BD3F82025ADF88A
:108B48000620D3F8C034094A002B13680CBF4FF431
:108B580080714FF001210B431360054B01A81B687E
:108B6800984703B05DF804FB0070024068280120B4
:108B78008C29012007B5FFF78DFE0D4B93F88E2049
:108B8800032A11D0D3F8803073B90A486FF0807186
:108B9800FFF7E8FA06238DF804300823ADF806300D
:108BA800054B01A81B68984703B05DF804FB00BF9C
:108BB8006C280120F82701208C29012007B5FFF730
:108BC80069FE114B93F81E21032A07D10F486FF451
:108BD800807103B05DF804EBFFF7C4BAD3F8103125
:108BE80073B90A486FF48071FFF7BCFA06238DF851
:108BF80004308823ADF80630054B01A81B68984758
:108C080003B05DF804FB00BF6C280120F8270120A1
:108C18008C2901202DE9F04F5D4E337885B0002B6B
:108C28006DD15C4C5C4B19682368194067D011F012
:108C3800012367D093FAA3F1002966D0B1FA81F134
:108C48000F2964D9A1F110085FFA88F84046FFF7A8
:108C580009FE4FF0010B4FFA88FA0BFA01F1BAF14D
:108C6800000F81466FEA010B54DA03688289416874
:108C780002A8984708B9C9F80000FFF797FD18B18E
:108C8800464B8222C3F81C2C01232168039A3370B7
:108C9800D9F8083001EA0B011344BAF1000F21603A
:108CA800C9F8083008F0080002993C4B08F00F0892
:108CB8005EDA002854D0C3F8A016C3F8A42604230B
:108CC80003EB880303F1804303F51C3301221A6088
:108CD800BFF36F8FBFF34F8F314B324A2F4913EADF
:108CE8002A0338BF134633F8183003F1804303F5DD
:108CF8001C331A681AB9D1F80021002AF9D005B036
:108D0800BDE8F08F91FAA1F196E720219AE741F0AA
:108D180080089BE74046FFF735FDB9F80C20D9F8E5
:108D28000410D9F800500346074602A8A847029A3B
:108D3800002A9FD0039A97429CD9022789F80E707F
:108D480059461548FFF70EFA06238DF80430164BDE
:108D58008DF806801B688DF8077001A8984761E7B1
:108D6800142000FB0833C3F80016C3F80426A6E74E
:108D780028B1C3F8A017C3F8A4272823A0E7142014
:108D880000FB0833C3F80017C3F80427F5E700BF52
:108D98008A27012068280120F82701200070024056
:108DA80018D90F0034D90F008C29012037B5044693
:108DB800FFF770FD2046FFF755FD837B032B0DD190
:108DC8002046FFF75DFD01218140C9430F48FFF7A9
:108DD800C9F903B0BDE83040FFF71CBF0568002D96
:108DE800F7D12046FFF74CFD01218140C9430748D0
:108DF800FFF7B8F906238DF80430054B8DF80640C7
:108E08001B688DF8075001A89847E2E7F82701206A
:108E18008C2901200720FFF7C9BF0620FFF7C6BF2E
:108E28000520FFF7C3BF0420FFF7C0BF0320FFF7EB
:108E3800BDBF0220FFF7BABF0120FFF7B7BF000090
:108E480038B5134BD3F86C44C3F86C44BFF36F8F39
:108E5800BFF34F8F01251CB9BDE83840FFF7DABED4
:108E680094FAA4F171B1B1FA81F30F2B19460BDD15
:108E7800A1F11000C0B205FA01F324EA0304FFF7D8
:108E8800FDFDE8E72021F3E743F08000F3E700BFAA
:108E980000700240254B13B5D3F80044C3F80044D2
:108EA800BFF36F8FBFF34F8FBFF36F8FBFF34F8F3A
:108EB800E1050ED51E4B01221A700023ADF80530CE
:108EC8008DF8073002238DF804301A4B01A81B686F
:108ED8009847A2050DD5164A00231370ADF8053042
:108EE8008DF8073003238DF80430124B01A81B6856
:108EF8009847630518D50E4A1378ABB10023137051
:108F08000A4A0121C2F808159165BFF36F8FBFF3B4
:108F18004F8FADF805308DF8073004238DF80430F5
:108F2800044B01A81B68984702B010BD00700240AE
:108F3800892701208C290120024A00231360024A54
:108F4800137070478C2901208B2701204A4B4FF45E
:108F5800006213B5C3F80024BFF36F8FBFF34F8FC0
:108F6800FFF72EFC08B1FFF7FDFCFFF71FFCC0B1AF
:108F780000230DF107008DF80730FBF7CFFA3F4BC0
:108F8800D3F8001CC02200296ED149F27531C3F80C
:108F9800001CC3F8142CC3F8001C9DF80700FBF74D
:108FA800E1FA354B0122C3F80025BFF36F8FBFF3F9
:108FB8004F8FD3F800241205FBD54FF40062C3F895
:108FC8000024BFF36F8FBFF34F8FFFF7EFFBB8B1EC
:108FD80000240DF107008DF80740FBF79FFA274B97
:108FE800D3F8001C002942D149F27532C3F8002C8D
:108FF800C3F8141CC3F8002C9DF80700FBF7B2FA5D
:10900800FFF7DEFB30B1FFF7CFFCFFF7D9FB08B164
:10901800FFF7A8FCFFF7CAFB174B50B140F2E37209
:10902800C3F800284022C3F80428BFF36F8FBFF3AA
:109038004F8F00218022C3F81C25C3F83015104B30
:1090480040F2FF121A600F4B1960FFF723FC0E4B1A
:1090580019700E4B02221A70FFF7B2FB50B102B022
:10906800BDE81040FFF7A0BCC3F8142C95E7C3F87F
:10907800144CC1E702B010BD0070024000E0064089
:1090880068280120F8270120902901208B2701203A
:109098000C4B00221A700C4A0C4B002818BF1346C0
:1090A8000B4AC2F804330B4BC02183F827138021E5
:1090B80059600123C2F80435BFF36F8FBFF34F8F98
:1090C800704700BF892701200714E0010714C00179
:1090D8000070024000E100E037B500250DF10700FF
:1090E8008DF80750FBF71AFA134B1B7803F0FF04AF
:1090F800B3B1124AD2F82C35E3B1C2F82C55FFF7B8
:1091080055FB68B10E4BD3F8001CC02279B949F25F
:109118007531C3F8001CC3F8142CC3F8001C0446AE
:109128009DF80700FBF71EFA204603B030BDC3F8D0
:10913800142CF4E71C46F3E789270120007002404D
:1091480000E00640024B034AC3F80823704700BFFB
:109158000070024004148001024B034AC3F8042340
:10916800704700BF0070024004148001014B0022C8
:109178001A7070478927012008B5FFF773FB8181B2
:1091880008BD000073B51D4B1C78002C33D11C4A58
:10919800106001221A702546264615F0080F65F062
:1091A8007F00C0B20CBF40214FF400710190FFF75F
:1091B800E3FF0198FFF756FB0135092D867306601A
:1091C8008660EAD1402100252046FFF7D5FF2046DA
:1091D800FFF748FB0134E4B2092C8573056085600C
:1091E80002D1002002B070BD14F0080F14BF4FF474
:1091F80000714021E8E70820F4E700BF8B27012031
:109208008C29012008B5FFF72DFB808908BD0000D7
:10921800064A10F0800F00F00F0314BFD2F81005B3
:10922800D2F81405D84000F00100704700700240E1
:109238002DE9F347002380460DF107008A468DF893
:109248000730FBF76BF918F00F0503D12A4B1B7891
:1092580043454CD1294B2A4F1C683E684046FFF7CE
:109268000FFBE443A4B24FF00109344309FA00F9B3
:1092780014EA09043DD14046FFF7F4FA0C2218F02D
:10928800800F034602FB05F52DD01E4ADAF80010C0
:10929800154401F06041DAF80820B1F1005F02F0EE
:1092A80001021BD1C2B9184A1A609AE8070085E87A
:1092B800070000229A609A735D60144B46EA09061B
:1092C80080223E60C3F804219DF80700FBF74AF9A5
:1092D800204602B0BDE8F0870D4AE5E70AB90D4A15
:1092E800E2E70D4AE0E70D4A15440D4ADCE7102491
:1092F800EAE71124E8E700BF902901206828012047
:10930800F8270120FC2701201F880F0000E100E05A
:1093180041880F00F5880F002D890F008C27012048
:10932800F1870F002DE9F341002307460DF10700EF
:109338008DF807300E46FBF7F1F83B0703D1184BC1
:109348001B78BB4227D1174B17491C680D68384654
:10935800FFF796FAE443A4B201232C4303FA00F87A
:1093680014EA080419D13846FFF77CFA3368036019
:10937800736843600D4B846045EA08058022847356
:109388000D60C3F804219DF80700FBF7EBF82046B1
:1093980002B0BDE8F0811024F5E71124F3E700BF1F
:1093A8009029012068280120F827012000E100E029
:1093B800004870479429012037B5FFF753FA04464F
:1093C80000230D460DF107008DF80730FBF7A6F8CE
:1093D800A3682B6023683BB9A47B9DF80700FBF7C3
:1093E800C1F8204603B030BD0424F6E7044B40F42E
:1093F8008070C3F81805BFF36F8FBFF34F8F7047A6
:1094080000700240FFF7A4B9064BC3F80C05BFF380
:109418004F8F40F48070C3F80C05BFF36F8FBFF314
:109428004F8F7047007002400023036043600E4B6B
:10943800D3F880240270D3F884244270D3F88824A7
:10944800D3F88C1442EA01224280D3F89024D3F84E
:10945800941442EA01228280D3F89824D3F89C34E9
:1094680042EA0323C380704700700240034B012285
:10947800DA64BFF36F8FBFF34F8F704700700240FD
:1094880013B5FFF707FA114B9A7B032A07D1104847
:109498006FF4803102B0BDE81040FEF763BE1C686F
:1094A8007CB96FF480310A48FEF75CFE06238DF81C
:1094B8000430084BADF806401B6801A8984702B075
:1094C80010BD02B0BDE81040FFF7D0BF6C280120E6
:1094D800F82701208C290120034B01221A65BFF3CC
:1094E8006F8FBFF34F8F704700700240034B01220C
:1094F8005A65BFF36F8FBFF34F8F704700700240FC
:10950800014B1878704700BF9029012013B500233C
:1095180004460DF107008DF80730FAF7FFFF2046E3
:10952800FFF7AEF90D4901220B6802FA00F023EAB1
:10953800000314F008020B600AD104F00F04084B72
:1095480004F5947443F82420BFF36F8FBFF34F8F53
:109558009DF80700FBF706F802B010BD6828012047
:1095680000700240F7B5002304460DF103008DF8A2
:109578000330FAF7D3FF2046FFF774F90546204673
:10958800FFF77EF9012214F0800F02FA00F22D484D
:1095980018D1036832EA03010AD02046FFF7B6FF64
:1095A8000323AB739DF80300FAF7DCFF03B0F0BDAB
:1095B80023EA020329600360234B186820EA0200AB
:1095C8001860EDE7230715D4802C204B2ED004F02B
:1095D8000F0101F2DA314900C3F80018D3F8041872
:1095E800D3F80468C9B241F002013143C3F8041842
:1095F800D3F80438144E0168336861EA0307174248
:10960800D0D0134321EA02013360002301602B60AC
:109618000323AB738DF807300D4B8DF806400622F7
:109628001B688DF8042001A89847BBE740F2B47185
:10963800C3F80018D3F80418D3F80468C9B241F085
:109648000401D2E7F82701206828012000700240B1
:109658008C290120FFF786BF73B5184B184CD3F837
:1096680080542368174EDA43174B31781B6892B23F
:1096780008461A43FFF704F9012303FA00F01042E1
:1096880002D00846FFF76EFF6FF0011105F0800564
:109698000D483570FEF766FD236843F0010323602B
:1096A8000023ADF805308DF8073005238DF8043018
:1096B800064B01A81B68984702B070BD00700240B5
:1096C8006828012090290120F82701208C290120F1
:1096D8001C4BD3F8041300232DE9F04101241D4647
:1096E80071B9194F03F4000623F400044FF0010880
:1096F800D4B9FFF78FFA1EB3BDE8F041FFF7ACBF4E
:1097080091FAA1F21148B2FA82F29600304404FAB2
:1097180002F206682EB10560BFF36F8FBFF34F8F5B
:10972800134321EA0201DBE794FAA4F5B5FA85F5BB
:1097380057F8253008FA05F5984724EA0504D7E7CD
:10974800BDE8F0810070024048D90F000071024066
:10975800F8B5134E134B34681B68240C24041C43BF
:1097680001271CB940F2FF133360F8BD94FAA4F541
:1097780085B1B5FA85F30F2B1D460DDDA5F1100057
:10978800C0B2030701D4FFF7EDFE07FA05F524EA96
:109798000504E6E72025F1E743F08000F1E700BF84
:1097A80068280120F827012038B50E4C8025C4F818
:1097B800845163681B0613D5FFF7CAFF0A4B0022C2
:1097C800C3F80425BFF36F8FBFF34F8FC4F88450DD
:1097D800BFF34F8FBFF36F8F4FF0FF32C3F80823EB
:1097E80038BD00BF00E100E00070024013B500235F
:1097F8000DF107008DF80730FAF790FE0F4B1B7834
:1098080003F0FF043BB900249DF80700FAF7AAFE0D
:10981800204602B010BDFFF79BFF094AD2F800347A
:1098280013F40073EFD10121C2F82C15D2F80014FB
:10983800890544BFC2F82C351C46E5E78927012075
:109848000070024010B50446FFF78CFE134A04F07E
:109858000F0064B2002C4FF00103B4BFD2F810150A
:10986800D2F8141503FA00F36FEA0303B5BF0B40EF
:109878000B40C2F81035C2F81435BFF36F8FBFF331
:109888004F8F074A074B13EA240338BF13461A5C65
:1098980001239340014AC2F8083310BD007002400A
:1098A8002AD90F000FD90F0037B5264A264B45B2E3
:1098B800002DA8BF134600F00F010446585C234A48
:1098C8004FF0010303FA00F0C2F804032EDAD2F8CD
:1098D8001005C840C00727D4D2F810058B400343B1
:1098E800C2F81035BFF36F8FBFF34F8FE1B1002D72
:1098F8001ADB14F0080317D10DF107008DF80730B3
:10990800FAF70CFE2046FFF701FE2046FEF7B8FFE7
:109918000F4901220B6802FA00F023EA00039DF8C0
:1099280007000B60FAF71EFE03B030BDD2F814052D
:10993800C840C007F8D4D2F814058B400343C2F8D6
:109948001435CFE72AD90F000FD90F000070024055
:10995800F8270120030610B5044605D4FEF7F8FEE3
:1099680010B12046FFF7D2FD034BC3F81845BFF3EB
:109978006F8FBFF34F8F10BD0070024028B139B10F
:109988000023C1E900301846704748F2105070476C
:1099980048F21350704730B1036848F240508B4288
:1099A80008BF0020704748F21050704728B148F2AD
:1099B8001150914208BF0020704748F2105070477C
:1099C80070B506460C461D46FFF7D8FF50B9B37967
:1099D8004AB1AB420AD111462046FEF781F808B9D0
:1099E800044B236070BD48F21050FBE748F2115059
:1099F800F8E700BF7052464D2DE9F0470C46054682
:109A080011492046DDE9088916461F46FFF7C3FFBE
:109A1800A8B963685A79494652004046FFF7C6FF1D
:109A280068B956B16DB1CDF820803B463246214623
:109A38002846BDE8F047FEF769B848F21050BDE87F
:109A4800F08748F21550FAE77052464D10B50446B3
:109A580038B149B10B684160984708B9044B236095
:109A680010BD48F20150FBE748F21050F8E700BF7C
:109A78006E524648F0B4134648B10768094EB742DB
:109A88000AD161B12AB14368F0BC5B68184748F253
:109A980001531846F0BC704748F20253F9E748F200
:109AA8001053F6E76E524648F0B460B107680C4EA2
:109AB800B7420CD171B143681568DC68A5420CD374
:109AC800F0BC9B68184748F20150F0BC704748F258
