:020000022000DC
:10700000000004205D730200B9730200BB7302002C
:10701000BD730200BF730200C173020000000000D4
:10702000000000000000000000000000C373020028
:10703000C573020000000000C7730200C97302009C
:1070400025520300CB73020025DC0200E910030087
:1070500001110300CB7302001DDB020009150300C0
:1070600069FA020081FA020099FA0200CB73020069
:10707000CB7302009DDF0200CB730200CB730200D2
:1070800005FE020075E60200CB730200CB7302001E
:10709000CB730200CB730200CB730200CB730200F0
:1070A000CB730200CB730200B1FA0200C9FA0200EE
:1070B000CB730200CB730200000000000000000050
:1070C000CB730200CB730200CB730200CB730200C0
:1070D00089E60200CB730200CB730200A1410300DA
:1070E00095FD0200CB730200CB730200000000008C
:1070F00000000000CB73020000000000DDF202007F
:10710000000000000000000000000000000000007F
:10711000000000000000000000000000000000006F
:10712000000000000000000000000000000000005F
:10713000000000000000000000000000000000004F
:10714000000000000000000000000000000000003F
:10715000000000000000000000000000000000002F
:10716000000000000000000000000000000000001F
:10717000000000000000000000000000000000000F
:1071800000000000000000000000000000000000FF
:1071900000000000000000000000000000000000EF
:1071A00000000000000000000000000000000000DF
:1071B00000000000000000000000000000000000CF
:1071C00000000000000000000000000000000000BF
:1071D00000000000000000000000000000000000AF
:1071E000000000000000000000000000000000009F
:1071F000000000000000000000000000000000008F
:10720000354936480A1A02D0072291438D4634493F
:1072100034480A1A06D00722914381F309880222D2
:1072200082F3148830483149314A00F044F831483B
:107230003149324A00F03FF831483249324A00F0D1
:107240003AF832483249334A00F035F83248334987
:10725000334A00F030F833483349344A00F02BF811
:1072600033483449344A00F026F83448344900227F
:1072700000F02CF833483449002200F027F8334856
:107280003349091A082902DB002202604160314AB1
:1072900090471F481F49884205D00268043003B454
:1072A000904703BCF7E700208646EC46002000210B
:1072B000294A9047FEE7884207D0521A05D0037842
:1072C00001300B700131013AF9D17047884202D088
:1072D00002700130FAE770470000042000E003204C
:1072E000000004200000042018C006001400012043
:1072F00044050120D0730200D0730200A4280600C8
:1073000018C006001400012014000120CC2806003B
:10731000CC280600CC280600CC280600CC28060085
:10732000CC280600CC280600CC28060018C0060091
:1073300048C50600440501204405012044050120FC
:1073400000380120003801200438012004380120D1
:1073500004580120857302003552030000F036B84E
:107360000F484FF00701884385460E4880470E4876
:10737000016841F470010160BFF34F8FBFF36F8F5D
:10738000FFF73EBF09480A490A4A884207D0521A05
:1073900005D0037801300B700131013AF9D1704703
:1073A00000000420C177030088ED00E0B828060043
:1073B0000000012014000120FEE7FEE7FEE7FEE7E3
:1073C000FEE7FEE7FEE7FEE7FEE7FEE7FFF7C8BFE2
:1073D00000487047F83701203BF092B986B003901F
:1073E0000291019201238DF817309DF81730204A41
:1073F000039B13601E4A029B53601D4A019B9360CE
:10740000039B44F20102934212D0039B44F2020216
:10741000934220D1019B164AD360154BDB681B6851
:10742000134A9361124BDB685B68114AD36112E027
:10743000019B0F4A13610E4B1B699B680C4A5361F9
:107440000B4B1B691B680A4A9361094B1B695B68FC
:10745000074AD36100BF72B600BF00BF9DF8173066
:10746000DBB2002BFAD162B600BF00BF06B0704796
:107470004405012000B583B002900091019244F2CE
:10748000010071466A4600F003F803B000BD00BF7A
:1074900000B587B003900291019272B600BF039BC2
:1074A00044F20102934207D0039B44F2020293424A
:1074B00005D1019B059303E0019B049300E000BF0D
:1074C000074B1B6803F00103002B00D000BE019A9C
:1074D00002990398FFF782FF00BF07B05DF804FB35
:1074E000F0ED00E082B003468DF807309DF90730DB
:1074F000002B09DB0B4A9DF90730134493F8003346
:10750000DBB25B09DBB20AE0074A9DF8073003F003
:107510000F03043B13441B7EDBB25B09DBB218464E
:1075200002B0704700E100E000ED00E072B600BF7D
:10753000034B1B680133024A136000BF704700BF52
:1075400064050120064B1B68013B054A1360044B90
:107550001B68002B01D162B600BF00BF704700BF9F
:107560006405012000B583B0019000F025F80346C2
:10757000012B03D00449432000F057F8FFF7D6FF52
:1075800000BF03B05DF804FBCC28060000B583B053
:1075900003468DF8073000F00FF80346012B03D0A7
:1075A0000449512000F041F8FFF7CCFF00BF03B0C1
:1075B0005DF804FBCC28060084B0EFF3058301934B
:1075C000019BC3F308030393039B002B0DD1EFF33F
:1075D00014830093009B0293029B03F00103002B92
:1075E0000CBF01230023DBB200E00123184604B0E6
:1075F000704700B585B0EFF305830193019BC3F39A
:1076000008030393039B002B0AD0039B103B0293B8
:10761000029B5BB21846FFF765FF0346DBB200E052
:107620000F23184605B05DF804FB00B585B003468E
:107630000091ADF80630BDF806300293009B03932D
:1076400002AB1A46002144F20200FFF721FF00BFFF
:1076500005B05DF804FB10B487B001900091019B68
:10766000009A53E8004F104643E8000191F0000FE4
:10767000F7D1059404900391059B184607B05DF877
:10768000044B704710B487B001900091019B009AA1
:1076900053E8004F44EA020043E8000191F0000F74
:1076A000F6D1059404900391059B184607B05DF848
:1076B000044B704710B487B001900091019B009A71
:1076C00053E8004F04EA020043E8000191F0000F84
:1076D000F6D1059404900391059B184607B05DF818
:1076E000044B704710B487B001900091019B009A41
:1076F00053E8004F04EA020043E8000191F0000F54
:10770000F6D1059404900391049B184607B05DF8E8
:10771000044B704710B487B001900091019B009A10
:1077200053E8004F04EB020043E8000191F0000F22
:10773000F6D1059404900391049B184607B05DF8B8
:10774000044B704710B487B001900091019B009AE0
:1077500053E8004F94422CBFA01A204643E8000192
:1077600091F0000FF4D1059404900391049B184606
:1077700007B05DF8044B704700B583B0019001215C
:107780000198FFF77FFF0346184603B05DF804FB3E
:1077900000B583B0019000210198FFF78BFF0346ED
:1077A000184603B05DF804FB00B583B001900021DA
:1077B0000198FFF797FF0346184603B05DF804FBF6
:1077C00000B585B0039002910192039B002B01D17B
:1077D0000E230EE0029B002B01D10E2309E0039B38
:1077E000029A1A60039B1B681B68019903989847CB
:1077F0000346184605B05DF804FB10B584B003904D
:10780000029101920093039B002B01D10E232AE0E9
:10781000019B002B01D10E2325E0039B1B68002B4D
:1078200001D108231FE0009B002B01D109231AE09E
:10783000029800F005F90346002B01D1102312E055
:10784000009A0299039800F0E1F80346002B01D159
:10785000102308E0039B1B689C68009B019A029917
:107860000398A0470346184604B010BD10B586B073
:107870000590049103920293059B002B01D10E23E6
:1078800042E0039B002B01D10E233DE0059B1B68CA
:10789000002B01D1082337E0029B002B01D10923E3
:1078A00032E0059B5B685A68029BB3FBF2F101FB77
:1078B00002F29B1A002B01D0092325E0049800F066
:1078C000BFF80346002B01D110231DE0039B18468F
:1078D00000F0B6F80346002B01D1102314E0029A01
:1078E0000499059800F092F80346002B01D110236B
:1078F0000AE0059B1B68DC68089B0093029B039AC7
:1079000004990598A0470346184606B010BD10B567
:1079100084B00390029101920093039B002B01D14C
:107920000E232CE0039B1B68002B01D1082326E0CB
:10793000019B002B01D1092321E00299039800F05B
:107940008CF80346002B01D1102318E0039B5B68E1
:107950001B68019A02FB03F31A460299039800F090
:1079600055F80346002B01D1102308E0039B1B6848
:107970001C69009B019A02990398A0470346184688
:1079800004B010BD00B585B00190019B002B03D061
:10799000019B1B68002B28D10023039319E0039A55
:1079A00013469B0013449B001A46154B1344019346
:1079B000019B1B68002B09D0019B1B68DB690198A8
:1079C00098470346002B01D0012314E0039B0133A9
:1079D00003930C4A0A4BD31A0B4AA2FB03231B093D
:1079E000039A9A42DBD3002305E0019B1B68DB6905
:1079F000019898470346184605B05DF804FB00BFA0
:107A00000000012014000120CDCCCCCC84B0039028
:107A100002910192039BDB68029A9A4209D3029A6F
:107A2000019B13445A1E039B1B699A4201D80123F0
:107A300000E0002303F00103DBB2184604B07047F6
:107A400082B00190019B03F00303002B0CBF0123C4
:107A50000023DBB2184602B0704782B0019000915B
:107A6000019B5B681B685A1E009B1340002B0CBFD8
:107A700001230023DBB2184602B0704700B58BB07B
:107A80000390019200930B468DF80B30039B9B688B
:107A9000002B13D09DF80B308DF810300023059388
:107AA000009B0693019B07930C9B08930D9B0993E6
:107AB000039B9B6804AA1046984700E000BF0BB0E8
:107AC0005DF804FB82B001900091019B024A5A606C
:107AD0000023184602B070472C29060000B583B079
:107AE000019000910348FFF75FFE0023184603B0A2
:107AF0005DF804FB6805012000B585B00390029194
:107B000001920093029B009A1946019839F00CFEED
:107B10000023184605B05DF804FB000000B587B0EF
:107B200005900491039202931148FFF725FE034646
:107B3000002B01D0112316E00422029BB3FBF2F3C9
:107B40001A460399049804F07BFF0948FFF72CFEBE
:107B5000089B0193029B0093049B039A01210598C3
:107B6000FFF78CFF0023184607B05DF804FB00BF49
:107B70006805012000B589B0059004910392029335
:107B8000002307931548FFF7F7FD0346002B0ED09F
:107B900011231EE04FF48052079B03FB02F2049B6B
:107BA0001344184604F028FF079B01330793079AF4
:107BB000039B9A42EED10948FFF7F6FD029B019321
:107BC000039B0093049B002202210598FFF756FFB8
:107BD0000023184609B05DF804FB00BF68050120CA
:107BE00082B001900091009B184602B0704782B0AD
:107BF000019000910023184602B0704782B00190B6
:107C0000044B1B68002B14BF01230023DBB2184672
:107C100002B070476805012082B003468DF8073036
:107C20009DF90730002B0DDB9DF8073003F01F0294
:107C300006499DF907305B09012000FA02F2603322
:107C400041F8232000BF02B0704700BF00E100E010
:107C500000B583B00190019B002B03D1064972202F
:107C6000FFF7E3FC019B00221A60BFF35F8F00BFA8
:107C700000BF03B05DF804FBAC29060000B583B07B
:107C80000020FFF76FFCF1EE103A0193019B23F007
:107C90009F030093009BE1EE103A00BFBFF35F8F9C
:107CA00000BF2620FFF7B8FF0020FFF76FFC019B05
:107CB00003F00703002B03D003497D20FFF7B5FC39
:107CC00000BF03B05DF804FBE429060008B5064BCD
:107CD00000221A700548FFF7BBFF0549054800F070
:107CE0000FFA0023184608BD700501206C0501201D
:107CF000402A06007405012008B5FFF7BFFF20BF2A
:107D000040BF20BF00BF08BD82B00190019B9B68AF
:107D1000024A12781344184602B07047A22A06009D
:107D200000B583B001900091019B002B03D108495D
:107D30008320FFF77AFC019B9B68009A9A4202D24B
:107D4000009B013300E00023184603B05DF804FBFC
:107D50004C2A060000B585B00190019B1B681B688A
:107D60000393019B1B685B680293029A039B9A42F0
:107D700003D3029A039BD31A07E00198FFF7C4FFCD
:107D80000246039BD21A029B1344184605B05DF8C5
:107D900004FB000000B585B00190019B002B03D1CE
:107DA0000D499820FFF741FC019B1B681B6803935A
:107DB000019B1B685B68029302990198FFF7B0FF73
:107DC0000246039B93420CBF01230023DBB21846FB
:107DD00005B05DF804FB00BF4C2A060010B586B064
:107DE0000190009100230593019B002B03D1524980
:107DF000A320FFF71AFC009B002B03D14E49A420BF
:107E0000FFF713FC0020FFF7ADFB0198FFF7C2FF5F
:107E100003468DF813309DF8133083F00103DBB275
:107E2000002B03D1019B1B7C002B7AD1019B1B688B
:107E30005B680393019B1B685A68019B1C68114691
:107E40000198FFF76DFF034663609DF81330002B28
:107E50000AD0019B1B681A68019B1C681146019897
:107E6000FFF75EFF03462360019BDB68013B072BA6
:107E700037D801A252F823F0997E0200A97E0200B1
:107E8000E37E0200BB7E0200E37E0200E37E02008E
:107E9000E37E0200CD7E0200019B5A68039B1344DF
:107EA000009A12781A702DE0019B5A68039B5B00C0
:107EB0001344009A12881A8024E0019B5A68039B9D
:107EC0009B001344009A12681A601BE0019B5A68D9
:107ED000039BDB00D118009BD3E90023C1E90023F9
:107EE00010E0019B5B681946019BDB68039A02FB6B
:107EF00003F30B441846019BDB681A46009939F0DE
:107F000013FC00BF0198FFF725FF0290019B1B683F
:107F10009B68029A9A4207D9019B1B68029A9A6051
:107F200002E00423059300E000BF0020FFF72EFBD2
:107F3000059B184606B010BD4C2A060000B585B05A
:107F400001900B468DF80330019B1B681B6803935F
:107F5000019B1B685B6802939DF80330002B0ED0D9
:107F6000029A039B9A4206D30198FFF7CDFE024680
:107F7000029BD31A11E0039A029BD31A0DE0029AD6
:107F8000039B9A4203D3029A039BD31A05E00198FC
:107F9000FFF7BAFE0246039BD31A184605B05DF8F8
:107FA00004FB00B58BB0039002910192039B1B6808
:107FB0001B68099300210398FFF7C0FF0890039BFB
:107FC0005B681946039BDB68099A02FB03F30B44C9
:107FD0000793019A089B9A4219D8039BDB68019A80
:107FE00002FB03F31A460799029839F09DFB099AA0
:107FF000019B1A44039B9B689A4203D8099A019BF0
:10800000134400E00023039A1268136020E0039BEE
:10801000DA68089B02FB03F30693069A0799029815
:1080200039F082FB019A089BD31A0593029A069BAA
:1080300013441846039B5968039BDB68059A02FBAF
:1080400003F31A4639F070FB039B1B68059A1A600C
:1080500000BF0BB05DF804FB00B587B00390029140
:10806000019200230593039B002B04D115494FF483
:10807000EC70FFF7DAFA029B002B04D1114940F2B1
:10808000D910FFF7D2FA019B002B01D1002315E094
:108090000020FFF767FA0398FFF75CFE0246019B9A
:1080A000934205D8019A02990398FFF77AFF01E0FD
:1080B000052305930020FFF769FA059B184607B0D2
:1080C0005DF804FB4C2A060000B585B00190019BC9
:1080D000002B04D1094940F21E20FFF7A6FA002028
:1080E000FFF740FA0198FFF735FE03900020FFF7F5
:1080F0004DFA039B184605B05DF804FB4C2A0600B8
:1081000000B583B001900091019B002B03D1104971
:108110005020FFF78AFA009B002B03D10C49512015
:10812000FFF783FA019B009A1A60019B1B681A688B
:10813000019B5A60019B5A68019B1B685B689A42CD
:1081400002D1019B00225A6000BF03B05DF804FB1E
:10815000A42A0600024BD3F88034DBB218467047DD
:1081600000700240024BD3F88434DBB218467047EB
:108170000070024008B50CF019F90023184608BD3C
:1081800000B585B003468DF807300B468DF80630F4
:1081900013468DF805309DF8073003F01F029DF857
:1081A00006305B0103F060031A439DF80530DB01E4
:1081B000DBB213430393039BFF2B04D905494FF410
:1081C000AC70FFF732FA039BDBB2184605B05DF8DE
:1081D00004FB00BF182B060082B00190019B1B7AA4
:1081E000184602B07047000000B585B001900B46FC
:1081F0008DF80330019B002B04D10F494FF4887098
:10820000FFF713FA0198FFF7E7FF03461A469DF8B8
:108210000330934201D3002309E0019B0933039308
:108220009DF8032013465B001344039A1344184639
:1082300005B05DF804FB00BF742B060082B001900E
:10824000019B1B78184602B0704782B00190019BD9
:108250005B78184602B0704700B585B001900B46B8
:108260008DF80330019B002B04D10D4940F24310DF
:10827000FFF7DBF9019B5B789DF803209A4201D35D
:10828000002309E0019B9B781A46019B134403934A
:108290009DF80330039A1344184605B05DF804FBBB
:1082A000742B060082B00190019B1B78184602B027
:1082B000704782B00190019B1B68184602B070475E
:1082C00000B583B00190019B002B04D1064940F218
:1082D0004320FFF7AAF90198FFF7EBFF03461B685D
:1082E000184603B05DF804FBD42B060000B583B03C
:1082F0000190019B002B04D1064940F25F20FFF75B
:1083000094F90198FFF7D5FF03465B68184603B060
:108310005DF804FBD42B060000B583B00190019BEF
:10832000002B04D1064940F27B20FFF77EF901982B
:10833000FFF7BFFF03465B68184603B05DF804FB18
:10834000D42B0600014B1846704700BF902E060044
:108350004FF08043D3F838341846704708B5FFF71C
:10836000F7FF034603F00103002B14BF0123002392
:10837000DBB2184608BD08B5FFF7EAFF034603F075
:108380000203002B14BF01230023DBB2184608BDF3
:1083900000B583B001900091019B002B04D11149DD
:1083A00040F20F10FFF741F9019B5B68002B04D1ED
:1083B0000C494FF48870FFF738F9019B5B681B6824
:1083C000002B04D1074940F21110FFF72EF9019B51
:1083D0005B681B680099019898470346184603B0EC
:1083E0005DF804FB282C060000B583B001900091D5
:1083F000019B002B04D1114940F21910FFF715F928
:10840000019B1B68002B04D10C494FF48D70FFF7C2
:108410000CF9019B1B689B68002B04D1074940F2B3
:108420001B10FFF702F9019B1B689B68009A52889A
:108430001046984700BF03B05DF804FB282C0600E7
:1084400000B583B001900B468DF80330074B1B68D5
:10845000002B06D0054B1B689DF8032011460198A0
:10846000984700BF03B05DF804FB00BF3C07012044
:1084700000B583B003468DF80730074B5B68002BCF
:1084800005D0054B5B689DF807201046984700BF54
:1084900003B05DF804FB00BF3C07012010B58EB0AF
:1084A000039001930B468DF80B3013468DF80A307C
:1084B0000023099300230D9302E00D9B01330D93DC
:1084C000039B5B685C6809A8012300220399A0470D
:1084D0000346002BF1D100238DF8233000230C93A9
:1084E00000238DF82F30002306934FE0039B5B6839
:1084F0005C680DF1230206A801230399A047039BA2
:108500005B685C680DF1170206A801230399A04778
:108510009DF817309DF80B209A4227D19DF82F2007
:108520009DF80A309A421CD19DF823301A46109BC0
:108530001A60019B5A1C01929DF823201A70019B1E
:108540005A1C01929DF80B201A70039B5B685C68B3
:108550009DF82330023B06A8019A0399A047002307
:1085600019E09DF82F3001338DF82F30039B5B68A5
:108570005C689DF82330023B06A800220399A047BF
:108580009DF823301A460C9B13440C930C9A0D9BB8
:108590009A42ABD3052318460EB010BD00B585B086
:1085A00003468DF807309DF90730002B14DA9DF84B
:1085B000073003F00F038DF80E309DF80E30082BB6
:1085C00004D911494FF4CC70FFF72FF89DF80E3005
:1085D000DB000E4A134413E09DF8073003F00F034D
:1085E0008DF80F309DF80F30082B04D906494FF451
:1085F000CF70FFF71AF89DF80F30DB00044A1344E0
:10860000184605B05DF804FB282C06009C060120E6
:10861000E406012000B583B003468DF807309DF8CD
:1086200007301846FFF7BAFF03461B68184603B029
:108630005DF804FB00B585B0034600918DF8073066
:108640009DF807301846FFF7A9FF0390039B009A97
:108650001A60009B002B10D19DF80730002B03D02F
:108660009DF80730802B04D108494FF4E170FEF7E4
:10867000DCFF039B00225A6004E0009B5B681A68E1
:10868000039B5A6000BF05B05DF804FB282C060070
:1086900000B583B00190064B5B68054A12680199EA
:1086A000104698470346184603B05DF804FB00BF28
:1086B000E406012000B589B00190019B0793079B58
:1086C0001B78052B1AD1FFF74DFD03468DF81730A7
:1086D000FFF740FD03468DF81630002200210020F0
:1086E000FFF74EFD03461A469DF81630934205D11A
:1086F0009DF81730052B01D1334B0793079B1B784F
:10870000002B27D100F040FF069007E0079906985C
:10871000FFF76AFE0698FFF7FFFD0690069B002B09
:10872000F4D10020FEF71EFF284B1B68002B03D15D
:10873000079B5A88264B1A8001212448FEF7EAFF3E
:108740000020FEF723FF01210798FFF779FE1F4B5A
:108750001B6835E01F4A02AB1946104603F098FE2D
:108760000490049B002B2BD0049A079B1B6813607A
:108770000020FEF7F7FE164B1A88144B1B689BB2BD
:10878000D31A9BB201339AB2049BDA8000210F48BE
:10879000FEF761FF03469AB2049B9A800020FEF721
:1087A000F5FE0C4A02AB1946104603F08AFE03465A
:1087B0008DF80F309DF80F3019460798FFF740FEEF
:1087C00009B05DF804FB00BF882C06009406012068
:1087D000980601208406012000B583B003468DF879
:1087E00007309DF80730022B0ED0022B10DC002B37
:1087F00002D0012B04D00BE00A48FFF75BFF0DE02D
:108800000948FFF757FF09E00848FFF753FF05E065
:10881000074940F26220FEF708FF00BF00BF03B027
:108820005DF804FB7C2C0600802C0600842C0600DE
:10883000282C060000B583B001900198FFF73AFF9D
:1088400000BF03B05DF804FB00B583B003468DF8AC
:1088500007309DF80730002B04D0064940F27B20FA
:10886000FEF7E3FE0448FFF725FF00BF03B05DF805
:1088700004FB00BF282C06008C2C060082B00346A7
:108880008DF807309DF80730082B27D801A252F841
:1088900023F000BFB9880200BD880200C188020031
:1088A000C5880200C9880200CD880200D188020074
:1088B000D5880200D9880200002310E000230EE0D2
:1088C00001230CE000230AE0002308E0012306E076
:1088D000012304E0012302E0012300E00023184605
:1088E00002B0704782B003468DF807309DF807301C
:1088F000082B27D801A252F823F000BF21890200DB
:1089000025890200298902002D890200318902008F
:1089100035890200398902003D890200418902003F
:10892000002310E000230EE001230CE000230AE006
:10893000002308E0002306E0002304E0002302E017
:10894000012300E00023184602B07047014B1B785A
:10895000184670473807012010B582B003468DF8DD
:1089600007309DF807301846FFF788FF03461C467E
:108970001C4B1B781846FFF781FF03469C420DD025
:108980009DF807301846FFF779FF0346002B03D008
:10899000154803F0CDFE01E003F01AFF9DF8073003
:1089A0001846FFF79FFF03461C460E4B1B781846E0
:1089B000FFF798FF03469C420CD09DF807301846FD
:1089C000FFF790FF0346002B02D00BF08BFE01E077
:1089D0000BF07EFE034A9DF80730137000BF02B013
:1089E00010BD00BF380701201400012000B587B07A
:1089F00001900B468DF8033013468DF80230019834
:108A0000FFF7EAFB03461A469DF80330934204D968
:108A10001B4940F2F920FEF708FE9DF80230002BBA
:108A200001D0072328E09DF8033019460198FFF78D
:108A3000DBFB04900498FFF708FC03468DF80F3029
:108A400000238DF8173010E09DF817301946049870
:108A5000FFF702FC0290029B1B78184600F05CFDB9
:108A60009DF8173001338DF817309DF817209DF8C9
:108A70000F309A42E8D30023184607B05DF804FB94
:108A8000282C060000B587B001900B468DF8033006
:108A90000198FFF7A1FB03461A469DF80330934265
:108AA00004D919494FF44670FEF7BFFD9DF8033015
:108AB00019460198FFF798FB04900498FFF7C5FB4F
:108AC00003468DF80F3000238DF8173010E09DF825
:108AD000173019460498FFF7BFFB0290029B1B78E2
:108AE000184600F037FD9DF8173001338DF8173028
:108AF0009DF817209DF80F309A42E8D300BF00BFC1
:108B000007B05DF804FB00BF282C060000B589B053
:108B1000019003F047FD0346002B04D1484940F281
:108B20003130FEF782FD474808234FF484724649EE
:108B300003F07BFC0690069B002B01D003237BE017
:108B400042480BF0AFFB0690069B002B01D0069B22
:108B500072E03F4B00221A703E4B00221A603E4BDF
:108B600000221A60482200213C4838F006FE4822C4
:108B700000213B4838F001FE019B002B09D1394B05
:108B800000221A60374B00225A60364B00221A72BC
:108B900004E0344B019A07CA83E8070000200CF078
:108BA000BBF80690069B002B08D0069B852B05D0B2
:108BB000234A40F25F310698FEF75CFCFFF7C2FBE8
:108BC000059000238DF81F3018E000238DF81E302B
:108BD00007E00398FFF766FB034605991846FFF781
:108BE00029FD9DF81E305A1C8DF81E201946049848
:108BF000FFF732FB0390039B002BEAD19DF81F3057
:108C00005A1C8DF81F2019460598FFF7EDFA0490BD
:108C1000049B002BD9D10B238DF8083002AB1946E9
:108C20000598FFF7B5FB0690069B002B03D0FFF7D6
:108C3000A1FA069B00E00023184609B05DF804FB8A
:108C4000282C0600840601207C05012035880200BE
:108C5000380701202C070120300701209C06012045
:108C6000E40601203C07012000B583B00BF096FC20
:108C7000034683F00103DBB2002B04D10BF09AFC16
:108C80000346002B01D008230FE00A480CF066F8D9
:108C90000190019B0093009B002B05D0064A40F2F7
:108CA000C2310098FEF7E6FB0023184603B05DF8DA
:108CB00004FB00BF902C0600282C060008B50BF022
:108CC0008DFB00BF08BD000008B50BF07FFC03461C
:108CD00083F00103DBB2002B04D1044940F2D13010
:108CE000FEF7A3FC0BF0E2FB00BF08BD282C06003A
:108CF00008B50BF05FFC0346002B0DD10D494FF476
:108D00007670FEF792FC07E0FFF728FB034683F03E
:108D10000103DBB2002B0BD1FFF72DFB034683F0E1
:108D20000103DBB2002BEFD10348FFF7C3FC00E0E7
:108D300000BF08BD282C0600942C060000B583B0A7
:108D400082238DF8043001AB1846FFF7B3FC00BF57
:108D500003B05DF804FB000000B587B00190DD4B67
:108D60001B68002B04D1DC4940F22540FEF75DFC76
:108D7000FEF73FFC0346052B04D8D74940F22C40B0
:108D8000FEF753FC019B1B78852B00F26A8201A23F
:108D900052F823F0AD9002000B910200999102006D
:108DA0002D9102005D910200C1910200D19102005B
:108DB000639202003992020047920200559202002B
:108DC00063920200639202006392020063920200C7
:108DD000B391020063920200639202006392020068
:108DE00063920200639202006392020063920200A7
:108DF0006392020063920200639202006392020097
:108E00006392020063920200639202006392020086
:108E10006392020063920200639202006392020076
:108E20006392020063920200639202006392020066
:108E30006392020063920200639202006392020056
:108E40006392020063920200639202006392020046
:108E50006392020063920200639202006392020036
:108E60006392020063920200639202006392020026
:108E70006392020063920200639202006392020016
:108E80006392020063920200639202006392020006
:108E900063920200639202006392020063920200F6
:108EA00063920200639202006392020063920200E6
:108EB00063920200639202006392020063920200D6
:108EC00063920200639202006392020063920200C6
:108ED00063920200639202006392020063920200B6
:108EE00063920200639202006392020063920200A6
:108EF0006392020063920200639202006392020096
:108F00006392020063920200639202006392020085
:108F10006392020063920200639202006392020075
:108F20006392020063920200639202006392020065
:108F30006392020063920200639202006392020055
:108F40006392020063920200639202006392020045
:108F50006392020063920200639202006392020035
:108F60006392020063920200639202006392020025
:108F70006392020063920200639202006392020015
:108F80006392020063920200639202006392020005
:108F9000639202002B900200AD8F0200F18F02005D
:108FA0005F9002007F900200C99102004B48FFF7DA
:108FB0006FFB4A4800F072FB0D20FFF759FA00F0F2
:108FC00091FC03F034F8464B1B68002B03D1454B52
:108FD0001B7A002B01D0012300E0002303F00103E2
:108FE000DBB218460BF082FA0120FFF7B5FC45E131
:108FF00000F078FC0BF0AEFA0020FFF7ADFC3A4829
:1090000000F04CFB3848FFF743FB0E20FFF730FA27
:10901000FFF79CFC03461846FFF730FC0346002B85
:1090200000F0258103F0D4FB21E1FFF78FFC03461C
:10903000072B0ED0072B10DC052B02D0062B04D0FB
:109040000BE00220FFF788FC08E00820FFF784FC13
:1090500004E00220FFF780FC00E000BF0EE1FFF714
:1090600075FC0346032B40F004810BF0C3FA034662
:10907000002B00F0FE800420FFF76EFCF9E0FFF704
:1090800065FC0346032B07D10BF0B4FA0346002B13
:1090900002D00420FFF760FC0BF0DCFA0346002B43
:1090A00000F0E9800620FFF757FCE4E0FFF74EFCF4
:1090B0000346032B04D0FFF749FC0346082B02D1DB
:1090C0000A48FFF749FE0020FFF7D2F900F056FAF0
:1090D000059016E02C070120282C0600982C06008D
:1090E000300701203C0701209C2C0600A02C060024
:1090F00001990598FFF74CF903900598FFF7F6F8EA
:109100000590059B002BF3D1B8E000F0EBFB02F0DB
:1091100085FF0220FFF720FC0120FFF7A9F9019845
:10912000FFF7B6FA019800F0B9FAA7E0FFF70EFCD6
:109130000346082B05D10220FFF70EFC0BF0DCFAEA
:1091400002E00520FFF708FC0320FFF791F90198E2
:10915000FFF79EFA019800F0A1FA8FE00320FFF7D5
:1091600087F94848FFF794FA464800F097FAFFF766
:10917000EDFB0346062B02D0082B04D007E00720A6
:10918000FFF7EAFB07E00220FFF7E6FB03E002201F
:10919000FFF7E2FB72E071E00320FFF7DDFB022046
:1091A000FFF766F9019800F079FA0198FFF770FA75
:1091B00064E00F20FFF75CF9019800F06FFA5DE0C2
:1091C0000198FFF765FA59E00198FFF761FA55E059
:1091D000019B9B781846FFF7E1F90490049B1B68FC
:1091E000002B04D1284940F20250FEF71EFA049BDE
:1091F0005B68002B04D1244940F20350FEF715FAB6
:10920000049B5B68049A12680199104698470346CC
:10921000002B32D0019B9B7803F00F03002B2CD046
:10922000019B9B7803F00803002B26D1019B9B78C0
:1092300018460BF0A2FC20E00820FFF719F901986E
:1092400000F02CFA1AE00920FFF712F9019800F05B
:1092500025FA13E00A20FFF70BF9019800F01EFA37
:109260000CE0094940F22650FEF7DFF906E000BFA6
:1092700004E000BF02E000BF00E000BF00BF07B095
:109280005DF804FBA42C0600282C060000B583B072
:1092900000230193354B1B68002B07D1344B354914
:1092A000184603F022F90346304A13602F4B1B681F
:1092B000002B32D02D4B1B689B88002B1ED02B4BD4
:1092C0001B68DB88B3F5006F03D3284B1B680022B3
:1092D000DA80264B1B68DA88511C89B2D980134684
:1092E000ADF80630214B1B689A88013A92B29A80F9
:1092F00001AB1846FFF730FD012333E01B4B1B6821
:109300001846FFF729FD1A4B1A49184603F006F9CB
:10931000164B00221A60012324E0174B1B68002B18
:109320001FD00020FEF71EF9144B1B88B3F5006F09
:1093300002D3124B00221A80104B1B885A1C91B288
:109340000E4A1180ADF8063001210B48FEF7FAF9FC
:109350000020FEF71BF901AB1846FFF7FDFC0123C7
:1093600000E00023184603B05DF804FB4807012025
:10937000840601204C070120940601209806012054
:1093800000B589B00190019B002B04D15A4940F2ED
:109390006A50FEF74AF9019B5B68002B04D15649DD
:1093A00040F26B50FEF741F9019B5B681B68002B94
:1093B00004D1514940F26C50FEF737F90198FEF79D
:1093C00078FF03461B68002B04D04B4940F26D50D8
:1093D000FEF72BF90BF0EEF8034683F00103DBB246
:1093E000002B04D00BF0DAF80346002B04D14249DD
:1093F00040F27150FEF719F900238DF81F301CE080
:1094000000238DF81E300BE00398FEF74BFF034658
:109410001846FFF7FFF80346002B01D0112367E041
:109420009DF81E305A1C8DF81E2019460598FEF72F
:1094300013FF0390039B002BE6D19DF81F305A1CAD
:109440008DF81F2019460198FEF7CEFE0590059B6A
:10945000002BD5D100238DF81F3018E000238DF8A4
:109460001D3007E00498FEF71DFF034601991846DA
:10947000FFF7E0F89DF81D305A1C8DF81D201946A5
:109480000598FEF7E9FE0490049B002BEAD19DF8B5
:109490001F305A1C8DF81F2019460198FEF7A4FEB4
:1094A0000590059B002BD9D1144B069310E0069B29
:1094B0001B68019A9A4204D10F4940F29750FEF777
:1094C000B4F8069B1B681846FEF7F3FE03460693A6
:1094D000069B1B68002BEAD1069B019A1A600B239E
:1094E0008DF8083002AB19460198FEF751FF03468C
:1094F000184609B05DF804FB282C06002C07012053
:10950000044B1B78002B14BF01230023DBB2184649
:10951000704700BF3907012000B583B003468DF8BE
:1095200007309DF8073003F00803002B09D19DF8A0
:10953000073018460BF069FB9DF8073018460BF012
:109540002EFB9DF8073018460BF054F900BF03B00E
:109550005DF804FB00B583B003468DF807309DF835
:10956000073018460BF096F900BF03B05DF804FB16
:10957000014B1B68184670472C070120014B1B68E4
:109580001846704730070120014B1B68184670478A
:109590003407012000B587B0034600918DF80730ED
:1095A000FFF7E6FF059031E00598FEF715FE03464C
:1095B0008DF8123000238DF813301DE09DF8133024
:1095C00019460598FEF710FE03900398FEF736FE45
:1095D00003461A469DF80730934208D1009B002BA2
:1095E00003D0009B9DF813201A70059B12E09DF894
:1095F000133001338DF813309DF813209DF812308D
:109600009A42DBD30598FEF75BFE0590059B002B85
:10961000CAD10023184607B05DF804FB00B585B039
:1096200003900B4601928DF80B3001990398FEF7D9
:10963000AFFE0346184605B05DF804FB00B585B0E3
:10964000034600918DF807309DF90730002B05DAAD
:109650009DF8073003F00F03082B09DD9DF9073053
:10966000002B16DB9DF8073003F00F03082B10DCEE
:109670009DF807301846FEF791FF03461B680393D9
:10968000039B002B05D000990398FEF781FE03464B
:1096900000E01023184605B05DF804FB00B585B066
:1096A0000190FFF765FF039007E001990398FEF72B
:1096B0006FFE0398FEF704FE0390039B002BF4D18A
:1096C00000BF00BF05B05DF804FB00B585B0019098
:1096D00006230293FFF74CFF03900BE001990398D8
:1096E000FEF756FE0290029B062B07D10398FEF769
:1096F000E7FD0390039B002BF0D100E000BF029B2D
:10970000184605B05DF804FB00B583B00346009130
:109710008DF807309DF8073018460BF058F80346CF
:1097200083F00103DBB2002B01D008230CE0084BCF
:109730001B78022B01D0082306E09DF80730009922
:1097400018460BF0C7F80346184603B05DF804FB53
:109750003807012000B583B0034600918DF807302B
:109760009DF8073018460BF032F8034683F00103EA
:10977000DBB2002B01D008230CE0084B1B78022B36
:1097800001D0082306E09DF80730009918460BF039
:109790006FF90346184603B05DF804FB3807012053
:1097A00000B585B001900B468DF8033013468DF857
:1097B000023006230393019B5B689B68002B09D052
:1097C000019B5B689B689DF802209DF8031001983F
:1097D00098470390039B062B08D19DF802209DF823
:1097E000033019460198FFF701F90390039B1846CF
:1097F00005B05DF804FB00B583B001900B468DF811
:109800000330019B5B68DB68002B07D0019B5B6822
:10981000DB689DF803201146019898479DF80330B6
:1098200019460198FFF72EF900BF03B05DF804FB5D
:1098300000B585B001900B468DF8033000238DF8FC
:109840000F30019B5B681B69002B0AD0019B5B6892
:109850001B699DF8032011460198984703468DF82F
:109860000F309DF80F30184605B05DF804FB00007E
:1098700000B585B0FFF77CFE039028E00398FEF763
:10988000ABFC03468DF80A3000238DF80B3014E052
:109890009DF80B30002219460398FFF781FF0190D5
:1098A000019B002B04D00E4940F26A70FDF7BDFE0B
:1098B0009DF80B3001338DF80B309DF80B209DF88F
:1098C0000A309A42E4D30398FEF7FAFC0390039B14
:1098D000002BD3D100BF00BF05B05DF804FB00BF73
:1098E000282C060000B583B0FFF742FE01901EE071
:1098F0000198FEF771FC03468DF8023000238DF8C5
:1099000003300AE09DF8033019460198FFF773FF12
:109910009DF8033001338DF803309DF803209DF846
:1099200002309A42EED30198FEF7CAFC0190019BE7
:10993000002BDDD100BF00BF03B05DF804FB82B097
:1099400003468DF807309DF8073003F01F03DBB2A4
:10995000184602B0704782B003468DF807309DF874
:1099600007305B0903F00303DBB2184602B070470F
:1099700082B003468DF807309DF80730DB09DBB273
:10998000184602B0704782B00190019B1B7A1846BE
:1099900002B0704700B585B001900B468DF80330DA
:1099A000019B002B04D10F494FF48870FDF73DFE59
:1099B0000198FFF7E8FF03461A469DF803309342EB
:1099C00001D3002309E0019B093303939DF8032091
:1099D00013465B001344039A1344184605B05DF820
:1099E00004FB00BFE82C060082B00190019B1B78AD
:1099F000184602B0704782B00190019B5B78184610
:109A000002B0704700B585B001900B468DF8033069
:109A1000019B002B04D10D4940F24310FDF705FED8
:109A2000019B5B789DF803209A4201D3002309E053
:109A3000019B9B781A46019B134403939DF80330C6
:109A4000039A1344184605B05DF804FBE82C0600A1
:109A500082B00190019B1B78184602B0704782B01B
:109A60000190019B184602B07047000000B583B01A
:109A70000190019B002B03D104495220FDF7D5FD35
:109A8000019B184603B05DF804FB00BF2C2D0600B7
:109A900000B583B00190019B002B03D109495F20E1
:109AA000FDF7C3FD019B1B68002B03D10549602016
:109AB000FDF7BBFD019B1B680C33184603B05DF836
:109AC00004FB00BF2C2D060000B585B001900B46AD
:109AD0008DF803300198FFF7C9FF0390039BDB6902
:109AE000002B06D0039BDB699DF8032011460198EB
:109AF000984700BF05B05DF804FB00B585B0019044
:109B000000210198FFF746FF039000210398FFF71B
:109B100079FF02900298FFF79BFF0346184605B0B5
:109B20005DF804FB00B585B0019001210198FFF7B5
:109B300031FF039000210398FFF764FF0290029821
:109B4000FFF786FF0346184605B05DF804FB00B535
:109B500085B0019001210198FFF71CFF03900121BE
:109B60000398FFF74FFF02900298FFF771FF03463B
:109B7000184605B05DF804FB00B589B0039002916A
:109B8000029B5B781846FFF7DAFE0346012B28D1CB
:109B9000029B9B78062B24D10023059304AB184627
:109BA00002F0BAFA0790029B1979029BDA7805ABAA
:109BB0000093079B0398FEF771FC0690069B052B0C
:109BC0000FD0059B3F2B03D90849C920FDF72DFD78
:109BD000029B0133059A0799184602F031FA0346B1
:109BE00000E00623184609B05DF804FB2C2D0600A2
:109BF00082B00190009100BF0623184602B0704762
:109C000000B585B0019000910198FFF72FFF0390F8
:109C10000398FFF73DFF0290009B9B78212B11D109
:109C2000009BB3F807309BB2072B01D006230BE053
:109C3000009B581C029B0C330722194602F000FAC5
:109C4000034601E000BF0623184605B05DF804FB9B
:109C500000B585B0034600918DF807309DF80730B8
:109C6000002B01D0032316E0009B03930398FFF71A
:109C70000FFF0290029B1B78202B0BD1029B03F15C
:109C80000C00029B02330722194637F04DFD00BF3E
:109C9000002300E00623184605B05DF804FB000031
:109CA00000B58BB0019000910198FFF7DFFE08909E
:109CB0000898FFF7EDFE0790009B9A78079B1A70B3
:109CC000009BB3F807309BB2DAB2079B5A70079B30
:109CD00002330493079B5B780593002306930020CF
:109CE000FDF740FC04AB19460020FFF70DFD09907D
:109CF000099B002B09D1094B0293089B039302ABEC
:109D00001946002002F0EAF909900020FDF73EFC18
:109D1000099B18460BB05DF804FB00BF519C020084
:109D200000B585B001900198FFF7A0FE039003985D
:109D3000FFF7AEFE0290029B00229A82029B002255
:109D40009A61029B00221A62029B0022DA66029B41
:109D500000221A67029B00225A67029B00229A6720
:109D6000029B03F12802029B9A6600BF05B05DF8D2
:109D700004FB00B587B0019000910198FFF776FED3
:109D800005900598FFF784FE0490009B9B78202B9C
:109D900004D0222B10D000BF06237BE0009BB3F839
:109DA00007309BB2072B01D0062373E0009901987E
:109DB000FFF776FF03466DE0009BB3F807309BB2D8
:109DC000002B01D0062365E0049B9B8A03F001036E
:109DD000002B14BF012300238DF80F30009BB3F834
:109DE00003309AB2049B9A82049B9B8A03F001037E
:109DF000002B14BF012300238DF80E309DF80F2097
:109E00009DF80E309A4201D1002343E09DF80E30B8
:109E1000002B01D0022300E003238DF80D309DF8C4
:109E20000D3019460198FFF74FFE9DF80E3083F074
:109E30000103DBB2002B2CD00198FFF773FE034621
:109E40008DF80C309DF80C30184609F043FB019852
:109E5000FFF77DFE03468DF80C309DF80C30184658
:109E600009F038FB049B00229A61049B00221A62CD
:109E7000049B0022DA66049B00221A67049B0022DE
:109E80005A67049B00229A67049B03F12802049BF3
:109E90009A660023184607B05DF804FB00B583B04E
:109EA00001900091019B002B04D124494FF4E470F0
:109EB000FDF7BBFB009B002B04D1204940F2C910E9
:109EC000FDF7B3FB009B5B781846FFF751FD034697
:109ED000012B16D1009B5B781846FFF73CFD03462B
:109EE000002B02D0012B06D022E000990198FFF749
:109EF00043FE03461DE000990198FFF781FE0346EB
:109F000017E0009B5B781846FFF725FD0346002B02
:109F100002D0012B06D00BE000990198FFF768FEF4
:109F2000034606E000990198FFF723FF034600E08F
:109F30000623184603B05DF804FB00BF2C2D060075
:109F400086B00390029101920093029B0593039BBC
:109F5000009A5A60059BDB69009A9A421DD8059BBE
:109F60009A69039B1A60059B9A69009B1A44059B9A
:109F70009A61059B1A6F009B1A44059B1A67059B03
:109F8000DA69009BD21A059BDA61059BDB69002B1D
:109F900014BF01230023DBB208E0059B03F1280274
:109FA000039B1A60059B009A9A670023184606B027
:109FB0007047000000B58BB001900198FFF756FD87
:109FC00008900898FFF764FD07900198FFF7BFFD20
:109FD00003468DF81B306C4B0393079B0493079B40
:109FE000DB69002B26D1079B1A6F079B5A67079BDB
:109FF00000221A67079B0022DA66079B1B6A002B68
:10A0000013D0079B079A1833203292E8030083E8A5
:10A010000300079B00221A6203AA9DF81B30114619
:10A020001846FFF797FB0346A9E0079B00229A61B9
:10A030000023A4E0079B9B6F0593059B0993079B57
:10A04000DB69059A9A4202D9079BDB690993079B52
:10A050009869079B2833099A194637F065FB079BD7
:10A060001A6F099B1A44079B5A67079B00221A67BD
:10A07000059A099BD21A079BDA66079B03F128020F
:10A08000099B1A44079B9A66079B1B6A002B65D0A5
:10A09000079B079A1833203292E8030083E80300F5
:10A0A000079B00221A6254E0079BDA6E079BDB696C
:10A0B0009A4232D3079B9869079B996E079BDB698D
:10A0C0001A4637F031FB079BDA6E079BDB69D21A21
:10A0D000079BDA66079B9A6E079BDB691A44079B0E
:10A0E0009A66079BDA69079B5A6700210198FFF778
:10A0F000EBFC079B1B6A002B0BD0079B079A1833BE
:10A10000203292E8030083E80300079B00221A62D2
:10A110001FE0079B00229A6123E0079B9869079B39
:10A12000996E079BDB6E1A4637F0FEFA079BDA6ED4
:10A13000079B1A67079BDA69079BDB6ED21A079B9E
:10A14000DA61079B9A69079BDB6E1A44079B9A6149
:10A1500007E0079BDB6E002BA6D102E0079B0022E5
:10A160009A61079B9B69002B08D003AA9DF81B30BE
:10A1700011461846FFF7EEFA034600E000231846A2
:10A180000BB05DF804FB00BF419F020000B585B035
:10A19000019000910198FFF7B0FC03461A46009B1E
:10A1A0009B789A4201D1002334E0009B9B785BB2FC
:10A1B000002B10DA009BDB78002B02D0032B06D09B
:10A1C00007E001210198FFF77FFC002322E0002334
:10A1D00020E003231EE0009B9B785BB2002B18DB82
:10A1E000009BDB78032B10D0032B10DC002B02D05C
:10A1F000012B0AD00BE00198FFF7DCFE0390002151
:10A200000198FFF761FC039B04E0002302E00323B5
:10A2100000E00623184605B05DF804FB00B585B0E4
:10A2200001900091019B002B04D12B4940F2DD20CD
:10A23000FDF7FBF9009B002B04D1274940F2DE20FB
:10A24000FDF7F3F900230393009B1B780E2B39D8FD
:10A2500001A252F823F000BFCBA2020095A2020097
:10A26000CBA20200CBA20200C5A202009DA2020066
:10A27000A9A20200C5A20200C5A20200B5A2020066
:10A28000C5A20200CBA20200CBA20200CBA2020018
:10A29000CBA202000198FFF743FD17E00099019857
:10A2A000FFF7FCFD039011E000990198FFF76EFFA6
:10A2B00003900BE003210198FFF706FC0198FFF7DC
:10A2C0002FFD03E00623039300E000BF039B184625
:10A2D00005B05DF804FB00BF2C2D060010B58AB058
:10A2E00003900291019200930298FFF74CFB034602
:10A2F0001A46C34B1A700298FFF7B8FB0990039BEC
:10A30000002B04D1BF494FF44470FDF78EF9019B37
:10A31000059300230693009B0793039B0893089BD8
:10A320001B68002B00F00C81B3F5647F80F0D986A8
:10A3300040F213329342C0F0D486A3F213337C2B45
:10A3400000F2CF8601A252F823F000BF5FA5020001
:10A3500095A50200CDA502000BA6020041A60200B1
:10A3600077A60200AFA60200E5A60200E3B0020055
:10A37000E3B00200E3B00200E3B00200E3B0020089
:10A38000E3B0020025A702005BA70200E3B00200D1
:10A39000E3B00200E3B00200E3B00200ADA70200A8
:10A3A000E3A7020023A80200E3B00200E3B002002A
:10A3B000E3B002006DA80200A3A80200DBA802001F
:10A3C000E3B00200E3B00200E3B00200E3B0020039
:10A3D00025A9020063A9020097A90200E3B00200C8
:10A3E000E3B00200E3B00200E3B00200E3B0020019
:10A3F000E3B00200D7A90200E3B00200E3B002001C
:10A40000E3B00200E3B0020021AA020055AA020054
:10A4100089AA0200BDAA0200F1AA0200E3B002006C
:10A42000E3B0020025AB020059AB02008DAB020085
:10A43000C1AB0200FFAB0200E3B00200E3B00200D8
:10A4400033AC020067AC02009BAC0200CFAC020050
:10A45000E3B00200E3B0020003AD020037AD02003A
:10A460006BAD0200A1AD0200D7AD0200E3B0020067
:10A47000E3B00200E3B00200E3B00200E3B0020088
:10A48000E3B00200E3B00200E3B00200E3B0020078
:10A49000E3B00200E3B00200E3B00200E3B0020068
:10A4A000E3B00200E3B00200E3B00200E3B0020058
:10A4B000E3B00200E3B0020045AE020079AE020054
:10A4C000E3B00200E3B00200E3B00200CDAE020050
:10A4D000E3B00200E3B00200E3B00200E3B0020028
:10A4E00015AF0200E3B00200E3B00200E3B00200E7
:10A4F000E3B002005FAF0200E3B00200E3B002008D
:10A50000E3B00200E3B00200E3B00200E3B00200F7
:10A510009FAF0200D3AF0200E3B00200E3B002003D
:10A52000E3B00200E3B002001FB00200E3B002009B
:10A53000E3B00200E3B00200E3B002007FB002002B
:10A54000089B08221A71069A079B9A4206D3089B19
:10A5500040F213321A60012300F0C7BD00BF059B13
:10A56000002B05D0089A0599069B0B4412791A70A6
:10A57000069B01330693089B0B221A71069A079BD0
:10A580009A4206D3089B4FF445721A60012300F0EB
:10A59000ACBD00BF059B002B05D0089A0599069B12
:10A5A0000B4412791A70069B01330693089B099A93
:10A5B000127D1A71069A079B9A4206D3089B40F2B5
:10A5C00015321A60012300F090BD00BF059B002BDF
:10A5D00005D0089A0599069B0B4412791A70069BC0
:10A5E00001330693089B02221A71069A079B9A422E
:10A5F0000AD3089B40F216321A60012300F075BDA1
:10A60000500701202C2D060000BF059B002B05D014
:10A61000089A0599069B0B4412791A70069B013320
:10A620000693089B02221A71069A079B9A4206D348
:10A63000089B40F217321A60012300F056BD00BF9C
:10A64000059B002B05D0089A0599069B0B441279AF
:10A650001A70069B01330693089B02221A71069A10
:10A66000079B9A4206D3089B4FF446721A60012357
:10A6700000F03BBD00BF059B002B05D0089A059953
:10A68000069B0B4412791A70069B01330693089BB4
:10A69000099A527E1A71069A079B9A4206D3089B22
:10A6A00040F219321A60012300F01FBD00BF059B64
:10A6B000002B05D0089A0599069B0B4412791A7055
:10A6C000069B01330693089B00221A71069A079B8A
:10A6D0009A4206D3089B40F21A321A60012300F016
:10A6E00004BD00BF059B002B05D0089A0599069B69
:10A6F0000B4412791A70069B01330693964B002285
:10A700001A7000F0E1BC089B09221A71069A079B97
:10A710009A4206D3089B40F221321A60012300F0CE
:10A72000E4BC00BF059B002B05D0089A0599069B49
:10A730000B4412791A70069B01330693089B04227E
:10A740001A71069A079B9A4206D3089B40F222325E
:10A750001A60012300F0C9BC00BF059B002B05D087
:10A76000089A0599069B0B4412791A70069B0133CF
:10A770000693794B1B7819460298FFF70BF90346AD
:10A78000764A1360754B1B68089C1846FFF72CF936
:10A7900003462371069A079B9A4206D3089B40F210
:10A7A00027321A60012300F0A0BC00BF059B002BDC
:10A7B00005D0089A0599069B0B4412791A70069BDE
:10A7C00001330693089B00221A71069A079B9A424E
:10A7D00006D3089B4FF44A721A60012300F085BC2F
:10A7E00000BF059B002B05D0089A0599069B0B44DA
:10A7F00012791A70069B01330693584B1B68089C0C
:10A800001846FFF7F8F803462371069A079B9A4209
:10A8100006D3089B40F229321A60012300F065BC80
:10A8200000BF059B002B05D0089A0599069B0B4499
:10A8300012791A70069B01330693099B1C7D474BC6
:10A840001B681846FFF7D0F803469C4252D1089B7C
:10A8500002221A71069A079B9A4206D3089B40F27D
:10A860002D321A60012300F040BC00BF059B002B75
:10A8700005D0089A0599069B0B4412791A70069B1D
:10A8800001330693089B02221A71069A079B9A428B
:10A8900006D3089B40F22E321A60012300F025BC3B
:10A8A00000BF059B002B05D0089A0599069B0B4419
:10A8B00012791A70069B01330693089B099A527EFF
:10A8C0001A71069A079B9A4206D3089B40F22F32D0
:10A8D0001A60012300F009BC00BF059B002B05D0C6
:10A8E000089A0599069B0B4412791A70069B01334E
:10A8F000069362E0099B9C7D184B1B681846FFF786
:10A9000073F803469C4253D1089B0A221A71069A97
:10A91000079B9A4205D3089B4FF44D721A6001239E
:10A92000E3E300BF059B002B05D0089A0599069B21
:10A930000B4412791A70069B01330693089B002280
:10A940001A71069A079B9A420AD3089B40F2353245
:10A950001A600123C9E300BF5107012054070120F9
:10A9600000BF059B002B05D0089A0599069B0B4458
:10A9700012791A70069B01330693089B00221A7104
:10A98000069A079B9A4205D3089B40F236321A601A
:10A990000123AAE300BF059B002B05D0089A059967
:10A9A000069B0B4412791A70069B0133069304E050
:10A9B000904940F23A30FCF738FE089B00221A71A9
:10A9C000069A079B9A4205D3089B40F23D321A60D3
:10A9D00001238AE300BF059B002B05D0089A059947
:10A9E000069B0B4412791A70069B01330693099B50
:10A9F0001C7D814B1B681846FEF7F6FF03469C4200
:10AA000040F0F681089B05221A71069A079B9A422C
:10AA100005D3089B40F242321A60012365E300BF70
:10AA2000059B002B05D0089A0599069B0B441279CB
:10AA30001A70069B01330693089B24221A71069A0A
:10AA4000079B9A4205D3089B40F243321A600123C8
:10AA50004BE300BF059B002B05D0089A0599069B88
:10AA60000B4412791A70069B01330693089B00224F
:10AA70001A71069A079B9A4205D3089B4FF45172AC
:10AA80001A60012331E300BF059B002B05D0089A13
:10AA90000599069B0B4412791A70069B01330693A5
:10AAA000089B10221A71069A079B9A4205D3089BAD
:10AAB00040F245321A60012317E300BF059B002BCB
:10AAC00005D0089A0599069B0B4412791A70069BCB
:10AAD00001330693089B01221A71069A079B9A423A
:10AAE00005D3089B40F246321A600123FDE200BF05
:10AAF000059B002B05D0089A0599069B0B441279FB
:10AB00001A70069B01330693089B05221A71069A58
:10AB1000079B9A4205D3089B40F249321A600123F1
:10AB2000E3E200BF059B002B05D0089A0599069B20
:10AB30000B4412791A70069B01330693089B24225A
:10AB40001A71069A079B9A4205D3089B40F24A3233
:10AB50001A600123C9E200BF059B002B05D0089AAB
:10AB60000599069B0B4412791A70069B01330693D4
:10AB7000089B01221A71069A079B9A4205D3089BEB
:10AB800040F24B321A600123AFE200BF059B002B5D
:10AB900005D0089A0599069B0B4412791A70069BFA
:10ABA00001330693089B03221A71069A079B9A4267
:10ABB00005D3089B4FF453721A60012395E200BF3E
:10ABC000059B002B05D0089A0599069B0B4412792A
:10ABD0001A70069B01330693089B099A927D1A719D
:10ABE000069A079B9A4209D3089B40F24D321A609D
:10ABF00001237AE22C2D06005407012000BF059B9B
:10AC0000002B05D0089A0599069B0B4412791A70FF
:10AC1000069B01330693089B04221A71069A079B30
:10AC20009A4205D3089B4FF454721A6001235CE2E8
:10AC300000BF059B002B05D0089A0599069B0B4485
:10AC400012791A70069B01330693089B24221A710D
:10AC5000069A079B9A4205D3089B40F251321A602C
:10AC6000012342E200BF059B002B05D0089A0599FD
:10AC7000069B0B4412791A70069B01330693089BBE
:10AC800002221A71069A079B9A4205D3089B40F24A
:10AC900052321A60012328E200BF059B002B05D029
:10ACA000089A0599069B0B4412791A70069B01338A
:10ACB0000693089B02221A71069A079B9A4205D3B3
:10ACC000089B40F253321A6001230EE200BF059B3D
:10ACD000002B05D0089A0599069B0B4412791A702F
:10ACE000069B01330693089B05221A71069A079B5F
:10ACF0009A4205D3089B40F256321A600123F4E1D0
:10AD000000BF059B002B05D0089A0599069B0B44B4
:10AD100012791A70069B01330693089B24221A713C
:10AD2000069A079B9A4205D3089B40F257321A6055
:10AD30000123DAE100BF059B002B05D0089A059995
:10AD4000069B0B4412791A70069B01330693089BED
:10AD500006221A71069A079B9A4205D3089B4FF464
:10AD600056721A600123C0E100BF059B002B05D07D
:10AD7000089A0599069B0B4412791A70069B0133B9
:10AD80000693089B099A127D1A71069A079B9A42AC
:10AD900005D3089B40F259321A600123A5E100BF98
:10ADA000059B002B05D0089A0599069B0B44127948
:10ADB0001A70069B01330693089B099A927D1A71BB
:10ADC000069A079B9A4205D3089B40F25A321A60B2
:10ADD00001238AE100BF059B002B05D0089A059945
:10ADE000069B0B4412791A70069B013306930EE002
:10ADF000099B9C7D9C4B1B681846FEF7F5FD03469E
:10AE00009C4204D0994940F26330FCF70EFC964B0B
:10AE10001B681846FEF7EFFD03461A46944B1A705E
:10AE2000944B00221A7042E1089B07221A71069A7D
:10AE3000079B9A4205D3089B40F26E321A600123A9
:10AE400053E100BF059B002B05D0089A0599069B8E
:10AE50000B4412791A70069B01330693089B052256
:10AE60001A71069A079B9A4205D3089B40F26F32EB
:10AE70001A60012339E100BF059B002B05D0089A19
:10AE80000599069B0B4412791A70069B01330693B1
:10AE9000754B1B68774A127811461846FEF7B2FDCB
:10AEA0000346754A1360744B1B68089C1846FEF7EE
:10AEB000CFFD03462371069A079B9A4205D3089B50
:10AEC00040F273321A6001230FE100BF059B002B93
:10AED00005D0089A0599069B0B4412791A70069BB7
:10AEE00001330693099B1C7D5F4B1B681846FEF7D8
:10AEF0007BFD03469C421AD1089B03221A71069AD5
:10AF0000079B9A4205D3089B4FF45E721A60012397
:10AF1000EBE000BF059B002B05D0089A0599069B26
:10AF20000B4412791A70069B0133069329E0099BA2
:10AF30009C7D4D4B1B681846FEF756FD03469C4210
:10AF40001AD1089B02221A71069A079B9A4205D3CE
:10AF5000089B40F27D321A600123C6E000BF059BCA
:10AF6000002B05D0089A0599069B0B4412791A709C
:10AF7000069B0133069304E03C4940F28130FCF724
:10AF800054FB089B40221A71069A079B9A4205D3EC
:10AF9000089B4FF461721A600123A6E000BF059B75
:10AFA000002B05D0089A0599069B0B4412791A705C
:10AFB000069B01330693089B00221A71069A079B91
:10AFC0009A4205D3089B40F285321A6001238CE037
:10AFD00000BF059B002B05D0089A0599069B0B44E2
:10AFE00012791A70069B01330693099B1C7D1E4B38
:10AFF0001B681846FEF7F8FC03469C421CD1099BCF
:10B000001A6A089B12781A71069A079B9A4205D30E
:10B01000089B40F28A321A60012366E000BF059B5C
:10B02000002B05D0089A0599069B0B4412791A70DB
:10B03000069B0133069334E0099B9C7D0A4B1B68F9
:10B040001846FEF7D1FC03469C4225D1089B0022FE
:10B050001A71069A079B9A4210D3089B40F28F32CE
:10B060001A60012341E000BF540701202C2D060087
:10B0700058070120590701205C07012000BF059BEC
:10B08000002B05D0089A0599069B0B4412791A707B
:10B09000069B0133069304E0154940F29330FCF718
:10B0A000C4FA144B1B780133DAB2124B1A70114BED
:10B0B0001A78114B1B789A42FFF4B6AE0F4B1B78EF
:10B0C0000133DAB20D4B1A700C4B1A780C4B1B780B
:10B0D0009A42FFF418AB089B40F29A321A6001239F
:10B0E00003E0089B00221A60002318460AB010BD36
:10B0F0002C2D060059070120580701205107012077
:10B100005007012000B58FB003900291019203987F
:10B11000FEF7A5FC0D900398FEF7BAFC0C900C9B73
:10B120009B8A03F00103002B14BF012300238DF839
:10B130002F309DF82F3083F00103DBB2002B01D0BC
:10B14000082327E00D98FEF7EDFC03468DF82E301E
:10B15000019B03F03F03002B0ED1029B0893019B40
:10B16000099301230A9308AA9DF82E301146184628
:10B17000FEF7CAFA03460DE0029B0593019B069376
:10B180000023079305AA9DF82E3011461846FEF7B6
:10B19000BBFA034618460FB05DF804FB00B585B056
:10B1A00001900198FEF774FC0390039B5B6F1846B7
:10B1B00005B05DF804FB000000B58BB00390029170
:10B1C0000192029B002B04D1454940F2D730FCF795
:10B1D0002CFA0398FEF75CFC0890089B9B8A03F00E
:10B1E0000103002B01D1082375E0089B9B69002B0C
:10B1F00061D1089BDB6E019A9A4218D8089B9B6E1E
:10B20000019A1946029836F08FFA089BDA6E019B74
:10B21000D21A089BDA66089B9A6E019B1A44089B17
:10B220009A66089B019A5A670023099352E0089B8B
:10B23000029A9A61089B019ADA610398FEF70FFC63
:10B2400003461846FEF783FC03468DF81F30254B56
:10B250000593089B0693089BDB6E002B1DD0089B73
:10B260009869089B996E089BDB6E1A4636F05CFA6B
:10B27000089BDA69089BDB6ED21A089BDA61089B8F
:10B280009A69089BDB6E1A44089B9A61089BDA6EE8
:10B29000089B1A67089B0022DA6605AA9DF81F30F2
:10B2A00011461846FEF756FA0990099B002B11D15A
:10B2B000922309930EE0089B1B6A002B08D1089B80
:10B2C000029A1A62089B019A5A629223099301E03A
:10B2D00011230993099B18460BB05DF804FB00BFCE
:10B2E0002C2D0600419F020082B00190019B03F1CA
:10B2F000804303F51C33184602B0704700B583B095
:10B3000003468DF807309DF807301846FFF7ECFF2D
:10B31000034601221A60BFF36F8F00BFBFF34F8F48
:10B3200000BF00BF03B05DF804FB82B003468DF898
:10B3300007309DF8073003F01F03DBB2184602B058
:10B34000704782B003468DF807309DF807305B09DF
:10B3500003F00303DBB2184602B0704782B0034625
:10B360008DF807309DF80730DB09DBB2184602B0D4
:10B37000704782B00190019B1B7A184602B070475B
:10B3800082B00190019B1B68184602B07047000014
:10B3900000B583B00190019B002B04D1064940F217
:10B3A0004320FCF742F90198FFF7EAFF03461B68C8
:10B3B000184603B05DF804FBAC2D060082B0019086
:10B3C000019B1B78184602B07047000000B583B09F
:10B3D00003468DF807300E4B1B789DF807209A42E4
:10B3E00011D00B4A9DF8073013709DF80730052BDC
:10B3F00006D0084B1B7823F00203DAB2054B1A7013
:10B400000548FDF7A9FC00BF03B05DF804FB00BFD1
:10B410006007012061070120B02E0600014B1B7858
:10B4200018467047600701204FF08043D3F8383446
:10B4300003F00103002B14BF01230023DBB21846E5
:10B4400070470000024B00221A6000BF704700BF27
:10B45000A807012000B585B003468DF807300B4BD7
:10B460001B680393039B002B0AD0FFF7EBFF074BEE
:10B4700059689DF80720039B10469847034600E053
:10B480000E23184605B05DF804FB00BFA807012095
:10B49000044B1B68002B14BF01230023DBB21846AA
:10B4A000704700BFA807012082B0034600918DF8C5
:10B4B00007300023184602B07047000010B58EB068
:10B4C00003900291019201238DF83730029B09937A
:10B4D000099B5B68002B15D1099B1B681846FFF779
:10B4E00057FF0346002B0DD1099B9B68002B09D108
:10B4F00000238DF83730039B00221A60039B002243
:10B500005A60AAE0019B402B04D9564940F297109B
:10B51000FCF78BF800230C9300238DF82B3009F0F7
:10B5200013FB0890099BDB68019A934228BF1346DE
:10B530000B9386E0099B9B680B9A934228BF1346A6
:10B540000793099B5B68002B0CD0089A0C9BD018C2
:10B55000099B5B68079A194636F0E6F8099B0022BA
:10B560005A6014E0099B9B68002B10D0099B1B6854
:10B570005B685C68099B03F11000099B1968089AD5
:10B580000C9B1A44079BA04701238DF82B30099B85
:10B590009A68079BD21A099B9A60099BDA68079BF5
:10B5A000D21A099BDA600B9A079BD31A0B930C9A59
:10B5B000079B13440C93099B9B68002B0BD19DF8B0
:10B5C0002B30002B07D0099B1B681846FFF7E0FEC5
:10B5D0000246099B1A60099BDB68002B03D10023FC
:10B5E0008DF837302DE0099B9B68002B29D1099BF2
:10B5F0001B68002B0DD1099B00225A600C9B002B6D
:10B6000024D00C9A019B9A4220D200238DF8373027
:10B610001CE00023059304E0099B9B685A1C099BCE
:10B620009A60099B1B685B685C68099B196805A8A0
:10B6300001230022A0470346002BEDD1099B0022E5
:10B640001A610B9B002B7FF475AF00E000BF039BDA
:10B65000089A1A60039B0C9A5A609DF83730184676
:10B660000EB010BD002E060000B587B00190019B02
:10B670005B781846FFF765FE0346002B01D00623D2
:10B6800083E0019B5B798DF81730FFF7C7FE034617
:10B690008DF81630019B9B78032B29D0032B6EDC91
:10B6A000002B02D0012B44D069E09DF81630052B09
:10B6B00005D09DF8173003F00F03002B16D103AB14
:10B6C000184600F029FD04909DF81730184609F03F
:10B6D00089FA03469AB2049B1A80019B0133022225
:10B6E0000499184600F0ACFC03464EE008234CE0F9
:10B6F0009DF8173003F00803002B42D1019BB3F8EB
:10B7000003309BB2002B3CD19DF8173003F00F03A0
:10B71000002B01D1062338E09DF81630052B06D109
:10B720009DF81730184609F028FA00232DE0082369
:10B730002BE09DF8173003F00803002B23D1019B69
:10B74000B3F803309BB2002B1DD19DF8173003F0E6
:10B750000F03002B01D1062317E09DF81630052BAF
:10B760000BD19DF81730184609F04FFA9DF81730A5
:10B77000184609F014FA002307E0082305E000BF8B
:10B7800002E000BF00E000BF0623184607B05DF8E6
:10B7900004FB00B58BB003900B4601928DF80B3083
:10B7A000019B5B781846FFF7CCFD0346002B01D0C8
:10B7B00006236AE0FFF732FE03468DF82730019B2F
:10B7C0005B781846FFF7CAFD0346012B3BD1019B6E
:10B7D0009B78002B02D00A2B17D055E09DF827301C
:10B7E000052B01D0082350E006AB184600F094FC6E
:10B7F0000790079B00221A80019B013302220799C0
:10B80000184600F01DFC03463FE09DF82730052B4D
:10B8100001D0082339E005AB184600F07DFC089004
:10B820009DF80B3019460398FEF702F803461A46B6
:10B83000089B1A70019B013301220899184600F0F9
:10B84000FFFB034621E0019B9B780B2B1BD19DF84E
:10B850002730052B01D0082317E0019BB3F80330F4
:10B860009BB2FF2B01D907230FE0019BDB788DF8FA
:10B8700026309DF826209DF80B3019460398FDF7D9
:10B880008FFF034601E000BF062318460BB05DF8AA
:10B8900004FB000000B585B00190009102AB184692
:10B8A00000F03AFC0390029B012B04D8184940F2A7
:10B8B0009F20FBF7BAFE02220021039835F05DFFBE
:10B8C000C02303F04003002B06D0039B1B7843F0FA
:10B8D0000103DAB2039B1A700E4B1B785B08DBB2D4
:10B8E00003F00103002B06D0039B1B7843F00203F7
:10B8F000DAB2039B1A70009B0133022203991846A7
:10B9000000F09EFB0346184605B05DF804FB00BF3F
:10B91000002E06006107012010B58EB00190009145
:10B92000009B1B79032B00F0BC80032B00F3E78006
:10B93000012B02D0022B11D0E1E0009BB3F80730BD
:10B940009BB2002B01D10023DBE0009B01331222CC
:10B950006D49184600F074FB0346D2E0009BB3F833
:10B9600007309BB2002B01D10023CAE0009BB3F843
:10B9700007309BB2092B28BF09239BB206930923EA
:10B980000D9300238DF83330FDF7F2FD0B9037E077
:10B990000B9B5B68002B04D15C4940F2D120FBF784
:10B9A00044FE0B9B5B685B68002B04D1574940F257
:10B9B000D220FBF73AFE00230A930023029302E011
:10B9C0000A9B01330A930B9B5B685C6802A8012306
:10B9D00000220B99A0470346002BF1D10D9A0A9B38
:10B9E00013440D930B98FFF7C4FC03461A469DF8C9
:10B9F000333013448DF833300B98FFF7C9FC0B90AC
:10BA00000B9B002BC4D104AB184600F085FB0590BE
:10BA1000049B069A9A4204D93C4940F2E720FBF77E
:10BA200004FE069A3A49059835F07EFE059B9DF87E
:10BA300033201A710D9B9AB2059B5A80FDF760FD69
:10BA40000346002B06D0059BDB7943F02003DAB2D6
:10BA5000059BDA71FDF78CFD03462E4A13602D4AD3
:10BA6000059B53602B4A069B9360009BB3F80730FD
:10BA70009BB21A46274BDA600020FBF773FD26497C
:10BA80008020FDF767FE0990099B002B04D1234914
:10BA9000802000F023FB09900020FBF777FD099B35
:10BAA0002FE0009BB3F807309BB2002B01D100239D
:10BAB00027E0009BDB788DF82330009B5A799B7937
:10BAC0001B021343ADF82030BDF820209DF8233031
:10BAD0001146184600F0D8FB0790079B002B01D1B8
:10BAE00006230EE0009B5C1C0798FFF767FC0346EB
:10BAF0001A460799204600F0A3FA034601E000BF6A
:10BB0000062318460EB010BD5C2E0600002E06005F
:10BB1000702E0600BC070120A82E0600A02E0600ED
:10BB200000B587B00190009103AB184600F0F4FA1D
:10BB30000590FFF773FC03468DF813309DF8133022
:10BB4000052B03D1059B01221A7009E09DF81330E3
:10BB5000042B03D1059B00221A7001E0062307E0A5
:10BB6000009B013301220599184600F069FA03464B
:10BB7000184607B05DF804FB00B585B00190009150
:10BB8000FFF74CFC03468DF80F309DF80F30052B66
:10BB900005D09DF80F30042B01D0082316E0009B40
:10BBA000DB78002B05D1FDF79DFE0420FFF70EFC8E
:10BBB0000BE0009BDB78012B05D1FDF759FE05203A
:10BBC000FFF704FC01E0072300E00023184605B05E
:10BBD0005DF804FB00B583B001900091019B002B40
:10BBE00004D150494FF45A70FBF71FFD009B002B06
:10BBF00004D14C4940F26930FBF717FD009B5B789C
:10BC00001846FFF79EFB0346002B01D0062385E074
:10BC1000009B5B781846FFF7A1FB0346012B1FD161
:10BC2000009B9B78082B12D0082B16DC002B02D02F
:10BC3000062B06D011E000990198FFF72BFE034672
:10BC40006CE000990198FFF767FE034666E00099F3
:10BC50000198FFF765FF034660E000BF06235DE043
:10BC6000009B9B78013B082B52D801A252F823F08D
:10BC7000D3BC020011BD0200A1BC020011BD020034
:10BC800095BC020011BD020011BD020011BD0200F1
:10BC900005BD020023494FF46370FBF7C6FC3CE08E
:10BCA000009BB3F803309BB2012B33D1FDF728FC86
:10BCB000034683F00103DBB2002B01D00F232DE0FC
:10BCC000194B1B7843F00203DAB2174B1A700023AA
:10BCD00024E0009BB3F803309BB2012B1CD1FDF78D
:10BCE0000FFC034683F00103DBB2002B01D00F23CE
:10BCF00014E00D4B1B7823F00203DAB20A4B1A70E2
:10BD000000230BE000990198FFF736FF034605E09A
:10BD100000BF02E000BF00E000BF0623184603B0EA
:10BD20005DF804FB002E06006107012000B58BB012
:10BD300001900623099305238DF8103004AB0133DD
:10BD4000184608F071FFFFF7A3FBFFF77BFB9DF898
:10BD500011301846FFF7E9FA0346032B63D801A216
:10BD600052F823F075BD020093BD0200E1BD020050
:10BD70001BBE020004AB19460198FFF72BFF099088
:10BD8000099B062B51D104AB1846FDF79EFC099088
:10BD90004BE09DF815308DF822300DF10F029DF823
:10BDA000223011461846FDF7F5FB0790079B002B44
:10BDB00002D1102309933AE09DF80F3004AA1946E6
:10BDC0000798FDF72BFC0990099B062B2FD19DF8B6
:10BDD0000F3004AA19460798FFF7DBFC099026E00C
:10BDE000062309939DF815308DF823309DF82330F4
:10BDF00003F00F03002B07D004AA9DF8233011464F
:10BE00001846FDF71BFC0990099B062B11D104ABCA
:10BE10001846FFF729FC09900BE004AB1846FDF724
:10BE200054FC099006E000BF04E000BF02E000BF40
:10BE300000E000BF099B002B0FD1FFF729FB034651
:10BE4000002B07D008F02CFF0346002B07D108F089
:10BE500015FF04E008F018FF01E008F01BFF099B44
:10BE600018460BB05DF804FB00B585B00190009159
:10BE700006230393009B1B780E2B25DC002B40F33D
:10BE8000BD80013B0D2B00F2B98001A252F823F0D6
:10BE9000CFBE0200D7BE0200DDBE0200FDBF020021
:10BEA00023BF0200A5BF0200FDBF0200FDBF0200CC
:10BEB000FDBF0200FDBF02002DBF020047BF020010
:10BEC00067BF020085BF0200852B1DD096E00320CE
:10BED000FFF77CFA99E00023039396E04D48FBF7C7
:10BEE00057FC0346002B02D05C20FFF707FAFFF750
:10BEF00095FA0346002B04D1474940F24240FBF734
:10BF000094FB0023039380E0FFF788FA03468DF843
:10BF10000B309DF80B30032B72D10420FFF756FA3B
:10BF20006EE00198FFF702FF03906EE0FFF776FAEC
:10BF30000346002B04D0384940F25640FBF775FB0E
:10BF40000023039361E0FFF769FA0346012B04D055
:10BF5000314940F25C40FBF768FB0020FFF736FAFE
:10BF60000023039351E0FFF75FFA0346002B03D051
:10BF70000220FFF72BFA02E00120FFF727FA002347
:10BF8000039342E0FFF74AFA0346012B04D8224903
:10BF90004FF48E60FBF749FB0120FFF717FA0023EF
:10BFA000039332E0009BDB78032B2BD0009B9B7824
:10BFB000002B08D0009B9B78802B04D0164940F2C0
:10BFC0007E40FBF732FB009BDB781846FFF742FA16
:10BFD0000390039B002B0ED1FFF75AFA0346002B68
:10BFE00006D0009B9B78002B0ED108F047FE0BE09B
:10BFF00008F04AFE08E008F04DFE05E000BF04E04E
:10C0000000BF02E000BF00E000BF039B184605B080
:10C010005DF804FB64070120002E060008B500202F
:10C02000FDF77AFA8020FDF777FA00BF08BD08B562
:10C030000020FDF78FFA8020FDF78CFA00BF08BDC5
:10C0400000B58DB0039002910192039BDB889BB2F7
:10C050000A93019A0A9B934228BF13460993019AB7
:10C060000A9B9A420ED2802008F0A0FB03461A4693
:10C07000019BB3FBF2F101FB02F29B1A002B01D1F1
:10C08000012300E000238DF823309DF8233003F0D6
:10C0900001038DF82330029B0593099B06939DF8BD
:10C0A000233007930020FBF75DFA05AB194680208B
:10C0B000FDF72AFB0B900B9B002B04D10649802037
:10C0C00000F00CF80B900020FBF760FA0B9B184671
:10C0D0000DB05DF804FB00BFA02E060000B583B0D4
:10C0E000034600918DF8073008F0DAFD03461A4642
:10C0F0009DF80730934201D0102306E0054B009ACB
:10C1000092E8030083E803000023184603B05DF8BB
:10C1100004FB00BFA807012082B00190019B002B07
:10C1200002D0019B40221A60014B184602B07047B2
:10C130006807012000B585B00190002303930BE050
:10C14000019A039B13441978094A039B13440A4636
:10C150001A70039B01330393019835F068FB024684
:10C16000039B9342ECD300BF00BF05B05DF804FB16
:10C17000D407012000B589B04FF08053D3F8A83020
:10C180009BB26FEA83436FEA9343ADF81E304FF0E2
:10C190008053D3F8A4300693BDF81E2002A8069B56
:10C1A00000931346054A0D2135F02AFA02AB1846D2
:10C1B000FFF7C0FF00BF09B05DF804FBB42E060016
:10C1C00000B587B003460A468DF807301346ADF830
:10C1D00004309DF80720BDF804302949134451F874
:10C1E00023301B78002B09D19DF80720BDF80430BF
:10C1F0002349134451F8233002333DE00020FFF778
:10C200008BFF039000238DF817309DF80720BDF8B1
:10C2100004301B49134451F82330049318E09DF86F
:10C2200017301E2B03D91749FC20FBF7FEF99DF8A8
:10C23000173001338DF81730049B19789DF81730AB
:10C240005B00039A13448AB21A80049B013304935F
:10C25000049B1B78002BE2D19DF8173001339BB271
:10C260005B009BB21BB2DBB21BB243F440731BB248
:10C270009AB2039B1A80039B184607B05DF804FB33
:10C280001C000120202F060000B585B003460A4699
:10C290008DF807301346ADF804309DF80730002BB9
:10C2A00005D100210020FFF78BFF034640E000236B
:10C2B0008DF80D3000238DF80F3000238DF80E30EF
:10C2C00016E09DF80E301C4A12F813309DF8072036
:10C2D0009A4208D19DF80E30174A5B0013445B78F0
:10C2E0008DF80F3008E09DF80E3001338DF80E30D8
:10C2F0009DF80E30052BE4D99DF80F30002B01D1AD
:10C30000002315E09DF80F209DF80D300B491344D4
:10C3100051F82330002B01D1002309E09DF80D30A6
:10C320009AB29DF80F3011461846FFF749FF0346B1
:10C33000184605B05DF804FBC02E06001C00012065
:10C3400086B001900091019B53E8011F8AB2D88901
:10C3500002449889824228BF121A1889824202BF79
:10C36000BFF32F8F002307E0C2EA010243E8012058
:10C370000028E9D14FF001038DF80F3005900291AC
:10C380000492029A009B1A609DF80F30DBB21846A7
:10C3900006B0704784B00190019951E8013FC3EAAB
:10C3A000034341E80132002AF7D10392029300BF10
:10C3B00004B0704786B001900091019B53E8021FC2
:10C3C0001FFAA1F2D888824202BFBFF32F8F002349
:10C3D0000DE0D88902449889824228BF121AC1EA26
:10C3E000024243E802200028E8D14FF001038DF813
:10C3F0000F30059002910492029A009B1A609DF8FA
:10C400000F30DBB2184606B0704784B00190019936
:10C4100051E8023FC3EA234341E80232002AF7D140
:10C420000392029300BF04B0704784B0039002915E
:10C4300011461A460B46ADF806301346ADF80430E7
:10C44000029B002B01D10E231FE0BDF80630BDF882
:10C450000420B3FBF2F101FB02F29B1A9BB2002B0A
:10C4600001D0092311E0039B029A1A60039B00226A
:10C470005A60039B00229A60039BBDF806209A81B4
:10C48000039BBDF80420DA810023184604B07047EE
:10C4900000B585B001900091009B19460198FFF707
:10C4A0004FFF0346002B07D0019B1B68009A1288A0
:10C4B00013440393039B00E00023184605B05DF886
:10C4C00004FB00B583B001900091009B1A88009B8B
:10C4D0005B889A4204D10198FFF75CFF012300E0DA
:10C4E0000023184603B05DF804FB00B585B0019049
:10C4F0000091009B19460198FFF75CFF0346002B53
:10C5000007D0019B1B68009A528813440393039B36
:10C5100000E00023184605B05DF804FB00B583B0C9
:10C5200001900091009B1A88009B5B889A4204D17D
:10C530000198FFF76AFF012300E00023184603B0CB
:10C540005DF804FB4FF08043D3F818341B0C03F064
:10C550000103002B14BF01230023DBB218467047F0
:10C5600008B5FFF7EFFF0346184608BD044BD3F8A4
:10C570000034002B14BF01230023DBB218467047A0
:10C580000000014008B500F075FC00BF08BD0000C8
:10C5900008B500F089FC024B00225A7000BF08BDAC
:10C5A000E4070120014B1B7818467047E40701207F
:10C5B00000B583B000230193144B1B78002B02D0ED
:10C5C0008523019314E0114B00229A600F4B002247
:10C5D0005A600E4B00221A610C4B0022DA600C48A4
:10C5E00000F0EEFB019000F011FC084B01221A70E4
:10C5F000FFF7BCFF0346002B02D0044B01229A70C8
:10C60000019B184603B05DF804FB00BFE40701205E
:10C6100071C8020084B001900091019B1B680393D4
:10C6200006E0039A009B9A420DD0039B1B6803937C
:10C63000039B002BF5D1019B1A68009B1A60019B9C
:10C64000009A1A6000E000BF04B0704784B0019007
:10C65000019B1B680393039B002B03D0039B1A6869
:10C66000019B1A60039B184604B0704700B583B065
:10C670000190224B1B78002B03D12149F620FAF7B9
:10C68000D4FF1E4B9B78DBB2002B12D0019B002BFA
:10C6900003D0019B5B68012098470020FAF762FFF6
:10C6A000164BDB680133154AD3600020FAF76EFFA2
:10C6B00017E00020FAF756FF019B002B03D00199E9
:10C6C0001048FFF7A7FF0D4BDB68002B01D100F0EE
:10C6D000B7FB0A4BDB680133084AD3600020FAF746
:10C6E00055FF064BDB68002B04D105494FF48970D8
:10C6F000FAF79BFF00BF03B05DF804FBE4070120DD
:10C70000802F0600F407012008B5074B1B78002B8B
:10C7100004D1064940F22510FAF787FFFFF720FF02
:10C720000346184608BD00BFE4070120802F06001D
:10C7300000B583B00190234B1B78002B04D1224914
:10C7400040F23310FAF771FF1E4B5B78DBB2002B1F
:10C7500012D0019B002B03D0019B5B6800209847FF
:10C760000020FAF7FFFE174B5B680133154A536050
:10C770000020FAF70BFF17E00020FAF7F3FE019B09
:10C78000002B03D001991148FFF744FF0D4B5B6864
:10C79000002B01D1FFF7F6FE0A4B5B680133094A13
:10C7A00053600020FAF7F2FE064B5B68002B04D1C1
:10C7B000054940F24F10FAF738FF00BF03B05DF8AB
:10C7C00004FB00BFE4070120802F0600EC070120D6
:10C7D00008B5124B1B78002B04D111494FF4AA70F5
:10C7E000FAF723FF0D4B5B68002B04D10C4940F294
:10C7F0005510FAF71AFF0020FAF7B4FE074B5B68F2
:10C80000013B064A5360054B5B68002B01D1FFF7E3
:10C81000BFFE0020FAF7BAFE00BF08BDE407012002
:10C82000802F060000B585B003468DF807309DF8CF
:10C830000730002B02D10C4B039301E00B4B039309
:10C840000398FFF703FF0290029B002B06D0029B88
:10C850005B689DF8072010469847F1E700BF00BFCE
:10C8600005B05DF804FB00BFEC070120F4070120D0
:10C8700000B583B003468DF807309DF80730002BD4
:10C8800005D10A4B01225A700020FFF7CBFF9DF81B
:10C890000730012B05D1054B01229A700120FFF7CB
:10C8A000C1FF00BF03B05DF804FB00BFE407012037
:10C8B00000B583B003468DF807300DF10703194624
:10C8C0000748FBF78BFA0648FBF764FA0346002B90
:10C8D00001D001F04DFB00BF03B05DF804FB00BFC9
:10C8E000A428060000B585B0019000230393124BE5
:10C8F0001B78002B01D0852319E0019B002B01D16F
:10C900000E4B01930C4B019A013312881A800C498B
:10C910000C4801F0D5FA0390039B002B01D0039B38
:10C9200005E001F00BFB044B01221A70039B184633
:10C9300005B05DF804FB00BFF8070120D82F060002
:10C94000B1C80200F907012000B583B00190094B7E
:10C950001B78012B03D00849A320FAF766FE07488D
:10C96000FBF7B2FB0346DAB2019B1A7000BF03B0BB
:10C970005DF804FBF8070120DC2F0600A428060060
:10C9800000B585B001900B468DF80330002303936A
:10C99000104B1B78012B03D00F49B720FAF745FE47
:10C9A0009DF803301A4601990C48FBF755FB03909C
:10C9B00001F0C4FA039B002B06D0039B052B03D088
:10C9C0000549D120FAF731FE039B184605B05DF802
:10C9D00004FB00BFF8070120DC2F0600A428060096
:10C9E00000BF044BD3F80034002BFAD000BF00BFC7
:10C9F000704700BF00E0014000B583B001900F4BCD
:10CA00000222C3F80425BFF36F8F00BFBFF34F8F1F
:10CA100000BF0A4A019BC2F80835FFF7E1FF074B48
:10CA20000022C3F80425BFF36F8F00BFBFF34F8F01
:10CA300000BF00BF03B05DF804FB00BF00E0014091
:10CA400000B587B0039002910192174B0122C3F801
:10CA50000425BFF36F8F00BFBFF34F8F00BF0023CC
:10CA600005930EE0059B9B00029A1344059A9100E2
:10CA7000039A0A441B681360FFF7B2FF059B01335A
:10CA80000593059A019B9A42ECD3074B0022C3F809
:10CA90000425BFF36F8F00BFBFF34F8F00BF00BFF0
:10CAA00007B05DF804FB00BF00E0014082B0034620
:10CAB0008DF807309DF90730002B0DDB9DF807300E
:10CAC00003F01F0206499DF907305B09012000FAB7
:10CAD00002F2603341F8232000BF02B0704700BF6C
