:020000022000DC
:10700000000004205D730200B9730200BB7302002C
:10701000BD730200BF730200C173020000000000D4
:10702000000000000000000000000000C373020028
:10703000C573020000000000C7730200C97302009C
:10704000614D0300CB730200A5EA0200091303009F
:1070500021130300CB7302009DE90200B117030066
:10706000510303006903030081030300CB73020093
:10707000CB730200E1ED0200CB730200CB73020080
:10708000ED0603004DF30200CB730200CB73020048
:10709000CB730200CB730200CB730200CB730200F0
:1070A000CB730200CB73020099030300B10303000A
:1070B000CB730200CB730200000000000000000050
:1070C000CB730200CB730200CB730200CB730200C0
:1070D00061F30200CB730200CB730200DD3C0300BE
:1070E0007D060300CB730200CB730200000000009A
:1070F00000000000CB73020000000000A9FA0200AB
:10710000000000000000000000000000000000007F
:10711000000000000000000000000000000000006F
:10712000000000000000000000000000000000005F
:10713000000000000000000000000000000000004F
:10714000000000000000000000000000000000003F
:10715000000000000000000000000000000000002F
:10716000000000000000000000000000000000001F
:10717000000000000000000000000000000000000F
:1071800000000000000000000000000000000000FF
:1071900000000000000000000000000000000000EF
:1071A00000000000000000000000000000000000DF
:1071B00000000000000000000000000000000000CF
:1071C00000000000000000000000000000000000BF
:1071D00000000000000000000000000000000000AF
:1071E000000000000000000000000000000000009F
:1071F000000000000000000000000000000000008F
:10720000354936480A1A02D0072291438D4634493F
:1072100034480A1A06D00722914381F309880222D2
:1072200082F3148830483149314A00F044F831483B
:107230003149324A00F03FF831483249324A00F0D1
:107240003AF832483249334A00F035F83248334987
:10725000334A00F030F833483349344A00F02BF811
:1072600033483449344A00F026F83448344900227F
:1072700000F02CF833483449002200F027F8334856
:107280003349091A082902DB002202604160314AB1
:1072900090471F481F49884205D00268043003B454
:1072A000904703BCF7E700208646EC46002000210B
:1072B000294A9047FEE7884207D0521A05D0037842
:1072C00001300B700131013AF9D17047884202D088
:1072D00002700130FAE770470000042000E003204C
:1072E000000004200000042018880300140001207E
:1072F0005B000120D0730200D0730200C874030049
:10730000188803001400012014000120F074030009
:10731000F0740300F0740300F0740300F0740300D1
:10732000F0740300F0740300F07403001888030085
:10733000608803005C0001205C0001205C000120EB
:10734000D4090120D4090120D8090120D80901203D
:10735000D8290120857302006F4D030000F036B874
:107360000F484FF00701884385460E4880470E4876
:10737000016841F470010160BFF34F8FBFF36F8F5D
:10738000FFF73EBF09480A490A4A884207D0521A05
:1073900005D0037801300B700131013AF9D1704703
:1073A000000004209551030088ED00E0DC74030028
:1073B0000000012014000120FEE7FEE7FEE7FEE7E3
:1073C000FEE7FEE7FEE7FEE7FEE7FEE7FFF7C8BFE2
:1073D00000487047CC09012086B0039002910192C9
:1073E00001238DF817309DF81730204A039B136056
:1073F0001E4A029B53601D4A019B9360039B44F20B
:107400000102934212D0039B44F20202934220D124
:10741000019B164AD360154BDB681B68134A9361C6
:10742000124BDB685B68114AD36112E0019B0F4A83
:1074300013610E4B1B699B680C4A53610B4B1B6914
:107440001B680A4A9361094B1B695B68074AD36151
:1074500000BF72B600BF00BF9DF81730DBB2002B33
:10746000FAD162B600BF00BF06B070475C000120D1
:1074700000B583B002900091019244F20100714680
:107480006A4600F003F803B000BD00BF00B587B046
:1074900003900291019272B600BF039B44F2010275
:1074A000934207D0039B44F20202934205D1019B11
:1074B000059303E0019B049300E000BF074B1B68AA
:1074C00003F00103002B00D000BE019A029903983B
:1074D000FFF782FF00BF07B05DF804FBF0ED00E0AE
:1074E00082B003468DF807309DF90730002B09DB89
:1074F0000B4A9DF90730134493F80033DBB25B0964
:10750000DBB20AE0074A9DF8073003F00F03043BA3
:1075100013441B7EDBB25B09DBB2184602B0704736
:1075200000E100E000ED00E072B600BF034B1B6815
:107530000133024A136000BF704700BF7C00012086
:10754000064B1B68013B054A1360044B1B68002B6C
:1075500001D162B600BF00BF704700BF7C000120B0
:1075600000B583B0019000F025F80346012B03D04D
:107570000449432000F057F8FFF7D6FF00BF03B0DF
:107580005DF804FBF074030000B583B003468DF88A
:10759000073000F00FF80346012B03D004495120B7
:1075A00000F041F8FFF7CCFF00BF03B05DF804FB2B
:1075B000F074030084B0EFF305830193019BC3F3E0
:1075C00008030393039B002B0DD1EFF31483009367
:1075D000009B0293029B03F00103002B0CBF0123CD
:1075E0000023DBB200E00123184604B0704700B569
:1075F00085B0EFF305830193019BC3F30803039365
:10760000039B002B0AD0039B103B0293029B5BB2AF
:107610001846FFF765FF0346DBB200E00F2318466C
:1076200005B05DF804FB00B585B003460091ADF8E8
:107630000630BDF806300293009B039302AB1A4656
:10764000002144F20200FFF721FF00BF05B05DF802
:1076500004FB10B487B001900091019B009A53E89D
:10766000004F104643E8000191F0000FF7D1059458
:1076700004900391059B184607B05DF8044B7047D2
:1076800010B487B001900091019B009A53E8004F1D
:1076900044EA020043E8000191F0000FF6D105949E
:1076A00004900391059B184607B05DF8044B7047A2
:1076B00010B487B001900091019B009A53E8004FED
:1076C00004EA020043E8000191F0000FF6D10594AE
:1076D00004900391059B184607B05DF8044B704772
:1076E00010B487B001900091019B009A53E8004FBD
:1076F00004EA020043E8000191F0000FF6D105947E
:1077000004900391049B184607B05DF8044B704742
:1077100010B487B001900091019B009A53E8004F8C
:1077200004EB020043E8000191F0000FF6D105944C
:1077300004900391049B184607B05DF8044B704712
:1077400010B487B001900091019B009A53E8004F5C
:1077500094422CBFA01A204643E8000191F0000F8C
:10776000F4D1059404900391049B184607B05DF88A
:10777000044B704700B583B0019001210198FFF7D9
:107780007FFF0346184603B05DF804FB00B583B0E5
:10779000019000210198FFF78BFF0346184603B0C4
:1077A0005DF804FB00B583B0019000210198FFF75C
:1077B00097FF0346184603B05DF804FB00B585B09B
:1077C000039002910192039B002B01D10E230EE046
:1077D000029B002B01D10E2309E0039B029A1A6041
:1077E000039B1B681B68019903989847034618463A
:1077F00005B05DF804FB00B58BB0039001920093D7
:107800000B468DF80B30039B9B68002B13D09DF823
:107810000B308DF8103000230593009B0693019BDD
:1078200007930C9B08930D9B0993039B9B6804AAE9
:107830001046984700E000BF0BB05DF804FB000065
:1078400082B001900091019B024A5A6000231846C1
:1078500002B070475075030000B583B001900091ED
:107860000348FFF79FFF0023184603B05DF804FBB1
:107870008000012000B585B0039002910192009331
:10788000029B009A194601980EF0B2FD002318469B
:1078900005B05DF804FB000000B587B005900491C9
:1078A000039202931148FFF765FF0346002B01D0B6
:1078B000112316E00422029BB3FBF2F31A4603994C
:1078C000049805F0F3FC0948FFF76CFF089B01934F
:1078D000029B0093049B039A01210598FFF78BFFFD
:1078E0000023184607B05DF804FB00BF80000120AC
:1078F00000B589B005900491039202930023079389
:107900001548FFF737FF0346002B0ED011231EE06A
:107910004FF48052079B03FB02F2049B134418466A
:1079200005F0A0FC079B01330793079A039B9A423B
:10793000EED10948FFF736FF029B0193039B0093AA
:10794000049B002202210598FFF755FF00231846EB
:1079500009B05DF804FB00BF8000012082B00190F7
:107960000091009B184602B0704782B001900091D0
:107970000023184602B0704782B00190044B1B6888
:10798000002B14BF01230023DBB2184602B070475E
:107990008000012000B583B00190019B002B03D132
:1079A00006497220FFF73FFE019B00221A60BFF3D9
:1079B0005F8F00BF00BF03B05DF804FBD07503000C
:1079C00008B5064B00221A700548FFF7E3FF05498A
:1079D000054800F025F90023184608BD880001205D
:1079E00084000120647603008C00012082B00190A5
:1079F000019B9B68024A12781344184602B07047F4
:107A0000C676030000B583B001900091019B002B66
:107A100003D108498320FFF706FE019B9B68009A6B
:107A20009A4202D2009B013300E00023184603B0C3
:107A30005DF804FB7076030000B585B00190019BF2
:107A40001B681B680393019B1B685B680293029A87
:107A5000039B9A4203D3029A039BD31A07E001982F
:107A6000FFF7C4FF0246039BD21A029B1344184639
:107A700005B05DF804FB000000B585B00190019BE6
:107A8000002B03D10D499820FFF7CDFD019B1B680A
:107A90001B680393019B1B685B6802930299019822
:107AA000FFF7B0FF0246039B93420CBF0123002364
:107AB000DBB2184605B05DF804FB00BF707603002A
:107AC00010B586B00190009100230593019B002B17
:107AD00003D15249A320FFF7A6FD009B002B03D141
:107AE0004E49A420FFF79FFD0020FFF739FD0198C4
:107AF000FFF7C2FF03468DF813309DF8133083F073
:107B00000103DBB2002B03D1019B1B7C002B7AD13C
:107B1000019B1B685B680393019B1B685A68019B70
:107B20001C6811460198FFF76DFF034663609DF8DE
:107B30001330002B0AD0019B1B681A68019B1C683C
:107B400011460198FFF75EFF03462360019BDB6847
:107B5000013B072B37D801A252F823F07D7B0200AE
:107B60008D7B0200C77B02009F7B0200C77B020067
:107B7000C77B0200C77B0200B17B0200019B5A68F1
:107B8000039B1344009A12781A702DE0019B5A68E7
:107B9000039B5B001344009A12881A8024E0019B27
:107BA0005A68039B9B001344009A12681A601BE0FA
:107BB000019B5A68039BDB00D118009BD3E900238B
:107BC000C1E9002310E0019B5B681946019BDB685B
:107BD000039A02FB03F30B441846019BDB681A4629
:107BE00000990EF005FC00BF0198FFF725FF0290F9
:107BF000019B1B689B68029A9A4207D9019B1B68EC
:107C0000029A9A6002E00423059300E000BF00207E
:107C1000FFF7BAFC059B184606B010BD707603004E
:107C200000B583B001900091019B002B03D1104956
:107C30005020FFF7F8FC009B002B03D10C4951208A
:107C4000FFF7F1FC019B009A1A60019B1B681A6800
:107C5000019B5A60019B5A68019B1B685B689A42B2
:107C600002D1019B00225A6000BF03B05DF804FB03
:107C7000C876030082B001900B46ADF80230BDF823
:107C80000230019A1344184602B0704782B0019046
:107C9000019BD3F81035DBB2184602B0704782B0B2
:107CA00001900B468DF803309DF80320019B02F5EF
:107CB000A87253F82230184602B0704782B0019083
:107CC000019B9B0003F5A0739BB2184602B070475E
:107CD000F0B587B001900B468DF803309DF8033066
:107CE0000593019B00221E4617464FF000024FF0FD
:107CF00000033B0143EA167332010599C1F12006E6
:107D0000A1F1200022FA01F403FA06F6344323FA23
:107D100000F0044323FA01F5CDE90245DDE9022331
:107D2000012B04D3044940F2B920FFF77CFC029BED
:107D3000184607B0F0BD00BF3C77030010B582B015
:107D400001900091019B5B791A46009B934204D3FA
:107D5000094940F27110FFF766FC019B1C6800980E
:107D6000FFF7ACFF034619462046FFF783FF0346A3
:107D7000184602B010BD00BF6C77030000B583B099
:107D800001900B468DF80330019B1B689DF8032082
:107D900011461846FFF783FF0346184603B05DF807
:107DA00004FB00B583B001900091019B1B6818464D
:107DB000FFF76CFF034619460098FFF789FF03465B
:107DC000184603B05DF804FB00B583B00190019B39
:107DD0001B68184600F05AF80346002B04D10B49E3
:107DE0004FF4F670FFF71FFC019B1B681F2B02D896
:107DF0004FF0A04306E0019B1B6803F01F02019BAC
:107E00001A60034B184603B05DF804FBA877030023
:107E10000003005000B585B0019001AB1846FFF794
:107E2000D3FF0390019B012202FA03F31946039842
:107E300000F018F800BF05B05DF804FB00B585B090
:107E4000019001AB1846FFF7BFFF0390019B012291
:107E500002FA03F31946039800F00EF800BF05B0CC
:107E60005DF804FB82B001900091019B009AC3F879
:107E7000082500BF02B0704782B001900091019BBD
:107E8000009AC3F80C2500BF02B0704784B001907F
:107E9000019B5B09029300230393029B002B03D0F9
:107EA000029B012B04D007E04FF0FF33039303E064
:107EB0004FF6FF73039300BF019B03F01F03019371
:107EC000039A019B22FA03F303F00103002B14BF72
:107ED00001230023DBB2184604B0704782B0019042
:107EE0000B468DF8033000BF02B0704700B585B077
:107EF0000190019B5B681B791A461A4B9B5C8DF8BD
:107F00000E3001238DF80F309DF80E30FF2B20D05E
:107F10009DF80E30FE2B1FD0019B5B689DF80E2054
:107F200011461846FFF72AFF0246019B5B681B7942
:107F300019460D4B53F821309A420DD1019B5B68D5
:107F40001B791A46074BFF21995400238DF80F30F7
:107F500002E000238DF80F309DF80F30184605B071
:107F60005DF804FB98000120A000012000B583B05B
:107F70000190019B5B680221184608F035F900BFAB
:107F800003B05DF804FB00B583B00190019B5B6812
:107F90000221184608F062F900BF03B05DF804FB47
:107FA00000B587B003460091ADF80630009B0493FE
:107FB00001238DF8173000238DF816303AE09DF834
:107FC00016302649049A52000A4413441B78DBB247
:107FD000002B2AD09DF816302049049A52000A44FA
:107FE0001A441278D2B2013AD0B21C49049A520013
:107FF0000A44134402461A709DF816301749049A31
:1080000052000A4413441B78DBB2002B0AD1144AF5
:10801000049B52F823301B680393039BDB6904988D
:10802000984702E000238DF817309DF81630013391
:108030008DF816309DF81630012BC0D99DF81730F9
:10804000002B06D0064A049B52F823301846FFF74F
:108050009AFF00BF07B05DF804FB00BFB400012029
:10806000C000012000B585B00190019B1B68029300
:10807000029B93F82030184609F072FA00238DF81D
:108080000F306CE000238DF80E3031E09DF80F20AA
:108090009DF80E10029813465B0013449B000344A6
:1080A0000B4408331B78FF2B1DD09DF80F209DF843
:1080B0000E10029813465B0013449B0003440B44CC
:1080C00008331B78184609F04BFA9DF80F209DF8ED
:1080D0000E10029813465B0013449B0003440B44AC
:1080E0000833FF221A709DF80E3001338DF80E30E0
:1080F0009DF80E30012BC9D99DF80F200299134627
:108100005B0013449B000B441B68B3F1FF3F16D088
:108110009DF80F20029913465B0013449B000B440B
:108120001B68184606F03AF99DF80F20029913468D
:108130005B0013449B000B444FF0FF321A609DF824
:108140000F20029913465B0013449B000B440B3332
:1081500000221A709DF80F3001338DF80F309DF812
:108160000F30012B8ED9019B5B68184607F026FF64
:1081700000BF05B05DF804FB30B587B001900B4639
:108180008DF803301346ADF80030019B1B68059352
:108190009DF8032013465B0013449B00059A13448B
:1081A00004939DF803308DF80F30059B93F8203031
:1081B000184609F06DFABDF80030002B11D1049B70
:1081C0005B7A184609F064FA049B1B7A184609F09A
:1081D0002AFA019B5B681B791A46484BFF21995488
:1081E00085E0BDF80020059B9B699A4215D3059B4D
:1081F0009B69ADF80030049B1B7A184609F048FAD9
:10820000049B5B7A184609F00EFA019B5B681B79A8
:108210001A463A4BFF21995469E0049B5A68059B22
:108220009B699A4249D0049B5B68002B45D0BDF8FE
:108230000020049B5B689A423FD2019B5868049BD4
:108240005A680023032107F067FF059B93F820403D
:10825000019B5B6803211846FFF770FD0546049BF0
:108260009B7A002B06D0049B1B68184606F0AAF9DF
:10827000034605E0049B1B68184606F067F90346B1
:108280001A462946204609F095F9059B93F82030B7
:10829000184609F0C8F9019B5B681B791946174A13
:1082A0009DF803305354019B5B681B791946BDF858
:1082B0000030134A42F8213006E0019B5B681B79CD
:1082C0001A460E4BFF219954019B5868BDF80020B7
:1082D0009DF80F10002307F01FFF049B1B7A184620
:1082E00009F0A1F9049B5B7A184609F09CF9BDF8E6
:1082F0000020049B5A6000BF07B030BD98000120E9
:10830000A000012000B585B001900B468DF8033028
:108310001346ADF80030019B1B6803939DF80320C2
:1083200013465B0013449B00039A134402939DF889
:108330000330012B04D92C4940F25B20FFF773F97D
:10834000029BDB7A012B04D027494FF41770FFF70B
:108350006AF9039B93F82130022B01D008233EE0F9
:10836000BDF80020029B5B689A420CD1039BDB693D
:10837000002B06D0039BDB69019A526812791046E4
:10838000984700232BE00198FFF7B0FD0346002B30
:1083900001D0112323E0019B5B681B791A46134B24
:1083A000FE219954BDF800209DF80330194601982C
:1083B000FFF7E2FE019B1B68DB69002B0ED0019BDF
:1083C0005B681B791A469DF80330094952000A443C
:1083D000134402221A700198FFF7C8FD00231846C3
:1083E00005B05DF804FB00BFD877030098000120BA
:1083F000B400012084B00190019B1B680393039B90
:108400009B699BB2184604B07047000000B585B068
:1084100001900B468DF803301346ADF800300198FB
:10842000FFF7E8FF03461A46BDF8003002FB03F3EE
:10843000084AA2FB03235B090393039B9AB29DF8AE
:10844000033019460198FFF75DFF0346184605B053
:108450005DF804FB1F85EB5110B58CB003900192C1
:108460001A460B468DF80B3013468DF80A309DF8EE
:108470000B30012B04D968494FF42B70FFF7D3F868
:10848000039B1B680A939DF80B2013465B00134463
:108490009B000A9A134409930A9B93F82130002BFE
:1084A00001D00823B4E0099B00225A60099B9DF883
:1084B0000A209A7203238DF81430039B19689DF8E3
:1084C0000B2013465B0013449B000B440A331B78BC
:1084D000002B0CBF01230023DBB28DF815300123E4
:1084E0008DF8163005AB1946019805F0EDFE0890A1
:1084F000089B002B01D004238AE09DF80B200A99E9
:1085000013465B0013449B000B44019A1A609DF8CC
:108510000A30002B03D00198FFF790FC02E001988D
:10852000FFF778FC00238DF82F3011E09DF82F30F5
:108530000833099A1344184608F0BEFF0346002B7F
:1085400001D0042364E09DF82F3001338DF82F30E3
:108550009DF82F30012BE9D9099B1B7A184609F0A9
:1085600097F8099B5B7A184609F092F89DF80A3053
:10857000002B06D0099B1B68184606F023F803461B
:1085800005E0099B1B68184605F0E0FF03460793CA
:108590009DF80A30002B06D0099B1B68184605F091
:1085A000D5FF034605E0099B1B68184606F00AF84C
:1085B00003460693099B1C7A039B5B689DF80B207E
:1085C00011461846FFF7BAFB0346079A194620469C
:1085D00008F0F0FF099B5C7A039B5B680221184658
:1085E000FFF7ACFB0346069A1946204608F0E2FF67
:1085F000099B0122DA72039B5B681B791A469DF87E
:108600000B30064952000A44134400221A7000231A
:1086100018460CB010BD00BFD8770300B40001208D
:1086200084B00190002303930923029305E0019B8A
:108630005B080193039B01330393019BB3F5805FB8
:1086400003D3039A029B9A42F1D3074B1B78002B6A
:1086500004D0039B002B01D101230393039BDBB2C6
:10866000184604B0704700BF9400012000B58FB0D9
:10867000059004910392059B002B04D18F4940F291
:108680001130FEF7D0FF049B002B01D10B2310E12A
:10869000059B1B680C930C9B93F82130002B01D099
:1086A000082306E109F02CF80B900B9B002B04D05B
:1086B0000B9B852B01D00423FBE005F0F9FD03465D
:1086C00083F00103DBB2002B07D005F08DFD0B908A
:1086D0000B9B002B01D00323EBE0794B1B6803F0CD
:1086E000F003302B03D1774B00221A7002E0754B58
:1086F00001221A700C9BFF2283F8202000238DF8A2
:10870000373030E09DF837200C9913465B00134456
:108710009B000B440B3300221A709DF837200C99F4
:1087200013465B0013449B000B440833FF221A706E
:108730009DF837200C9913465B0013449B000B44B3
:108740000933FF221A709DF837200C9913465B00FD
:1087500013449B000B444FF0FF321A609DF83730F2
:1087600001338DF837309DF83730012BCAD90C9B77
:108770002033184608F0A0FE0346002B04D00598CD
:10878000FFF770FC042394E000238DF836302CE0D2
:108790009DF83620049B53F82230B3F1FF3F1FD0E1
:1087A0009DF83620049B53F822009DF83630049A39
:1087B00013441B7A9DF8361002460598FFF74CFECD
:1087C0000B900B9B002B04D00598FFF74BFC0B9BE9
:1087D0006FE09DF83630002219460598FFF792FDAC
:1087E0009DF8363001338DF836309DF83630012B48
:1087F000CED9049B1B691846FFF712FF03468DF87C
:108800002B309DF82B308DF81C3000238DF81D3057
:1088100000238DF81E3007238DF81F30059B5B6801
:108820001B790893059B5B6807A9274A184607F040
:10883000C9FA0B900B9B002B04D00598FFF712FC94
:108840000B9B36E0059B5A68049B1B691946104632
:10885000FFF7A7FA09900C9B099A9A61059B5B6840
:10886000184607F037FC059B586801230093042342
:10887000099A022107F089FC059B5B6802211846D2
:1088800007F0ECFC0C9B039ADA61059B5B681B7993
:1088900019460E4A059B42F82130059B5B681B79FF
:1088A0001A460B4BFF2199540C9B012283F821207F
:1088B000002318460FB05DF804FB00BFD877030013
:1088C000E80F00F094000120A17F0200C000012009
:1088D0009800012000B587B00190019B1B680493AC
:1088E000049B93F82130002B04D1304940F297309B
:1088F000FEF799FE0023059334E0059A13465B00CA
:1089000013449B00049A13440393019B5B681B79F7
:10891000274A5B001A44059B134400221A70039BEC
:10892000DB7A002B1BD0039B1868019B1968059A02
:1089300013465B0013449B000B440A331B78002B47
:108940000CBF01230023DBB2194605F04FFE039B49
:108950001B68184605F066FD039B00225A60059BC4
:1089600001330593059B012BC7D9019B5B681B79DC
:108970001A46104BFF219954019B5B681B6801212B
:108980001846FFF7ABFA019B5B68184607F0A2FB9D
:10899000019B5B68184607F041FB049B022283F8A9
:1089A000212000BF07B05DF804FB00BFD8770300AB
:1089B000B40001209800012000B587B00190019B10
:1089C0001B680493049B93F82130002B04D1364993
:1089D0004FF46D70FEF727FE019B5B68184607F0A9
:1089E0004BFB0198FFF7CFFA049B93F82030184611
:1089F00008F04EFE00238DF8173041E09DF8172057
:108A000013465B0013449B00049A13440393039B97
:108A1000DB7A002B2FD0019B19689DF81720134695
:108A20005B0013449B000B440A331B78002B0CBFE4
:108A300001230023DBB28DF80B309DF80B30002BA7
:108A400005D0039B1B681846FFF7E4F904E0039B7D
:108A50001B681846FFF7F2F9039B1B68184605F0E0
:108A600017FD039B1B7A184608F012FE039B5B7AE6
:108A7000184608F00DFE9DF8173001338DF81730B9
:108A80009DF81730012BB9D9019B5B681B68002149
:108A90001846FFF723FA049B012283F8212000BF28
:108AA00007B05DF804FB00BFD877030000B585B0C0
:108AB0000190019B1B680393039B93F82130022BC9
:108AC00003D10198FFF778FF06E0039B93F821306C
:108AD000002B01D1082307E00198FFF7C3FA039B9D
:108AE000002283F821200023184605B05DF804FB1E
:108AF000024BD3F88034DBB2184670470070024056
:108B0000024BD3F88434DBB2184670470070024041
:108B100008B50BF0E9F90023184608BD00B585B08B
:108B200003468DF807300B468DF8063013468DF856
:108B300005309DF8073003F01F029DF806305B01F9
:108B400003F060031A439DF80530DB01DBB21343E9
:108B50000393039BFF2B04D905494FF4AC70FEF738
:108B600062FD039BDBB2184605B05DF804FB00BF55
:108B70002C78030082B00190019B1B7A184602B04A
:108B80007047000000B585B001900B468DF80330AA
:108B9000019B002B04D10F494FF48870FEF743FD71
:108BA0000198FFF7E7FF03461A469DF8033093420A
:108BB00001D3002309E0019B093303939DF80320AF
:108BC00013465B001344039A1344184605B05DF83E
:108BD00004FB00BF8878030082B00190019B1B78E2
:108BE000184602B0704782B00190019B5B7818462E
:108BF00002B0704700B585B001900B468DF8033088
:108C0000019B002B04D10D4940F24310FEF70BFDF0
:108C1000019B5B789DF803209A4201D3002309E071
:108C2000019B9B781A46019B134403939DF80330E4
:108C3000039A1344184605B05DF804FB88780300D6
:108C400082B00190019B1B78184602B0704782B039
:108C50000190019B1B68184602B0704700B583B0B5
:108C60000190019B002B04D1064940F24320FEF7FE
:108C7000DAFC0198FFF7EBFF03461B68184603B0C8
:108C80005DF804FBE878030000B583B00190019B18
:108C9000002B04D1064940F25F20FEF7C4FC019886
:108CA000FFF7D5FF03465B68184603B05DF804FB89
:108CB000E878030000B583B00190019B002B04D13C
:108CC000064940F27B20FEF7AEFC0198FFF7BFFF9C
:108CD00003465B68184603B05DF804FBE8780300C0
:108CE000014B1846704700BFA47B03004FF0804340
:108CF000D3F838341846704708B5FFF7F7FF034636
:108D000003F00103002B14BF01230023DBB218463C
:108D100008BD08B5FFF7EAFF034603F00203002B86
:108D200014BF01230023DBB2184608BD00B583B091
:108D300001900091019B002B04D1114940F20F10CA
:108D4000FEF771FC019B5B68002B04D10C494FF4CA
:108D50008870FEF768FC019B5B681B68002B04D1E0
:108D6000074940F21110FEF75EFC019B5B681B682F
:108D70000099019898470346184603B05DF804FB34
:108D80003C79030000B583B001900091019B002B5A
:108D900004D1114940F21910FEF745FC019B1B68F4
:108DA000002B04D10C494FF48D70FEF73CFC019B65
:108DB0001B689B68002B04D1074940F21B10FEF78B
:108DC00032FC019B1B689B68009A528810469847AA
:108DD00000BF03B05DF804FB3C79030000B583B02D
:108DE00001900B468DF80330074B1B68002B06D013
:108DF000054B1B689DF8032011460198984700BF5A
:108E000003B05DF804FB00BF9402012000B583B0FD
:108E100003468DF80730074B5B68002B05D0054BE8
:108E20005B689DF807201046984700BF03B05DF8C7
:108E300004FB00BF9402012010B58EB00390019393
:108E40000B468DF80B3013468DF80A30002309933A
:108E500000230D9302E00D9B01330D93039B5B6890
:108E60005C6809A8012300220399A0470346002B50
:108E7000F1D100238DF8233000230C9300238DF8CB
:108E80002F30002306934FE0039B5B685C680DF175
:108E9000230206A801230399A047039B5B685C6833
:108EA0000DF1170206A801230399A0479DF817307A
:108EB0009DF80B209A4227D19DF82F209DF80A306B
:108EC0009A421CD19DF823301A46109B1A60019BD0
:108ED0005A1C01929DF823201A70019B5A1C019282
:108EE0009DF80B201A70039B5B685C689DF823302B
:108EF000023B06A8019A0399A047002319E09DF8B8
:108F00002F3001338DF82F30039B5B685C689DF830
:108F10002330023B06A800220399A0479DF8233086
:108F20001A460C9B13440C930C9A0D9B9A42ABD39C
:108F3000052318460EB010BD00B585B003468DF868
:108F400007309DF90730002B14DA9DF8073003F045
:108F50000F038DF80E309DF80E30082B04D91149FF
:108F60004FF4CC70FEF75FFB9DF80E30DB000E4A2D
:108F7000134413E09DF8073003F00F038DF80F3012
:108F80009DF80F30082B04D906494FF4CF70FEF737
:108F90004AFB9DF80F30DB00044A1344184605B025
:108FA0005DF804FB3C790300F40101203C02012040
:108FB00000B583B003468DF807309DF8073018469A
:108FC000FFF7BAFF03461B68184603B05DF804FBC1
:108FD00000B585B0034600918DF807309DF8073045
:108FE0001846FFF7A9FF0390039B009A1A60009BA5
:108FF000002B10D19DF80730002B03D09DF80730CF
:10900000802B04D108494FF4E170FEF70CFB039B61
:1090100000225A6004E0009B5B681A68039B5A6058
:1090200000BF05B05DF804FB3C79030000B583B0D8
:109030000190064B5B68054A1268019910469847F3
:109040000346184603B05DF804FB00BF3C02012054
:1090500000B589B00190019B0793079B1B78052BF6
:109060001AD1FFF74DFD03468DF81730FFF740FD8D
:1090700003468DF81630002200210020FFF74EFD38
:1090800003461A469DF81630934205D19DF81730D5
:10909000052B01D1334B0793079B1B78002B27D15E
:1090A00000F040FF069007E007990698FFF76AFE78
:1090B0000698FFF7FFFD0690069B002BF4D10020D9
:1090C000FEF74EFA284B1B68002B03D1079B5A88EA
:1090D000264B1A8001212448FEF71AFB0020FEF7D8
:1090E00053FA01210798FFF779FE1F4B1B6835E003
:1090F0001F4A02AB1946104603F04CFE0490049B35
:10910000002B2BD0049A079B1B6813600020FEF7EE
:1091100027FA164B1A88144B1B689BB2D31A9BB2C2
:1091200001339AB2049BDA8000210F48FEF791FACE
:1091300003469AB2049B9A800020FEF725FA0C4A57
:1091400002AB1946104603F03EFE03468DF80F3081
:109150009DF80F3019460798FFF740FE09B05DF8FB
:1091600004FB00BF9C790300EC010120F001012009
:10917000DC01012000B583B003468DF807309DF86F
:109180000730022B0ED0022B10DC002B02D0012B5B
:1091900004D00BE00A48FFF75BFF0DE00948FFF73A
:1091A00057FF09E00848FFF753FF05E0074940F281
:1091B0006220FEF738FA00BF00BF03B05DF804FB81
:1091C0009079030094790300987903003C790300B7
:1091D00000B583B001900198FFF73AFF00BF03B0DC
:1091E0005DF804FB00B583B003468DF807309DF8A9
:1091F0000730002B04D0064940F27B20FEF713FA1B
:109200000448FFF725FF00BF03B05DF804FB00BF73
:109210003C790300A079030082B003468DF8073043
:109220009DF80730082B27D801A252F823F000BF81
:1092300055920200599202005D9202006192020072
:1092400065920200699202006D9202007192020022
:1092500075920200002310E000230EE001230CE0D1
:1092600000230AE0002308E0012306E0012304E0D4
:10927000012302E0012300E00023184602B07047FA
:1092800082B003468DF807309DF80730082B27D8A9
:1092900001A252F823F000BFBD920200C192020069
:1092A000C5920200C9920200CD920200D192020042
:1092B000D5920200D9920200DD920200002310E054
:1092C00000230EE001230CE000230AE0002308E065
:1092D000002306E0002304E0002302E0012300E075
:1092E0000023184602B07047014B1B7818467047A0
:1092F0009002012010B582B003468DF807309DF82A
:1093000007301846FFF788FF03461C461C4B1B78A6
:109310001846FFF781FF03469C420DD09DF80730A9
:109320001846FFF779FF0346002B03D0154803F0DA
:1093300081FE01E003F0CEFE9DF807301846FFF7EE
:109340009FFF03461C460E4B1B781846FFF798FFFD
:1093500003469C420CD09DF807301846FFF790FF5B
:109360000346002B02D00AF05BFF01E00AF04EFF3B
:10937000034A9DF80730137000BF02B010BD00BF54
:10938000900201201400012000B587B001900B4627
:109390008DF8033013468DF802300198FFF7EAFB91
:1093A00003461A469DF80330934204D91B4940F204
:1093B000F920FEF738F99DF80230002B01D0072381
:1093C00028E09DF8033019460198FFF7DBFB049075
:1093D0000498FFF708FC03468DF80F3000238DF842
:1093E000173010E09DF8173019460498FFF702FC7B
:1093F0000290029B1B78184600F05CFD9DF8173028
:1094000001338DF817309DF817209DF80F309A42E0
:10941000E8D30023184607B05DF804FB3C7903004D
:1094200000B587B001900B468DF803300198FFF727
:10943000A1FB03461A469DF80330934204D919490B
:109440004FF44670FEF7EFF89DF803301946019887
:10945000FFF798FB04900498FFF7C5FB03468DF8CF
:109460000F3000238DF8173010E09DF817301946A3
:109470000498FFF7BFFB0290029B1B78184600F090
:1094800037FD9DF8173001338DF817309DF8172000
:109490009DF80F309A42E8D300BF00BF07B05DF8D7
:1094A00004FB00BF3C79030000B589B0019003F0D4
:1094B000FBFC0346002B04D1484940F23130FEF753
:1094C000B2F8474808234FF48472464903F02FFC52
:1094D0000690069B002B01D003237BE042480AF054
:1094E0007FFC0690069B002B01D0069B72E03F4B51
:1094F00000221A703E4B00221A603E4B00221A6076
:10950000482200213C480CF09CFF482200213B48A7
:109510000CF097FF019B002B09D1394B00221A60F8
:10952000374B00225A60364B00221A7204E0344B4B
:10953000019A07CA83E8070000200BF08BF9069018
:10954000069B002B08D0069B852B05D0234A40F2B2
:109550005F310698FDF78CFFFFF7C2FB05900023F3
:109560008DF81F3018E000238DF81E3007E00398B7
:10957000FFF766FB034605991846FFF729FD9DF89E
:109580001E305A1C8DF81E2019460498FFF732FB36
:109590000390039B002BEAD19DF81F305A1C8DF8D5
:1095A0001F2019460598FFF7EDFA0490049B002B45
:1095B000D9D10B238DF8083002AB19460598FFF777
:1095C000B5FB0690069B002B03D0FFF7A1FA069B84
:1095D00000E00023184609B05DF804FB3C79030065
:1095E000DC010120D4000120D19102009002012071
:1095F0008402012088020120F40101203C020120A4
:109600009402012000B583B00AF066FD034683F0A2
:109610000103DBB2002B04D10AF06AFD0346002BE4
:1096200001D008230FE00A480BF036F90190019BA6
:109630000093009B002B05D0064A40F2C2310098EF
:10964000FDF716FF0023184603B05DF804FB00BFCA
:10965000A47903003C79030008B50AF05DFC00BF63
:1096600008BD000008B50AF04FFD034683F0010372
:10967000DBB2002B04D1044940F2D130FDF7D3FF17
:109680000AF0B2FC00BF08BD3C79030008B50AF03F
:109690002FFD0346002B0DD10D494FF47670FDF7D9
:1096A000C2FF07E0FFF728FB034683F00103DBB2AC
:1096B000002B0BD1FFF72DFB034683F00103DBB238
:1096C000002BEFD10348FFF7C3FC00E000BF08BD4B
:1096D0003C790300A879030000B583B082238DF89C
:1096E000043001AB1846FFF7B3FC00BF03B05DF8D0
:1096F00004FB000000B587B00190DD4B1B68002B18
:1097000004D1DC4940F22540FDF78DFFFDF76FFFE6
:109710000346052B04D8D74940F22C40FDF783FFC0
:10972000019B1B78852B00F26A8201A252F823F07C
:10973000499A0200A79A0200359B0200C99A0200CA
:10974000F99A02005D9B02006D9B0200FF9B0200E4
:10975000D59B0200E39B0200F19B0200FF9B0200ED
:10976000FF9B0200FF9B0200FF9B02004F9B020039
:10977000FF9B0200FF9B0200FF9B0200FF9B020079
:10978000FF9B0200FF9B0200FF9B0200FF9B020069
:10979000FF9B0200FF9B0200FF9B0200FF9B020059
:1097A000FF9B0200FF9B0200FF9B0200FF9B020049
:1097B000FF9B0200FF9B0200FF9B0200FF9B020039
:1097C000FF9B0200FF9B0200FF9B0200FF9B020029
:1097D000FF9B0200FF9B0200FF9B0200FF9B020019
:1097E000FF9B0200FF9B0200FF9B0200FF9B020009
:1097F000FF9B0200FF9B0200FF9B0200FF9B0200F9
:10980000FF9B0200FF9B0200FF9B0200FF9B0200E8
:10981000FF9B0200FF9B0200FF9B0200FF9B0200D8
:10982000FF9B0200FF9B0200FF9B0200FF9B0200C8
:10983000FF9B0200FF9B0200FF9B0200FF9B0200B8
:10984000FF9B0200FF9B0200FF9B0200FF9B0200A8
:10985000FF9B0200FF9B0200FF9B0200FF9B020098
:10986000FF9B0200FF9B0200FF9B0200FF9B020088
:10987000FF9B0200FF9B0200FF9B0200FF9B020078
:10988000FF9B0200FF9B0200FF9B0200FF9B020068
:10989000FF9B0200FF9B0200FF9B0200FF9B020058
:1098A000FF9B0200FF9B0200FF9B0200FF9B020048
:1098B000FF9B0200FF9B0200FF9B0200FF9B020038
:1098C000FF9B0200FF9B0200FF9B0200FF9B020028
:1098D000FF9B0200FF9B0200FF9B0200FF9B020018
:1098E000FF9B0200FF9B0200FF9B0200FF9B020008
:1098F000FF9B0200FF9B0200FF9B0200FF9B0200F8
:10990000FF9B0200FF9B0200FF9B0200FF9B0200E7
:10991000FF9B0200FF9B0200FF9B0200FF9B0200D7
:10992000FF9B0200FF9B0200FF9B0200FF9B0200C7
:10993000C7990200499902008D990200FB99020023
:109940001B9A0200659B02004B48FFF76FFB4A48D9
:1099500000F072FB0D20FFF759FA00F091FC02F0C5
:10996000E8FF464B1B68002B03D1454B1B7A002BAD
:1099700001D0012300E0002303F00103DBB218460D
:109980000AF052FB0120FFF7B5FC45E100F078FC3E
:109990000AF07EFB0020FFF7ADFC3A4800F04CFBDC
:1099A0003848FFF743FB0E20FFF730FAFFF79CFC27
:1099B00003461846FFF730FC0346002B00F02581D4
:1099C00003F088FB21E1FFF78FFC0346072B0ED045
:1099D000072B10DC052B02D0062B04D00BE0022055
:1099E000FFF788FC08E00820FFF784FC04E0022071
:1099F000FFF780FC00E000BF0EE1FFF775FC0346B7
:109A0000032B40F004810AF093FB0346002B00F087
:109A1000FE800420FFF76EFCF9E0FFF765FC0346CB
:109A2000032B07D10AF084FB0346002B02D004204D
:109A3000FFF760FC0AF0ACFB0346002B00F0E98066
:109A40000620FFF757FCE4E0FFF74EFC0346032B2C
:109A500004D0FFF749FC0346082B02D10A48FFF760
:109A600049FE0020FFF7D2F900F056FA059016E003
:109A7000840201203C790300AC79030088020120B4
:109A800094020120B0790300B4790300019905988C
:109A9000FFF74CF903900598FFF7F6F80590059B42
:109AA000002BF3D1B8E000F0EBFB02F039FF02200D
:109AB000FFF720FC0120FFF7A9F90198FFF7B6FA9C
:109AC000019800F0B9FAA7E0FFF70EFC0346082B57
:109AD00005D10220FFF70EFC0AF0ACFB02E00520E6
:109AE000FFF708FC0320FFF791F90198FFF79EFAB2
:109AF000019800F0A1FA8FE00320FFF787F94848AA
:109B0000FFF794FA464800F097FAFFF7EDFB03469B
:109B1000062B02D0082B04D007E00720FFF7EAFB52
:109B200007E00220FFF7E6FB03E00220FFF7E2FB7D
:109B300072E071E00320FFF7DDFB0220FFF766F91A
:109B4000019800F079FA0198FFF770FA64E00F20AD
:109B5000FFF75CF9019800F06FFA5DE00198FFF7FC
:109B600065FA59E00198FFF761FA55E0019B9B788F
:109B70001846FFF7E1F90490049B1B68002B04D101
:109B8000284940F20250FDF74EFD049B5B68002B14
:109B900004D1244940F20350FDF745FD049B5B6866
:109BA000049A12680199104698470346002B32D058
:109BB000019B9B7803F00F03002B2CD0019B9B781B
:109BC00003F00803002B26D1019B9B7818460AF06E
:109BD00072FD20E00820FFF719F9019800F02CFA37
:109BE0001AE00920FFF712F9019800F025FA13E0B6
:109BF0000A20FFF70BF9019800F01EFA0CE0094962
:109C000040F22650FDF70FFD06E000BF04E000BF64
:109C100002E000BF00E000BF00BF07B05DF804FB3A
:109C2000B87903003C79030000B583B000230193A9
:109C3000354B1B68002B07D1344B3549184603F0D0
:109C4000D6F80346304A13602F4B1B68002B32D0E6
:109C50002D4B1B689B88002B1ED02B4B1B68DB8871
:109C6000B3F5006F03D3284B1B680022DA80264B24
:109C70001B68DA88511C89B2D9801346ADF80630CA
:109C8000214B1B689A88013A92B29A8001AB184620
:109C9000FFF730FD012333E01B4B1B681846FFF72D
:109CA00029FD1A4B1A49184603F0BAF8164B002240
:109CB0001A60012324E0174B1B68002B1FD00020E3
:109CC000FDF74EFC144B1B88B3F5006F02D3124B0B
:109CD00000221A80104B1B885A1C91B20E4A118028
:109CE000ADF8063001210B48FDF72AFD0020FDF7F5
:109CF0004BFC01AB1846FFF7FDFC012300E00023FD
:109D0000184603B05DF804FBA0020120DC0101202D
:109D1000A4020120EC010120F001012000B589B06E
:109D20000190019B002B04D15A4940F26A50FDF783
:109D30007AFC019B5B68002B04D1564940F26B50C2
:109D4000FDF771FC019B5B681B68002B04D1514936
:109D500040F26C50FDF767FC0198FEF778FF034670
:109D60001B68002B04D04B4940F26D50FDF75BFCA3
:109D70000AF0BEF9034683F00103DBB2002B04D0E6
:109D80000AF0AAF90346002B04D1424940F271506F
:109D9000FDF749FC00238DF81F301CE000238DF8EF
:109DA0001E300BE00398FEF74BFF03461846FFF703
:109DB000FFF80346002B01D0112367E09DF81E3009
:109DC0005A1C8DF81E2019460598FEF713FF0390C4
:109DD000039B002BE6D19DF81F305A1C8DF81F20E5
:109DE00019460198FEF7CEFE0590059B002BD5D1B4
:109DF00000238DF81F3018E000238DF81D3007E098
:109E00000498FEF71DFF034601991846FFF7E0F896
:109E10009DF81D305A1C8DF81D2019460598FEF737
:109E2000E9FE0490049B002BEAD19DF81F305A1CD8
:109E30008DF81F2019460198FEF7A4FE0590059B9A
:109E4000002BD9D1144B069310E0069B1B68019A96
:109E50009A4204D10F4940F29750FDF7E4FB069B6C
:109E60001B681846FEF7F3FE03460693069B1B6825
:109E7000002BEAD1069B019A1A600B238DF808305B
:109E800002AB19460198FEF751FF0346184609B088
:109E90005DF804FB3C79030084020120044B1B782D
:109EA000002B14BF01230023DBB21846704700BF0C
:109EB0009102012000B583B003468DF807309DF86C
:109EC000073003F00803002B09D19DF8073018462E
:109ED0000AF039FC9DF8073018460AF0FEFB9DF8A1
:109EE000073018460AF024FA00BF03B05DF804FBFF
:109EF00000B583B003468DF807309DF8073018464B
:109F00000AF066FA00BF03B05DF804FB014B1B6862
:109F10001846704784020120014B1B6818467047A1
:109F200088020120014B1B68184670478C020120F3
:109F300000B587B0034600918DF80730FFF7E6FFC4
:109F4000059031E00598FEF715FE03468DF81230B6
:109F500000238DF813301DE09DF813301946059845
:109F6000FEF710FE03900398FEF736FE03461A46EE
:109F70009DF80730934208D1009B002B03D0009B33
:109F80009DF813201A70059B12E09DF813300133E1
:109F90008DF813309DF813209DF812309A42DBD3D0
:109FA0000598FEF75BFE0590059B002BCAD10023A8
:109FB000184607B05DF804FB00B585B003900B466A
:109FC00001928DF80B3001990398FEF7AFFE03461E
:109FD000184605B05DF804FB00B585B00346009156
:109FE0008DF807309DF90730002B05DA9DF8073012
:109FF00003F00F03082B09DD9DF90730002B16DB5A
:10A000009DF8073003F00F03082B10DC9DF8073094
:10A010001846FEF791FF03461B680393039B002B32
:10A0200005D000990398FEF781FE034600E0102357
:10A03000184605B05DF804FB00B585B00190FFF748
:10A0400065FF039007E001990398FEF76FFE039800
:10A05000FEF704FE0390039B002BF4D100BF00BF6A
:10A0600005B05DF804FB00B585B0019006230293AE
:10A07000FFF74CFF03900BE001990398FEF756FEA3
:10A080000290029B062B07D10398FEF7E7FD039091
:10A09000039B002BF0D100E000BF029B184605B0E7
:10A0A0005DF804FB00B583B0034600918DF80730DE
:10A0B0009DF8073018460AF028F9034683F001039B
:10A0C000DBB2002B01D008230CE0084B1B78022BDD
:10A0D00001D0082306E09DF80730009918460AF0E1
:10A0E00097F90346184603B05DF804FB900201207F
:10A0F00000B583B0034600918DF807309DF8073016
:10A1000018460AF002F9034683F00103DBB2002B84
:10A1100001D008230CE0084B1B78022B01D0082348
:10A1200006E09DF80730009918460AF03FFA03460A
:10A13000184603B05DF804FB9002012000B585B01D
:10A1400001900B468DF8033013468DF8023006233C
:10A150000393019B5B689B68002B09D0019B5B68A4
:10A160009B689DF802209DF8031001989847039082
:10A17000039B062B08D19DF802209DF80330194659
:10A180000198FFF701F90390039B184605B05DF8AD
:10A1900004FB00B583B001900B468DF80330019BA2
:10A1A0005B68DB68002B07D0019B5B68DB689DF870
:10A1B00003201146019898479DF8033019460198ED
:10A1C000FFF72EF900BF03B05DF804FB00B585B0C2
:10A1D00001900B468DF8033000238DF80F30019B62
:10A1E0005B681B69002B0AD0019B5B681B699DF8AB
:10A1F000032011460198984703468DF80F309DF8CB
:10A200000F30184605B05DF804FB000000B585B0BE
:10A21000FFF77CFE039028E00398FEF7ABFC0346B3
:10A220008DF80A3000238DF80B3014E09DF80B30C8
:10A23000002219460398FFF781FF0190019B002B34
:10A2400004D00E4940F26A70FDF7EDF99DF80B302D
:10A2500001338DF80B309DF80B209DF80A309A429F
:10A26000E4D30398FEF7FAFC0390039B002BD3D1B1
:10A2700000BF00BF05B05DF804FB00BF3C790300E0
:10A2800000B583B0FFF742FE01901EE00198FEF793
:10A2900071FC03468DF8023000238DF803300AE08C
:10A2A0009DF8033019460198FFF773FF9DF80330BE
:10A2B00001338DF803309DF803209DF802309A4257
:10A2C000EED30198FEF7CAFC0190019B002BDDD173
:10A2D00000BF00BF03B05DF804FB82B003468DF8F9
:10A2E00007309DF8073003F01F03DBB2184602B0B9
:10A2F000704782B003468DF807309DF807305B0940
:10A3000003F00303DBB2184602B0704782B0034685
:10A310008DF807309DF80730DB09DBB2184602B034
:10A32000704782B00190019B1B7A184602B07047BB
:10A3300000B585B001900B468DF80330019B002BD2
:10A3400004D10F494FF48870FDF76DF90198FFF7BC
:10A35000E8FF03461A469DF80330934201D30023D9
:10A3600009E0019B093303939DF8032013465B002A
:10A370001344039A1344184605B05DF804FB00BF6C
:10A38000FC79030082B00190019B1B78184602B053
:10A39000704782B00190019B5B78184602B070470D
:10A3A00000B585B001900B468DF80330019B002B62
:10A3B00004D10D4940F24310FDF735F9019B5B785C
:10A3C0009DF803209A4201D3002309E0019B9B786A
:10A3D0001A46019B134403939DF80330039A1344D8
:10A3E000184605B05DF804FBFC79030082B00190CB
:10A3F000019B1B78184602B0704782B00190019B08
:10A40000184602B07047000000B583B00190019B70
:10A41000002B03D104495220FDF705F9019B184692
:10A4200003B05DF804FB00BF407A030000B583B0C1
:10A430000190019B002B03D109495F20FDF7F3F840
:10A44000019B1B68002B03D105496020FDF7EBF849
:10A45000019B1B680C33184603B05DF804FB00BF7A
:10A46000407A030000B585B001900B468DF80330AB
:10A470000198FFF7C9FF0390039BDB69002B06D00F
:10A48000039BDB699DF8032011460198984700BFA4
:10A4900005B05DF804FB00B585B00190002101987E
:10A4A000FFF746FF039000210398FFF779FF029022
:10A4B0000298FFF79BFF0346184605B05DF804FBC2
:10A4C00000B585B0019001210198FFF731FF03909D
:10A4D00000210398FFF764FF02900298FFF786FFC0
:10A4E0000346184605B05DF804FB00B585B0019041
:10A4F00001210198FFF71CFF039001210398FFF74A
:10A500004FFF02900298FFF771FF0346184605B00F
:10A510005DF804FB00B589B003900291029B5B7863
:10A520001846FFF7DAFE0346012B28D1029B9B78E1
:10A53000062B24D10023059304AB184602F06EFAD3
:10A540000790029B1979029BDA7805AB0093079B71
:10A550000398FEF771FC0690069B052B0FD0059B18
:10A560003F2B03D90849C920FDF75DF8029B013351
:10A57000059A0799184602F0E5F9034600E006231C
:10A58000184609B05DF804FB407A030082B00190E0
:10A59000009100BF0623184602B0704700B585B091
:10A5A000019000910198FFF72FFF03900398FFF7A8
:10A5B0003DFF0290009B9B78212B11D1009BB3F8AB
:10A5C00007309BB2072B01D006230BE0009B581CE1
:10A5D000029B0C330722194602F0B4F9034601E04E
:10A5E00000BF0623184605B05DF804FB00B585B032
:10A5F000034600918DF807309DF80730002B01D0FD
:10A60000032316E0009B03930398FFF70FFF0290CC
:10A61000029B1B78202B0BD1029B03F10C00029BA9
:10A620000233072219460BF0E3FE00BF002300E0CF
:10A630000623184605B05DF804FB000000B58BB09A
:10A64000019000910198FFF7DFFE08900898FFF74E
:10A65000EDFE0790009B9A78079B1A70009BB3F859
:10A6600007309BB2DAB2079B5A70079B0233049300
:10A67000079B5B780593002306930020FCF770FF8F
:10A6800004AB19460020FFF70DFD0990099B002B34
:10A6900009D1094B0293089B039302AB1946002092
:10A6A00002F09EF909900020FCF76EFF099B184606
:10A6B0000BB05DF804FB00BFEDA5020000B585B04E
:10A6C00001900198FFF7A0FE03900398FFF7AEFEFC
:10A6D0000290029B00229A82029B00229A61029BB6
:10A6E00000221A62029B0022DA66029B00221A678D
:10A6F000029B00225A67029B00229A67029B03F189
:10A700002802029B9A6600BF05B05DF804FB00B505
:10A7100087B0019000910198FFF776FE05900598AB
:10A72000FFF784FE0490009B9B78202B04D0222B03
:10A7300010D000BF06237BE0009BB3F807309BB22C
:10A74000072B01D0062373E000990198FFF776FFED
:10A7500003466DE0009BB3F807309BB2002B01D09D
:10A76000062365E0049B9B8A03F00103002B14BFC2
:10A77000012300238DF80F30009BB3F803309AB209
:10A78000049B9A82049B9B8A03F00103002B14BF55
:10A79000012300238DF80E309DF80F209DF80E3018
:10A7A0009A4201D1002343E09DF80E30002B01D0E6
:10A7B000022300E003238DF80D309DF80D3019467B
:10A7C0000198FFF74FFE9DF80E3083F00103DBB2D6
:10A7D000002B2CD00198FFF773FE03468DF80C3048
:10A7E0009DF80C30184608F013FC0198FFF77DFE29
:10A7F00003468DF80C309DF80C30184608F008FC24
:10A80000049B00229A61049B00221A62049B00228E
:10A81000DA66049B00221A67049B00225A67049B95
:10A8200000229A67049B03F12802049B9A66002386
:10A83000184607B05DF804FB00B583B001900091A5
:10A84000019B002B04D124494FF4E470FCF7EBFE8C
:10A85000009B002B04D1204940F2C910FCF7E3FE15
:10A86000009B5B781846FFF751FD0346012B16D17C
:10A87000009B5B781846FFF73CFD0346002B02D097
:10A88000012B06D022E000990198FFF743FE034612
:10A890001DE000990198FFF781FE034617E0009B39
:10A8A0005B781846FFF725FD0346002B02D0012BED
:10A8B00006D00BE000990198FFF768FE034606E01A
:10A8C00000990198FFF723FF034600E0062318468E
:10A8D00003B05DF804FB00BF407A030086B003902C
:10A8E000029101920093029B0593039B009A5A6088
:10A8F000059BDB69009A9A421DD8059B9A69039BC8
:10A900001A60059B9A69009B1A44059B9A61059BF6
:10A910001A6F009B1A44059B1A67059BDA69009B16
:10A92000D21A059BDA61059BDB69002B14BF01235A
:10A930000023DBB208E0059B03F12802039B1A60A9
:10A94000059B009A9A670023184606B070470000DE
:10A9500000B58BB001900198FFF756FD089008985C
:10A96000FFF764FD07900198FFF7BFFD03468DF8E0
:10A970001B306C4B0393079B0493079BDB69002BF5
:10A9800026D1079B1A6F079B5A67079B00221A67FD
:10A99000079B0022DA66079B1B6A002B13D0079BDC
:10A9A000079A1833203292E8030083E80300079BDC
:10A9B00000221A6203AA9DF81B3011461846FFF7C1
:10A9C00097FB0346A9E0079B00229A610023A4E0BD
:10A9D000079B9B6F0593059B0993079BDB69059A72
:10A9E0009A4202D9079BDB690993079B9869079BE9
:10A9F0002833099A19460BF0FBFC079B1A6F099B39
:10AA00001A44079B5A67079B00221A67059A099BFD
:10AA1000D21A079BDA66079B03F12802099B1A44A6
:10AA2000079B9A66079B1B6A002B65D0079B079ABA
:10AA30001833203292E8030083E80300079B0022CA
:10AA40001A6254E0079BDA6E079BDB699A4232D3A5
:10AA5000079B9869079B996E079BDB691A460BF069
:10AA6000C7FC079BDA6E079BDB69D21A079BDA6685
:10AA7000079B9A6E079BDB691A44079B9A66079BA4
:10AA8000DA69079B5A6700210198FFF7EBFC079BE7
:10AA90001B6A002B0BD0079B079A1833203292E8D1
:10AAA000030083E80300079B00221A621FE0079B54
:10AAB00000229A6123E0079B9869079B996E079B88
:10AAC000DB6E1A460BF094FC079BDA6E079B1A6745
:10AAD000079BDA69079BDB6ED21A079BDA61079B3B
:10AAE0009A69079BDB6E1A44079B9A6107E0079BF4
:10AAF000DB6E002BA6D102E0079B00229A61079B28
:10AB00009B69002B08D003AA9DF81B3011461846FC
:10AB1000FFF7EEFA034600E0002318460BB05DF89D
:10AB200004FB00BFDDA8020000B585B001900091D4
:10AB30000198FFF7B0FC03461A46009B9B789A42A7
:10AB400001D1002334E0009B9B785BB2002B10DA2C
:10AB5000009BDB78002B02D0032B06D007E00121FD
:10AB60000198FFF77FFC002322E0002320E003236D
:10AB70001EE0009B9B785BB2002B18DB009BDB7810
:10AB8000032B10D0032B10DC002B02D0012B0AD09A
:10AB90000BE00198FFF7DCFE039000210198FFF71E
:10ABA00061FC039B04E0002302E0032300E0062392
:10ABB000184605B05DF804FB00B585B00190009122
:10ABC000019B002B04D12B4940F2DD20FCF72BFD2B
:10ABD000009B002B04D1274940F2DE20FCF723FD27
:10ABE00000230393009B1B780E2B39D801A252F847
:10ABF00023F000BF67AC020031AC020067AC02007A
:10AC000067AC020061AC020039AC020045AC020046
:10AC100061AC020061AC020051AC020061AC020008
:10AC200067AC020067AC020067AC020067AC0200D0
:10AC30000198FFF743FD17E000990198FFF7FCFD2D
:10AC4000039011E000990198FFF76EFF03900BE06D
:10AC500003210198FFF706FC0198FFF72FFD03E0A1
:10AC60000623039300E000BF039B184605B05DF880
:10AC700004FB00BF407A030010B58AB00390029134
:10AC8000019200930298FFF74CFB03461A46C34B10
:10AC90001A700298FFF7B8FB0990039B002B04D1B0
:10ACA000BF494FF44470FCF7BEFC019B05930023A1
:10ACB0000693009B0793039B0893089B1B68002B3C
:10ACC00000F00C81B3F5647F80F0D98640F2133236
:10ACD0009342C0F0D486A3F213337C2B00F2CF86CC
:10ACE00001A252F823F000BFFBAE020031AF020018
:10ACF00069AF0200A7AF0200DDAF020013B002008F
:10AD00004BB0020081B002007FBA02007FBA02009D
:10AD10007FBA02007FBA02007FBA02007FBA020047
:10AD2000C1B00200F7B002007FBA02007FBA020091
:10AD30007FBA02007FBA020049B102007FB102006F
:10AD4000BFB102007FBA02007FBA02007FBA0200E0
:10AD500009B202003FB2020077B202007FBA0200DD
:10AD60007FBA02007FBA02007FBA0200C1B20200BD
:10AD7000FFB2020033B302007FBA02007FBA0200C2
:10AD80007FBA02007FBA02007FBA02007FBA0200D7
:10AD900073B302007FBA02007FBA02007FBA0200DA
:10ADA0007FBA0200BDB30200F1B3020025B4020075
:10ADB00059B402008DB402007FBA02007FBA0200CB
:10ADC000C1B40200F5B4020029B502005DB502006D
:10ADD0009BB502007FBA02007FBA0200CFB5020025
:10ADE00003B6020037B602006BB602007FBA02005B
:10ADF0007FBA02009FB60200D3B6020007B7020076
:10AE00003DB7020073B702007FBA02007FBA0200AA
:10AE10007FBA02007FBA02007FBA02007FBA020046
:10AE20007FBA02007FBA02007FBA02007FBA020036
:10AE30007FBA02007FBA02007FBA02007FBA020026
:10AE40007FBA02007FBA02007FBA02007FBA020016
:10AE50007FBA0200E1B7020015B802007FBA020013
:10AE60007FBA02007FBA020069B802007FBA02000E
:10AE70007FBA02007FBA02007FBA0200B1B80200B6
:10AE80007FBA02007FBA02007FBA02007FBA0200D6
:10AE9000FBB802007FBA02007FBA02007FBA02004C
:10AEA0007FBA02007FBA02007FBA02003BB90200FB
:10AEB0006FB902007FBA02007FBA02007FBA0200B7
:10AEC0007FBA0200BBB902007FBA02007FBA02005B
:10AED0007FBA02007FBA02001BBA0200089B082258
:10AEE0001A71069A079B9A4206D3089B40F21332C6
:10AEF0001A60012300F0C7BD00BF059B002B05D0E1
:10AF0000089A0599069B0B4412791A70069B013327
:10AF10000693089B0B221A71069A079B9A4206D346
:10AF2000089B4FF445721A60012300F0ACBD00BFCE
:10AF3000059B002B05D0089A0599069B0B441279B6
:10AF40001A70069B01330693089B099A127D1A71A9
:10AF5000069A079B9A4206D3089B40F215321A6064
:10AF6000012300F090BD00BF059B002B05D0089A7F
:10AF70000599069B0B4412791A70069B01330693C0
:10AF8000089B02221A71069A079B9A420AD3089BD1
:10AF900040F216321A60012300F075BDA8020120AC
:10AFA000407A030000BF059B002B05D0089A059945
:10AFB000069B0B4412791A70069B01330693089B7B
:10AFC00002221A71069A079B9A4206D3089B40F206
:10AFD00017321A60012300F056BD00BF059B002BFD
:10AFE00005D0089A0599069B0B4412791A70069BA6
:10AFF00001330693089B02221A71069A079B9A4214
:10B0000006D3089B4FF446721A60012300F03BBD43
:10B0100000BF059B002B05D0089A0599069B0B44A1
:10B0200012791A70069B01330693089B099A527E87
:10B030001A71069A079B9A4206D3089B40F219326E
:10B040001A60012300F01FBD00BF059B002B05D037
:10B05000089A0599069B0B4412791A70069B0133D6
:10B060000693089B00221A71069A079B9A4206D300
:10B07000089B40F21A321A60012300F004BD00BFA1
:10B08000059B002B05D0089A0599069B0B44127965
:10B090001A70069B01330693964B00221A7000F03B
:10B0A000E1BC089B09221A71069A079B9A4206D3B3
:10B0B000089B40F221321A60012300F0E4BC00BF7B
:10B0C000059B002B05D0089A0599069B0B44127925
:10B0D0001A70069B01330693089B04221A71069A84
:10B0E000079B9A4206D3089B40F222321A60012342
:10B0F00000F0C9BC00BF059B002B05D0089A05993C
:10B10000069B0B4412791A70069B01330693794B08
:10B110001B7819460298FFF70BF90346764A13602D
:10B12000754B1B68089C1846FFF72CF903462371E2
:10B13000069A079B9A4206D3089B40F227321A6070
:10B14000012300F0A0BC00BF059B002B05D0089A8E
:10B150000599069B0B4412791A70069B01330693DE
:10B16000089B00221A71069A079B9A4206D3089BF5
:10B170004FF44A721A60012300F085BC00BF059BA2
:10B18000002B05D0089A0599069B0B4412791A707A
:10B19000069B01330693584B1B68089C1846FFF723
:10B1A000F8F803462371069A079B9A4206D3089B38
:10B1B00040F229321A60012300F065BC00BF059BF4
:10B1C000002B05D0089A0599069B0B4412791A703A
:10B1D000069B01330693099B1C7D474B1B68184651
:10B1E000FFF7D0F803469C4252D1089B02221A7105
:10B1F000069A079B9A4206D3089B40F22D321A60AA
:10B20000012300F040BC00BF059B002B05D0089A2D
:10B210000599069B0B4412791A70069B013306931D
:10B22000089B02221A71069A079B9A4206D3089B32
:10B2300040F22E321A60012300F025BC00BF059BAE
:10B24000002B05D0089A0599069B0B4412791A70B9
:10B25000069B01330693089B099A527E1A71069A3F
:10B26000079B9A4206D3089B40F22F321A600123B3
:10B2700000F009BC00BF059B002B05D0089A05997A
:10B28000069B0B4412791A70069B0133069362E009
:10B29000099B9C7D184B1B681846FFF773F8034603
:10B2A0009C4253D1089B0A221A71069A079B9A4224
:10B2B00005D3089B4FF44D721A600123E3E300BFEE
:10B2C000059B002B05D0089A0599069B0B44127923
:10B2D0001A70069B01330693089B00221A71069A86
:10B2E000079B9A420AD3089B40F235321A60012329
:10B2F000C9E300BFA9020120AC02012000BF059BE9
:10B30000002B05D0089A0599069B0B4412791A70F8
:10B31000069B01330693089B00221A71069A079B2D
:10B320009A4205D3089B40F236321A600123AAE301
:10B3300000BF059B002B05D0089A0599069B0B447E
:10B3400012791A70069B0133069304E0904940F28B
:10B350003A30FCF768F9089B00221A71069A079B9D
:10B360009A4205D3089B40F23D321A6001238AE3DA
:10B3700000BF059B002B05D0089A0599069B0B443E
:10B3800012791A70069B01330693099B1C7D814B31
:10B390001B681846FEF7F6FF03469C4240F0F68114
:10B3A000089B05221A71069A079B9A4205D3089BAF
:10B3B00040F242321A60012365E300BF059B002B77
:10B3C00005D0089A0599069B0B4412791A70069BC2
:10B3D00001330693089B24221A71069A079B9A420E
:10B3E00005D3089B40F243321A6001234BE300BFB0
:10B3F000059B002B05D0089A0599069B0B441279F2
:10B400001A70069B01330693089B00221A71069A54
:10B41000079B9A4205D3089B4FF451721A6001238F
:10B4200031E300BF059B002B05D0089A0599069BC8
:10B430000B4412791A70069B01330693089B102265
:10B440001A71069A079B9A4205D3089B40F245322F
:10B450001A60012317E300BF059B002B05D0089A53
:10B460000599069B0B4412791A70069B01330693CB
:10B47000089B01221A71069A079B9A4205D3089BE2
:10B4800040F246321A600123FDE200BF059B002B0B
:10B4900005D0089A0599069B0B4412791A70069BF1
:10B4A00001330693089B05221A71069A079B9A425C
:10B4B00005D3089B40F249321A600123E3E200BF42
:10B4C000059B002B05D0089A0599069B0B44127921
:10B4D0001A70069B01330693089B24221A71069A60
:10B4E000079B9A4205D3089B40F24A321A60012317
:10B4F000C9E200BF059B002B05D0089A0599069B61
:10B500000B4412791A70069B01330693089B0122A3
:10B510001A71069A079B9A4205D3089B40F24B3258
:10B520001A600123AFE200BF059B002B05D0089AEB
:10B530000599069B0B4412791A70069B01330693FA
:10B54000089B03221A71069A079B9A4205D3089B0F
:10B550004FF453721A60012395E200BF059B002B44
:10B5600005D0089A0599069B0B4412791A70069B20
:10B5700001330693089B099A927D1A71069A079BDC
:10B580009A4209D3089B40F24D321A6001237AE2B5
:10B59000407A0300AC02012000BF059B002B05D0C0
:10B5A000089A0599069B0B4412791A70069B013381
:10B5B0000693089B04221A71069A079B9A4205D3A8
:10B5C000089B4FF454721A6001235CE200BF059B94
:10B5D000002B05D0089A0599069B0B4412791A7026
:10B5E000069B01330693089B24221A71069A079B37
:10B5F0009A4205D3089B40F251321A60012342E27D
:10B6000000BF059B002B05D0089A0599069B0B44AB
:10B6100012791A70069B01330693089B02221A7155
:10B62000069A079B9A4205D3089B40F252321A6051
:10B63000012328E200BF059B002B05D0089A05993D
:10B64000069B0B4412791A70069B01330693089BE4
:10B6500002221A71069A079B9A4205D3089B40F270
:10B6600053321A6001230EE200BF059B002B05D068
:10B67000089A0599069B0B4412791A70069B0133B0
:10B680000693089B05221A71069A079B9A4205D3D6
:10B69000089B40F256321A600123F4E100BF059B7B
:10B6A000002B05D0089A0599069B0B4412791A7055
:10B6B000069B01330693089B24221A71069A079B66
:10B6C0009A4205D3089B40F257321A600123DAE10F
:10B6D00000BF059B002B05D0089A0599069B0B44DB
:10B6E00012791A70069B01330693089B06221A7181
:10B6F000069A079B9A4205D3089B4FF456721A602C
:10B700000123C0E100BF059B002B05D0089A0599D5
:10B71000069B0B4412791A70069B01330693089B13
:10B72000099A127D1A71069A079B9A4205D3089BC3
:10B7300040F259321A600123A5E100BF059B002B9E
:10B7400005D0089A0599069B0B4412791A70069B3E
:10B7500001330693089B099A927D1A71069A079BFA
:10B760009A4205D3089B40F25A321A6001238AE1BB
:10B7700000BF059B002B05D0089A0599069B0B443A
:10B7800012791A70069B013306930EE0099B9C7D8B
:10B790009C4B1B681846FEF7F5FD03469C4204D0FF
:10B7A000994940F26330FBF73EFF964B1B68184601
:10B7B000FEF7EFFD03461A46944B1A70944B002295
:10B7C0001A7042E1089B07221A71069A079B9A4257
:10B7D00005D3089B40F26E321A60012353E100BF8B
:10B7E000059B002B05D0089A0599069B0B441279FE
:10B7F0001A70069B01330693089B05221A71069A5C
:10B80000079B9A4205D3089B40F26F321A600123CE
:10B8100039E100BF059B002B05D0089A0599069BCE
:10B820000B4412791A70069B01330693754B1B6803
:10B83000774A127811461846FEF7B2FD0346754A5C
:10B840001360744B1B68089C1846FEF7CFFD034637
:10B850002371069A079B9A4205D3089B40F27332E4
:10B860001A6001230FE100BF059B002B05D0089A49
:10B870000599069B0B4412791A70069B01330693B7
:10B88000099B1C7D5F4B1B681846FEF77BFD03463A
:10B890009C421AD1089B03221A71069A079B9A426E
:10B8A00005D3089B4FF45E721A600123EBE000BFE2
:10B8B000059B002B05D0089A0599069B0B4412792D
:10B8C0001A70069B0133069329E0099B9C7D4D4B22
:10B8D0001B681846FEF756FD03469C421AD1089B8A
:10B8E00002221A71069A079B9A4205D3089B40F2DE
:10B8F0007D321A600123C6E000BF059B002B05D0F6
:10B90000089A0599069B0B4412791A70069B01331D
:10B91000069304E03C4940F28130FBF784FE089B2B
:10B9200040221A71069A079B9A4205D3089B4FF44E
:10B9300061721A600123A6E000BF059B002B05D0B1
:10B94000089A0599069B0B4412791A70069B0133DD
:10B950000693089B00221A71069A079B9A4205D308
:10B96000089B40F285321A6001238CE000BF059BE2
:10B97000002B05D0089A0599069B0B4412791A7082
:10B98000069B01330693099B1C7D1E4B1B681846C2
:10B99000FEF7F8FC03469C421CD1099B1A6A089BDF
:10B9A00012781A71069A079B9A4205D3089B40F2B7
:10B9B0008A321A60012366E000BF059B002B05D088
:10B9C000089A0599069B0B4412791A70069B01335D
:10B9D000069334E0099B9C7D0A4B1B681846FEF7D2
:10B9E000D1FC03469C4225D1089B00221A71069A7D
:10B9F000079B9A4210D3089B40F28F321A600123B2
:10BA000041E000BFAC020120407A0300B0020120F7
:10BA1000B1020120B402012000BF059B002B05D01C
:10BA2000089A0599069B0B4412791A70069B0133FC
:10BA3000069304E0154940F29330FBF7F4FD144BF4
:10BA40001B780133DAB2124B1A70114B1A78114B72
:10BA50001B789A42FFF4B6AE0F4B1B780133DAB273
:10BA60000D4B1A700C4B1A780C4B1B789A42FFF452
:10BA700018AB089B40F29A321A60012303E0089B3E
:10BA800000221A60002318460AB010BD407A030055
:10BA9000B1020120B0020120A9020120A802012068
:10BAA00000B585B001900198FEF7C0FC0390039BA0
:10BAB0005B6F184605B05DF804FB000000B58BB065
:10BAC000039002910192029B002B04D1454940F260
:10BAD000D730FBF7A8FD0398FEF7A8FC0890089B59
:10BAE0009B8A03F00103002B01D1082375E0089B1A
:10BAF0009B69002B61D1089BDB6E019A9A4218D892
:10BB0000089B9B6E019A194602980AF071FC089BEB
:10BB1000DA6E019BD21A089BDA66089B9A6E019B2B
:10BB20001A44089B9A66089B019A5A670023099356
:10BB300052E0089B029A9A61089B019ADA61039885
:10BB4000FEF75BFC03461846FEF7CFFC03468DF874
:10BB50001F30254B0593089B0693089BDB6E002B3B
:10BB60001DD0089B9869089B996E089BDB6E1A464E
:10BB70000AF03EFC089BDA69089BDB6ED21A089B30
:10BB8000DA61089B9A69089BDB6E1A44089B9A61EC
:10BB9000089BDA6E089B1A67089B0022DA6605AAE2
:10BBA0009DF81F3011461846FEF7A2FA0990099B2E
:10BBB000002B11D1922309930EE0089B1B6A002BE6
:10BBC00008D1089B029A1A62089B019A5A62922332
:10BBD000099301E011230993099B18460BB05DF806
:10BBE00004FB00BF407A0300DDA8020082B0019090
:10BBF000019B03F1804303F51C33184602B07047E4
:10BC000000B583B003468DF807309DF8073018461D
:10BC1000FFF7ECFF034601221A60BFF36F8F00BFEE
:10BC2000BFF34F8F00BF00BF03B05DF804FB82B0CD
:10BC300003468DF807309DF8073003F01F03DBB291
:10BC4000184602B0704782B003468DF807309DF861
:10BC500007305B0903F00303DBB2184602B07047FC
:10BC600082B003468DF807309DF80730DB09DBB260
:10BC7000184602B0704782B00190019B1B7A1846AB
:10BC800002B0704782B00190019B1B68184602B059
:10BC90007047000000B583B00190019B002B04D1D8
:10BCA000064940F24320FBF7BEFC0198FFF7EAFF8C
:10BCB00003461B68184603B05DF804FBC07A030016
:10BCC00082B00190019B1B78184602B070470000BB
:10BCD00000B583B003468DF807300E4B1B789DF8F6
:10BCE00007209A4211D00B4A9DF8073013709DF837
:10BCF0000730052B06D0084B1B7823F00203DAB27D
:10BD0000054B1A700548FDF7F5FC00BF03B05DF860
:10BD100004FB00BFB8020120B9020120C47B03006C
:10BD2000014B1B7818467047B80201204FF0804342
:10BD3000D3F8383403F00103002B14BF0123002390
:10BD4000DBB2184670470000024B00221A6000BFA9
:10BD5000704700BF0003012000B585B003468DF891
:10BD600007300B4B1B680393039B002B0AD0FFF794
:10BD7000EBFF074B59689DF80720039B1046984737
:10BD8000034600E00E23184605B05DF804FB00BF33
:10BD900000030120044B1B68002B14BF0123002368
:10BDA000DBB21846704700BF0003012082B0034693
:10BDB00000918DF807300023184602B0704700004C
:10BDC00010B58EB003900291019201238DF83730A7
:10BDD000029B0993099B5B68002B15D1099B1B688B
:10BDE0001846FFF757FF0346002B0DD1099B9B68B0
:10BDF000002B09D100238DF83730039B00221A60F5
:10BE0000039B00225A60AAE0019B402B04D95649AB
:10BE100040F29710FBF707FC00230C9300238DF8EA
:10BE20002B3008F02FFC0890099BDB68019A9342A5
:10BE300028BF13460B9386E0099B9B680B9A93429D
:10BE400028BF13460793099B5B68002B0CD0089A08
:10BE50000C9BD018099B5B68079A19460AF0C8FA30
:10BE6000099B00225A6014E0099B9B68002B10D0AC
:10BE7000099B1B685B685C68099B03F11000099BC8
:10BE80001968089A0C9B1A44079BA04701238DF858
:10BE90002B30099B9A68079BD21A099B9A60099BD1
:10BEA000DA68079BD21A099BDA600B9A079BD31AB0
:10BEB0000B930C9A079B13440C93099B9B68002BD4
:10BEC0000BD19DF82B30002B07D0099B1B6818461F
:10BED000FFF7E0FE0246099B1A60099BDB68002B16
:10BEE00003D100238DF837302DE0099B9B68002B90
:10BEF00029D1099B1B68002B0DD1099B00225A6098
:10BF00000C9B002B24D00C9A019B9A4220D2002338
:10BF10008DF837301CE00023059304E0099B9B68F3
:10BF20005A1C099B9A60099B1B685B685C68099BAB
:10BF3000196805A801230022A0470346002BEDD174
:10BF4000099B00221A610B9B002B7FF475AF00E068
:10BF500000BF039B089A1A60039B0C9A5A609DF8D5
:10BF6000373018460EB010BD147B030000B587B003
:10BF70000190019B5B781846FFF765FE0346002B96
:10BF800001D0062383E0019B5B798DF81730FFF722
:10BF9000C7FE03468DF81630019B9B78032B29D0F2
:10BFA000032B6EDC002B02D0012B44D069E09DF8FE
:10BFB0001630052B05D09DF8173003F00F03002B2A
:10BFC00016D103AB184600F029FD04909DF81730F8
:10BFD000184608F0A5FB03469AB2049B1A80019B01
:10BFE000013302220499184600F0ACFC03464EE0EF
:10BFF00008234CE09DF8173003F00803002B42D1D2
:10C00000019BB3F803309BB2002B3CD19DF8173055
:10C0100003F00F03002B01D1062338E09DF8163002
:10C02000052B06D19DF81730184608F044FB002375
:10C030002DE008232BE09DF8173003F00803002BB8
:10C0400023D1019BB3F803309BB2002B1DD19DF887
:10C05000173003F00F03002B01D1062317E09DF8E2
:10C060001630052B0BD19DF81730184608F06BFBE6
:10C070009DF81730184608F030FB002307E008232E
:10C0800005E000BF02E000BF00E000BF0623184645
:10C0900007B05DF804FB00B58BB003900B4601922E
:10C0A0008DF80B30019B5B781846FFF7CCFD0346FB
:10C0B000002B01D006236AE0FFF732FE03468DF81D
:10C0C0002730019B5B781846FFF7CAFD0346012B1A
:10C0D0003BD1019B9B78002B02D00A2B17D055E057
:10C0E0009DF82730052B01D0082350E006AB1846F9
:10C0F00000F094FC0790079B00221A80019B0133FB
:10C1000002220799184600F01DFC03463FE09DF807
:10C110002730052B01D0082339E005AB184600F085
:10C120007DFC08909DF80B3019460398FEF74EF8F9
:10C1300003461A46089B1A70019B01330122089995
:10C14000184600F0FFFB034621E0019B9B780B2B78
:10C150001BD19DF82730052B01D0082317E0019B48
:10C16000B3F803309BB2FF2B01D907230FE0019BEB
:10C17000DB788DF826309DF826209DF80B30194687
:10C180000398FDF7DBFF034601E000BF06231846D6
:10C190000BB05DF804FB000000B585B00190009184
:10C1A00002AB184600F03AFC0390029B012B04D826
:10C1B000184940F29F20FBF736FA0222002103982B
:10C1C0000AF03FF9C02303F04003002B06D0039B85
:10C1D0001B7843F00103DAB2039B1A700E4B1B78F5
:10C1E0005B08DBB203F00103002B06D0039B1B7836
:10C1F00043F00203DAB2039B1A70009B0133022260
:10C200000399184600F09EFB0346184605B05DF8FA
:10C2100004FB00BF147B0300B902012010B58EB0EF
:10C2200001900091009B1B79032B00F0BC80032B35
:10C2300000F3E780012B02D0022B11D0E1E0009B3C
:10C24000B3F807309BB2002B01D10023DBE0009B49
:10C25000013312226D49184600F074FB0346D2E008
:10C26000009BB3F807309BB2002B01D10023CAE03A
:10C27000009BB3F807309BB2092B28BF09239BB260
:10C28000069309230D9300238DF83330FDF73EFE0E
:10C290000B9037E00B9B5B68002B04D15C4940F2AC
:10C2A000D120FBF7C0F90B9B5B685B68002B04D1C6
:10C2B000574940F2D220FBF7B6F900230A93002336
:10C2C000029302E00A9B01330A930B9B5B685C6854
:10C2D00002A8012300220B99A0470346002BF1D1AD
:10C2E0000D9A0A9B13440D930B98FFF7C4FC034669
:10C2F0001A469DF8333013448DF833300B98FFF70E
:10C30000C9FC0B900B9B002BC4D104AB184600F06A
:10C3100085FB0590049B069A9A4204D93C4940F259
:10C32000E720FBF780F9069A3A4905980AF060F889
:10C33000059B9DF833201A710D9B9AB2059B5A807C
:10C34000FDF7ACFD0346002B06D0059BDB7943F0DF
:10C350002003DAB2059BDA71FDF7D8FD03462E4AB9
:10C3600013602D4A059B53602B4A069B9360009BEC
:10C37000B3F807309BB21A46274BDA600020FBF770
:10C38000EFF826498020FDF7B3FE0990099B002BAA
:10C3900004D12349802000F023FB09900020FBF703
:10C3A000F3F8099B2FE0009BB3F807309BB2002BFA
:10C3B00001D1002327E0009BDB788DF82330009B20
:10C3C0005A799B791B021343ADF82030BDF8202029
:10C3D0009DF823301146184600F0D8FB0790079BC4
:10C3E000002B01D106230EE0009B5C1C0798FFF791
:10C3F00067FC03461A460799204600F0A3FA034655
:10C4000001E000BF062318460EB010BD707B03008C
:10C41000147B0300847B030014030120BC7B030016
:10C42000B47B030000B587B00190009103AB1846C0
:10C4300000F0F4FA0590FFF773FC03468DF8133013
:10C440009DF81330052B03D1059B01221A7009E0DA
:10C450009DF81330042B03D1059B00221A7001E0D4
:10C46000062307E0009B013301220599184600F0DE
:10C4700069FA0346184607B05DF804FB00B585B0BD
:10C4800001900091FFF74CFC03468DF80F309DF8AA
:10C490000F30052B05D09DF80F30042B01D0082359
:10C4A00016E0009BDB78002B05D1FDF7E9FE0420A8
:10C4B000FFF70EFC0BE0009BDB78012B05D1FDF7AD
:10C4C000A5FE0520FFF704FC01E0072300E00023A0
:10C4D000184605B05DF804FB00B583B001900091EB
:10C4E000019B002B04D150494FF45A70FBF79BF885
:10C4F000009B002B04D14C4940F26930FBF793F8C4
:10C50000009B5B781846FFF79EFB0346002B01D08B
:10C51000062385E0009B5B781846FFF7A1FB0346E6
:10C52000012B1FD1009B9B78082B12D0082B16DC07
:10C53000002B02D0062B06D011E000990198FFF7DE
:10C540002BFE03466CE000990198FFF767FE034657
:10C5500066E000990198FFF765FF034660E000BFC1
:10C5600006235DE0009B9B78013B082B52D801A27B
:10C5700052F823F0D7C5020015C60200A5C5020077
:10C5800015C6020099C5020015C6020015C60200B4
:10C5900015C6020009C6020023494FF46370FBF779
:10C5A00042F83CE0009BB3F803309BB2012B33D13F
:10C5B000FDF774FC034683F00103DBB2002B01D0CE
:10C5C0000F232DE0194B1B7843F00203DAB2174B0F
:10C5D0001A70002324E0009BB3F803309BB2012BB8
:10C5E0001CD1FDF75BFC034683F00103DBB2002B9B
:10C5F00001D00F2314E00D4B1B7823F00203DAB2B5
:10C600000A4B1A7000230BE000990198FFF736FFE0
:10C61000034605E000BF02E000BF00E000BF0623C4
:10C62000184603B05DF804FB147B0300B902012037
:10C6300000B58BB001900623099305238DF81030C7
:10C6400004AB0133184608F08DF8FFF7A3FBFFF7A2
:10C650007BFB9DF811301846FFF7E9FA0346032BE0
:10C6600063D801A252F823F079C6020097C60200EF
:10C67000E5C602001FC7020004AB19460198FFF788
:10C680002BFF0990099B062B51D104AB1846FDF7EF
:10C69000EAFC09904BE09DF815308DF822300DF141
:10C6A0000F029DF8223011461846FDF741FC079015
:10C6B000079B002B02D1102309933AE09DF80F301D
:10C6C00004AA19460798FDF777FC0990099B062BE9
:10C6D0002FD19DF80F3004AA19460798FFF7DBFC0D
:10C6E000099026E0062309939DF815308DF8233034
:10C6F0009DF8233003F00F03002B07D004AA9DF808
:10C70000233011461846FDF767FC0990099B062B5C
:10C7100011D104AB1846FFF729FC09900BE004ABDC
:10C720001846FDF7A0FC099006E000BF04E000BF3A
:10C7300002E000BF00E000BF099B002B0FD1FFF714
:10C7400029FB0346002B07D008F048F80346002BCE
:10C7500007D108F031F804E008F034F801E008F0FF
:10C7600037F8099B18460BB05DF804FB00B585B09F
:10C770000190009106230393009B1B780E2B25DC70
:10C78000002B40F3BD80013B0D2B00F2B98001A2CC
:10C7900052F823F0D3C70200DBC70200E1C7020052
:10C7A00001C9020027C80200A9C8020001C902008D
:10C7B00001C9020001C9020001C9020031C802001A
:10C7C0004BC802006BC8020089C80200852B1DD02F
:10C7D00096E00320FFF77CFA99E00023039396E0AC
:10C7E0004D48FAF7D3FF0346002B02D05C20FFF739
:10C7F00007FAFFF795FA0346002B04D1474940F2A8
:10C800004240FAF710FF0023039380E0FFF788FA15
:10C8100003468DF80B309DF80B30032B72D10420AA
:10C82000FFF756FA6EE00198FFF702FF03906EE003
:10C83000FFF776FA0346002B04D0384940F2564001
:10C84000FAF7F1FE0023039361E0FFF769FA03466C
:10C85000012B04D0314940F25C40FAF7E4FE00209D
:10C86000FFF736FA0023039351E0FFF75FFA034620
:10C87000002B03D00220FFF72BFA02E00120FFF784
:10C8800027FA0023039342E0FFF74AFA0346012BFD
:10C8900004D822494FF48E60FAF7C5FE0120FFF755
:10C8A00017FA0023039332E0009BDB78032B2BD095
:10C8B000009B9B78002B08D0009B9B78802B04D09A
:10C8C000164940F27E40FAF7AEFE009BDB78184630
:10C8D000FFF742FA0390039B002B0ED1FFF75AFAA1
:10C8E0000346002B06D0009B9B78002B0ED107F04F
:10C8F00063FF0BE007F066FF08E007F069FF05E063
:10C9000000BF04E000BF02E000BF00E000BF039BE7
:10C91000184605B05DF804FBBC020120147B03003F
:10C9200008B50020FDF7C6FA8020FDF7C3FA00BF66
:10C9300008BD08B50020FDF7DBFA8020FDF7D8FA26
:10C9400000BF08BD00B58DB0039002910192039B1A
:10C95000DB889BB20A93019A0A9B934228BF134635
:10C960000993019A0A9B9A420ED2802007F0BCFCE0
:10C9700003461A46019BB3FBF2F101FB02F29B1A3C
:10C98000002B01D1012300E000238DF823309DF816
:10C99000233003F001038DF82330029B0593099B9C
:10C9A00006939DF8233007930020FAF7D9FD05ABD5
:10C9B00019468020FDF776FB0B900B9B002B04D1D2
:10C9C0000649802000F00CF80B900020FAF7DCFDFF
:10C9D0000B9B18460DB05DF804FB00BFB47B030051
:10C9E00000B583B0034600918DF8073007F0F6FEDE
:10C9F00003461A469DF80730934201D0102306E003
:10CA0000054B009A92E8030083E8030000231846D0
:10CA100003B05DF804FB00BF0003012082B0019069
:10CA2000019B002B02D0019B40221A60014B18464B
:10CA300002B07047C002012000B585B0019000230C
:10CA400003930BE0019A039B13441978094A039B53
:10CA500013440A461A70039B01330393019809F0AB
:10CA600023FD0246039B9342ECD300BF00BF05B0F9
:10CA70005DF804FB2C03012000B589B04FF0805312
:10CA8000D3F8A8309BB26FEA83436FEA9343ADF8C3
:10CA90001E304FF08053D3F8A4300693BDF81E200B
:10CAA00002A8069B00931346054A0D2109F076FC67
:10CAB00002AB1846FFF7C0FF00BF09B05DF804FBEA
:10CAC000C87B030000B587B003460A468DF80730DF
:10CAD0001346ADF804309DF80720BDF8043029490D
